:020000040800F2
:1000000000000220751800086D1700086F1700081F
:10001000711700087317000875170008000000002A
:10002000000000000000000000000000018B00083C
:100030007717000800000000918B00088F6B000804
:10004000C5180008C5180008C5180008C51800081C
:10005000C5180008C5180008C5180008C51800080C
:10006000C5180008C5180008C5180008C5180008FC
:1000700079170008C518000885170008C51800087A
:10008000C5180008C5180008C5180008C5180008DC
:10009000C5180008C5180008C5180008C5180008CC
:1000A000C5180008C5180008C5180008C5180008BC
:1000B000C5180008C5180008C5180008C5180008AC
:1000C000C5180008C5180008C5180008C51800089C
:1000D000C5180008C5180008C5180008C51800088C
:1000E000C5180008C5180008C5180008C51800087C
:1000F000C5180008C5180008C5180008C51800086C
:10010000C5180008C5180008C5180008C51800085B
:10011000C5180008C518000891170008C518000880
:100120009D170008C5180008C5180008A917000881
:10013000B5170008C5180008C5180008C51800083C
:10014000C5180008C5180008C5180008C117000820
:10015000C5180008C5180008C5180008C51800080B
:10016000C5180008C5180008C5180008C5180008FB
:10017000C5180008C5180008C518000800000000D0
:08018000C5180008C5180008AD
:1001900010B5054C237833B9044B13B10448AFF3C1
:1001A00000800123237010BDCC020020000000005D
:1001B00004C3000808B5034B1BB103490348AFF360
:1001C000008008BD00000000D002002004C3000829
:1001D000034613F8012B002AFBD1181A0138704787
:1001E00001F0FF01102A2BDB10F0070F08D010F8E8
:1001F000013B013A8B422DD010F0070F42B3F6D1EC
:10020000F0B441EA012141EA014122F007047FF004
:1002100000070023F0E80256083C85EA010586EA5B
:10022000010685FA47F5A3FA87F586FA47F6A5FA97
:1002300087F68EB9EED1F0BC01F0FF0102F00702A3
:1002400032B110F8013B013A83EA010313B1F8D14E
:100250000020704701387047002D06BF354603382F
:10026000073815F0010F07D1013015F4807F02BF68
:10027000013015F4C03F0130F0BC0138704700BFB9
:1002800081F0004102E000BF83F0004330B54FEA47
:1002900041044FEA430594EA050F08BF90EA020FB4
:1002A0001FBF54EA000C55EA020C7FEA645C7FEA47
:1002B000655C00F0E2804FEA5454D4EB5555B8BF6A
:1002C0006D420CDD2C4480EA020281EA030382EADB
:1002D000000083EA010180EA020281EA0303362D6D
:1002E00088BF30BD11F0004F4FEA01314FF4801C40
:1002F0004CEA113102D0404261EB410113F0004F52
:100300004FEA03334CEA133302D0524263EB430308
:1003100094EA050F00F0A780A4F10104D5F1200EA6
:100320000DDB02FA0EFC22FA05F2801841F1000101
:1003300003FA0EF2801843FA05F359410EE0A5F1D5
:1003400020050EF1200E012A03FA0EFC28BF4CF006
:10035000020C43FA05F3C01851EBE37101F00045BC
:1003600007D54FF0000EDCF1000C7EEB00006EEBC9
:100370000101B1F5801F1BD3B1F5001F0CD3490853
:100380005FEA30004FEA3C0C04F101044FEA4452AA
:1003900012F5800F80F09A80BCF1004F08BF5FEA31
:1003A000500C50F1000041EB045141EA050130BD11
:1003B0005FEA4C0C404141EB0101013C28BFB1F523
:1003C000801FE9D291F0000F04BF01460020B1FA6E
:1003D00081F308BF2033A3F10B03B3F120020CDA41
:1003E0000C3208DD02F1140CC2F10C0201FA0CF01F
:1003F00021FA02F10CE002F11402D8BFC2F1200C84
:1004000001FA02F120FA0CFCDCBF41EA0C01904039
:10041000E41AA2BF01EB0451294330BD6FEA040482
:100420001F3C1CDA0C340EDC04F11404C4F120026D
:1004300020FA04F001FA02F340EA030021FA04F37F
:1004400045EA030130BDC4F10C04C4F1200220FAD6
:1004500002F001FA04F340EA0300294630BD21FA14
:1004600004F0294630BD94F0000F83F4801306BFDA
:1004700081F480110134013D4EE77FEA645C18BFCE
:100480007FEA655C29D094EA050F08BF90EA020F65
:1004900005D054EA000C04BF1946104630BD91EA5D
:1004A000030F1EBF0021002030BD5FEA545C05D160
:1004B0004000494128BF41F0004130BD14F580049F
:1004C0003CBF01F5801130BD01F0004545F0FE4113
:1004D00041F470014FF0000030BD7FEA645C1ABF48
:1004E000194610467FEA655C1CBF0B46024650EA7F
:1004F000013406BF52EA033591EA030F41F40021AB
:1005000030BD00BF90F0000F04BF0021704730B530
:100510004FF4806404F132044FF000054FF0000105
:1005200050E700BF90F0000F04BF0021704730B5C6
:100530004FF4806404F1320410F0004548BF40429B
:100540004FF000013EE700BF42004FEAE2014FEAF0
:1005500031014FEA02701FBF12F07F4393F07F4FCB
:1005600081F06051704732F07F4208BF704793F0CE
:100570007F4F04BF41F40021704730B54FF46074E1
:1005800001F0004521F000411CE700BF50EA0102E4
:1005900008BF704730B54FF000050AE050EA01028D
:1005A00008BF704730B511F0004502D5404261EBFD
:1005B00041014FF4806404F132045FEA915C3FF43E
:1005C000D8AE4FF003025FEADC0C18BF03325FEADB
:1005D000DC0C18BF033202EBDC02C2F1200300FA8C
:1005E00003FC20FA02F001FA03FE40EA0E0021FAB1
:1005F00002F11444BDE600BF70B54FF0FF0C4CF49F
:10060000E06C1CEA11541DBF1CEA135594EA0C0F50
:1006100095EA0C0F00F0DEF82C4481EA030621EA8B
:100620004C5123EA4C5350EA013518BF52EA0335C6
:1006300041F4801143F4801338D0A0FB02CE4FF078
:100640000005E1FB02E506F00042E0FB03E54FF0A8
:100650000006E1FB03569CF0000F18BF4EF0010EA0
:10066000A4F1FF04B6F5007F64F5407404D25FEA9C
:100670004E0E6D4146EB060642EAC62141EA55514F
:100680004FEAC52040EA5E504FEACE2EB4F1FD0C91
:1006900088BFBCF5E06F1ED8BEF1004F08BF5FEA0F
:1006A000500E50F1000041EB045170BD06F00046C1
:1006B00046EA010140EA020081EA0301B4EB5C046E
:1006C000C2BFD4EB0C0541EA045170BD41F4801166
:1006D0004FF0000E013C00F3AB8014F1360FDEBF8B
:1006E000002001F0004170BDC4F10004203C35DA67
:1006F0000C341BDC04F11404C4F1200500FA05F3EA
:1007000020FA04F001FA05F240EA020001F000428A
:1007100021F0004110EBD37021FA04F642EB060100
:100720005EEA430E08BF20EAD37070BDC4F10C042A
:10073000C4F1200500FA04F320FA05F001FA04F2EE
:1007400040EA020001F0004110EBD37041F10001DA
:100750005EEA430E08BF20EAD37070BDC4F12005E5
:1007600000FA05F24EEA020E20FA04F301FA05F24D
:1007700043EA020321FA04F001F0004121FA04F2F5
:1007800020EA020000EBD3705EEA430E08BF20EAC5
:10079000D37070BD94F0000F0FD101F000464000FF
:1007A00041EB010111F4801F08BF013CF7D041EA81
:1007B000060195F0000F18BF704703F00046520085
:1007C00043EB030313F4801F08BF013DF7D043EA56
:1007D0000603704794EA0C0F0CEA135518BF95EA0C
:1007E0000C0F0CD050EA410618BF52EA4306D1D193
:1007F00081EA030101F000414FF0000070BD50EAB2
:10080000410606BF1046194652EA430619D094EA3B
:100810000C0F02D150EA013613D195EA0C0F05D125
:1008200052EA03361CBF104619460AD181EA030179
:1008300001F0004141F0FE4141F470014FF0000031
:1008400070BD41F0FE4141F4780170BD70B54FF0CC
:10085000FF0C4CF4E06C1CEA11541DBF1CEA13554C
:1008600094EA0C0F95EA0C0F00F0A7F8A4EB05042E
:1008700081EA030E52EA03354FEA013100F0888025
:100880004FEA03334FF0805545EA131343EA1263EE
:100890004FEA022245EA111545EA10654FEA0026A3
:1008A0000EF000419D4208BF964244F1FD0404F55C
:1008B000407402D25B084FEA3202B61A65EB0305B8
:1008C0005B084FEA32024FF480104FF4002CB6EB75
:1008D000020E75EB030E22BFB61A754640EA0C00F5
:1008E0005B084FEA3202B6EB020E75EB030E22BF35
:1008F000B61A754640EA5C005B084FEA3202B6EB76
:10090000020E75EB030E22BFB61A754640EA9C0034
:100910005B084FEA3202B6EB020E75EB030E22BF04
:10092000B61A754640EADC0055EA060E18D04FEAC2
:10093000051545EA16754FEA06164FEAC30343EA62
:1009400052734FEAC2025FEA1C1CC0D111F4801F2F
:100950000BD141EA00014FF000004FF0004CB6E728
:1009600011F4801F04BF01430020B4F1FD0C88BFC7
:10097000BCF5E06F3FF6AFAEB5EB030C04BFB6EBD2
:10098000020C5FEA500C50F1000041EB045170BDC5
:100990000EF0004E4EEA113114EB5C04C2BFD4EBF2
:1009A0000C0541EA045170BD41F480114FF0000E76
:1009B000013C90E645EA060E8DE60CEA135594EAF2
:1009C0000C0F08BF95EA0C0F3FF43BAF94EA0C0FF5
:1009D0000AD150EA01347FF434AF95EA0C0F7FF46A
:1009E00025AF104619462CE795EA0C0F06D152EABE
:1009F00003353FF4FDAE1046194622E750EA4106A2
:100A000018BF52EA43067FF4C5AE50EA41047FF4B2
:100A10000DAF52EA43057FF4EBAE12E74FF0FF3C17
:100A200006E000BF4FF0010C02E000BF4FF0010CE8
:100A30004DF804CD4FEA410C7FEA6C5C4FEA430C61
:100A400018BF7FEA6C5C1BD001B050EA410C0CBFB0
:100A500052EA430C91EA030F02BF90EA020F002012
:100A6000704710F1000F91EA030F58BF994208BF79
:100A700090422CBFD8176FEAE37040F00100704736
:100A80004FEA410C7FEA6C5C02D150EA013C07D18D
:100A90004FEA430C7FEA6C5CD6D152EA033CD3D0D8
:100AA0005DF8040B704700BF8446104662468C46D2
:100AB0001946634600E000BF01B5FFF7B7FF002805
:100AC00048BF10F1000F01BD4DF808EDFFF7F4FF2E
:100AD0000CBF012000205DF808FB00BF4DF808EDB9
:100AE000FFF7EAFF34BF012000205DF808FB00BFDC
:100AF0004DF808EDFFF7E0FF94BF012000205DF8FE
:100B000008FB00BF4DF808EDFFF7CEFF94BF0120B2
:100B100000205DF808FB00BF4DF808EDFFF7C4FFAB
:100B200034BF012000205DF808FB00BF4FEA410CF4
:100B30007FEA6C5C02D150EA013C0AD14FEA430CD7
:100B40007FEA6C5C02D152EA033C02D14FF0000014
:100B500070474FF0010070474FEA410212F5001252
:100B600015D211D56FF47873B3EB625212D94FEAF4
:100B7000C12343F0004343EA505311F0004F23FADE
:100B800002F018BF404270474FF00000704750EA33
:100B9000013005D111F0004008BF6FF000407047F0
:100BA0004FF00000704700BF53B94AB9002908BF91
:100BB00000281CBF4FF0FF314FF0FF3000F074B938
:100BC000ADF1080C6DE904CE00F006F8DDF804E0A4
:100BD000DDE9022304B070472DE9F047089D044683
:100BE0008E46002B4DD18A42944669D9B2FA82F2E0
:100BF00052B101FA02F3C2F1200120FA01F10CFA1C
:100C000002FC41EA030E94404FEA1C48210CBEFB53
:100C1000F8F61FFA8CF708FB16E341EA034306FBDC
:100C200007F199420AD91CEB030306F1FF3080F06B
:100C30001F81994240F21C81023E63445B1AA4B2B8
:100C4000B3FBF8F008FB103344EA034400FB07F75A
:100C5000A7420AD91CEB040400F1FF3380F00A819B
:100C6000A74240F207816444023840EA0640E41B90
:100C700000261DB1D4400023C5E900433146BDE83C
:100C8000F0878B4209D9002D00F0EF800026C5E9DE
:100C9000000130463146BDE8F087B3FA83F6002EF6
:100CA0004AD18B4202D3824200F2F980841A61EB6E
:100CB000030301209E46002DE0D0C5E9004EDDE78C
:100CC00002B9FFDEB2FA82F2002A40F09280A1EB74
:100CD0000C014FEA1C471FFA8CFE0126200CB1FBC9
:100CE000F7F307FB131140EA01410EFB03F08842C2
:100CF00008D91CEB010103F1FF3802D2884200F24F
:100D0000CB804346091AA4B2B1FBF7F007FB1011E0
:100D100044EA01440EFB00FEA64508D91CEB04047E
:100D200000F1FF3102D2A64500F2BB800846A4EBD9
:100D30000E0440EA03409CE7C6F12007B34022FAC4
:100D400007FC4CEA030C20FA07F401FA06F31C43F3
:100D5000F9404FEA1C4900FA06F3B1FBF9F8200C00
:100D60001FFA8CFE09FB181140EA014108FB0EF046
:100D7000884202FA06F20BD91CEB010108F1FF3A96
:100D800080F08880884240F28580A8F102086144A2
:100D9000091AA4B2B1FBF9F009FB101144EA0141B0
:100DA00000FB0EFE8E4508D91CEB010100F1FF345B
:100DB0006CD28E456AD90238614440EA0840A0FBF3
:100DC0000294A1EB0E01A142C846A64656D353D0C9
:100DD0005DB1B3EB080261EB0E0101FA07F722FAED
:100DE00006F3F1401F43C5E9007100263146BDE816
:100DF000F087C2F12003D8400CFA02FC21FA03F379
:100E0000914001434FEA1C471FFA8CFEB3FBF7F0F9
:100E100007FB10360B0C43EA064300FB0EF69E421E
:100E200004FA02F408D91CEB030300F1FF382FD2B7
:100E30009E422DD9023863449B1B89B2B3FBF7F65F
:100E400007FB163341EA034106FB0EF38B4208D938
:100E50001CEB010106F1FF3816D28B4214D9023E79
:100E60006144C91A46EA004638E72E46284605E797
:100E70000646E3E61846F8E64B45A9D2B9EB020868
:100E800064EB0C0E0138A3E74646EAE7204694E7F8
:100E90004046D1E7D0467BE7023B614432E730462B
:100EA00009E76444023842E7704700BF08B50A4CBE
:100EB0000A4DD4F8B8004FF0FF3105F040FF022191
:100EC000284601F08EF9D4F8B80005F063FFC82079
:100ED00005F0DFFEEDE700BFFC050020000002404A
:100EE00008B541F2707005F0D4FEFAE708B5C820E5
:100EF00005F0CFFEFBE7000008B5114801221021E4
:100F000001F06AF901224FF400610E4801F064F922
:100F10000D4804F064F80C48022104F0A3F80A48D4
:100F2000012104F0B4F8002307481A46194604F0DA
:100F3000C1F8064808F082FBFA2005F0AAFEFBE79C
:100F400000000240000C02408808002048080020F1
:100F500010B50846144691B208F072F8204610BD4C
:100F60000268034B9A4201D100F0C8BC704700BF31
:100F70000010004008B572B6024C204609F0FAF99C
:100F8000FBE700BF20C3000810B594B01022002179
:100F90000AA808F09DFC1422002103A808F098FC80
:100FA0001F4B002101911A6C42F080521A641B6C95
:100FB00003F080530193019B1A4B02911A6842F48B
:100FC00080421A601B6803F480430293029B012154
:100FD0004FF480330224CDE908134FF4800304203A
:100FE000CDE90E43A823CDE91003072308A81294E6
:100FF000139301F055FE08B1FFF7BCFF0F23CDE9B5
:10100000033405904FF4A0524FF48053052103A8F8
:10101000CDE9062302F022F80028EDD114B010BD6E
:10102000003802400070004080B594B0644D002448
:1010300000F04AFCFFF7A8FF142200210FA808F0D7
:1010400047FC03942B6B5F4843F080032B632B6BAF
:1010500003F080030393039B04942B6B43F004037E
:101060002B632B6B03F004030493049B05942B6BFD
:1010700043F001032B632B6B03F001030593059BE6
:1010800006942B6B43F010032B632B6B03F01003C0
:101090000693069B07942B6B43F002032B632B6B89
:1010A00003F002030793079B08942B6B43F008039C
:1010B0002B632B6B03F00803089322461221089B35
:1010C00001F08AF8404822464FF4024101F084F8CA
:1010D00022463E484FF4006101F07EF801261223BB
:1010E00038480FA9CDE90F36CDE9114400F09AFF39
:1010F0004FF4024334480FA9CDE90F36CDE911442E
:1011000000F090FF4FF4006330480FA9CDE90F368F
:10111000CDE9114400F086FF01942B6B43F480036A
:101120002B632B6B03F480030193019B02942B6BC5
:1011300043F400132B632B6B254D03F4001322465D
:10114000052102930C20029B00F048FD0C2000F0CA
:1011500077FD224605210E2000F040FD0E2000F014
:101160006FFD22460521382000F038FD382000F0C0
:1011700067FD224605213B2000F030FD3B2000F0BA
:101180005FFD224605213C2000F028FD10273C2071
:1011900000F056FD21463A460FA808F099FB0D498C
:1011A000AC605323C5E9001328466323CDE9094405
:1011B000C5E90334AC6102F0C3FC68B1FFF7DAFEA5
:1011C000003802400000024000100240000C0240C3
:1011D00070050020000400404FF480530FA92846FA
:1011E0000F9302F0E3FC0028E8D12023CDE9093079
:1011F00009A9284602F076FD05460028DED13A46C8
:1012000001460BA808F064FB5D4CDFF8C4E1A56063
:101210004FF48033C4E900E384F820504FF00063BA
:101220004FF08052E56020460525C4E90A32266168
:101230002676E56184F83060666100F085FB002861
:10124000BCD10D900BA92046CDE90B7600F022FC15
:101250000028B3D14FF00B0C02230BA92046CDE997
:101260000BC300F017FC0028A8D10C2603230BA900
:101270002046CDE90B6300F00DFC00289ED104232D
:101280000BA920460B970C9300F004FC002895D185
:1012900011230BA92046CDE90B3500F0FBFB0346DB
:1012A00000288BD13748384983624FF48272C0E9F5
:1012B0000012C0E90233C0E90433C0E908334FF437
:1012C000007418220A23C0E90642C36202F050F8F3
:1012D00000287FF473AF07F063FE2C4D2C4A4FF4C7
:1012E000E133C5E90023284600230C22C5E9023377
:1012F000C5E905232B61EB6102F0C0FD064600281D
:101300007FF45CAF234C0323237023721E23A4F8C5
:10131000A230214BE3604FF4004323821F4BC4F8FB
:1013200098308023A4F8A4302046042384F8403168
:10133000656003F0ABFF204604F01EF805F034FCB6
:10134000174A1848314605F05BFC174B174A1860DE
:101350003146174805F054FC164B174A18603146C1
:10136000164805F04DFC164B164A186031461648D3
:1013700005F046FC154B186005F028FCFEE700BFA1
:10138000F00200201805002000300140B8050020C0
:1013900000480040FC0500200010024040070020EB
:1013A0009CC30008AD0E0008E8020020C0C300087E
:1013B000E10E00084008002078C30008F90E00087C
:1013C0004408002054C30008ED0E0008EC02002081
:1013D0000020014008B505480922012103F0F6FD6F
:1013E000BDE80840024807F0F5BF00BF88080020AC
:1013F0004808002082B00E4B00220092596C41F444
:1014000080415964596C01F4804100910099019226
:10141000196C41F0805119641B6C03F080530193E7
:10142000019B0F216FF0010002B000F0D7BB00BF9D
:101430000038024070B5064688B01422002103A887
:1014400008F046FA3268204B9A423AD103F58C33C1
:10145000002501955A6C1D481D4C42F480725A6457
:101460005A6C02F480720192019A02951A6B42F052
:1014700004021A631B6B03F004030293029B06220F
:10148000032303A9CDE9032300F0CCFD114B4FF456
:101490008061C4E900354FF400634FF40050C4E9A3
:1014A00004134FF48073C4E906032046C4E90255CF
:1014B000C4E9085500F0E8FB08B1FFF75BFDB46331
:1014C000A66308B070BD00BF0020014000080240C4
:1014D000380300207064024070B5064688B01422BC
:1014E000002103A808F0F4F932682D4B9A4255D137
:1014F000002503F5843301955A6C42F480525A64F6
:101500005A6C02F480520192019A02951A6B42F0D1
:1015100001021A631B6B03F001030293029BE0209C
:101520000223CDE90303032405231E4803A9CDE9C3
:10153000064300F077FD1C4CDFF878C04FF0C06325
:10154000C4E900C320464FF48063C4E90255C4E9EE
:101550000435C4E90655C4E9085500F095FB08B107
:10156000FFF708FD114AF464A663114C4FF0C06305
:10157000C4E90023402100234FF480622046C4E9DF
:101580000213C4E90423C4E90633C4E9083300F0B4
:101590007BFB08B1FFF7EEFCB464A66308B070BD36
:1015A00000300140000002409803002058640240CF
:1015B000F8030020106402400268094B9A4282B08E
:1015C0000BD100230193074B1A6C42F002021A64FC
:1015D0001B6C03F002030193019B02B0704700BF34
:1015E000000400400038024070B5064688B014225E
:1015F000002103A808F06CF932682E4B9A4256D1AC
:10160000002503F5F83301951A6C42F480221A6420
:101610001A6C02F480220192019A02951A6B42F030
:1016200002021A631B6B03F002030293029B4FF446
:1016300040600223CDE90303032407231E4803A9C6
:10164000CDE9064300F0EEFC1C4CDFF87CC04FF007
:101650000063C4E900C320464FF48063C4E9025527
:10166000C4E90435C4E90655C4E9085500F00CFB8B
:1016700008B1FFF77FFC124AB463A663114C4FF028
:101680000063C4E90023402100234FF48062204618
:10169000C4E90213C4E90423C4E90633C4E90833E6
:1016A00000F0F2FA08B1FFF765FC7463A66308B0B6
:1016B00070BD00BF004800400004024058040020F4
:1016C00058600240B80400202860024070B588B01D
:1016D00000230293204B1A6C42F010021A641B6C18
:1016E00003F010030293054601A903A8029B01F031
:1016F00077FD069B4BBB01F053FD184E184B336032
:1017000040F2E733F360174BB0FBF3F3013B736038
:10171000304600233361B360B36102F011FA04462E
:1017200080B9304602F0C6F8044658B9362000F0B9
:1017300087FA0F2D0DD822462946362000F04EFAA2
:10174000094B1D60204608B070BD01F029FD400026
:10175000D3E70124F6E700BF003802408C080020E0
:101760000010004040420F0008000020FEE7FEE7A6
:10177000FEE7FEE7FEE77047014800F095BB00BFBB
:1017800058040020014800F08FBB00BFB8040020BF
:10179000014802F0CDB800BF8C080020014800F0DD
:1017A00083BB00BF98030020014800F07DBB00BF51
:1017B000F8030020014800F077BB00BF3803002089
:1017C000014800F001BF00BF1067002001207047F2
:1017D00008B508F03DF8162303604FF0FF3008BD50
:1017E00008B508F035F816230360FEE770B50D461E
:1017F00014460E46731B9C4201DC204670BDAFF3BD
:10180000008006F8010BF5E74FF0FF3070474FF40A
:1018100000534B6000207047012070470020704744
:101820000B4A116810B5034609B90A4911601068DE
:1018300009490A4C0344091B8B4206D908F008F8F1
:101840000C2303604FF0FF3010BD1360FCE700BFB6
:10185000D4080020506E0020000002200004000088
:10186000034AD2F8883043F47003C2F888307047D6
:1018700000ED00E0DFF834D00D480E490E4A002399
:1018800002E0D458C4500433C4188C42F9D30B4A34
:101890000B4C002301E013600432A242FBD3FFF79C
:1018A000DFFF07F0DBFFFFF7BFFB70470000022000
:1018B00000000020CC02002040C90008CC0200201B
:1018C0004C6E0020FEE7000008B50B4B1A6842F48E
:1018D00000721A601A6842F480621A601A6842F450
:1018E00080721A60032000F067F90F20FFF7EEFE08
:1018F000FFF780FD002008BD003C0240034A044B76
:1019000011681B780B441360704700BFD808002093
:1019100004000020014B1868704700BFD808002061
:1019200038B50446FFF7F6FF631C1CBF054B1B7858
:10193000054618BFE418FFF7EDFF431BA342FAD397
:1019400038BD00BF0400002038B50446002800F070
:101950009B80056C25B9FFF76DFD656484F83C50EC
:10196000236CDB0600F18E80236C23F4885323F074
:10197000020343F002032364444B5A6822F44032CA
:101980005A605A6861680A435A60236821695A6834
:1019900022F480725A605A6842EA01225A605A68F8
:1019A000A16822F040725A605A680A435A609A68E5
:1019B000E16822F400629A609A680A439A603449A6
:1019C000A26A8A4252D0996821F070619960996840
:1019D0000A439A609A68E16A22F040529A609A68D3
:1019E0000A439A609A6822F002029A609A68217EFD
:1019F00042EA41029A6094F82020002A3ED05A68B8
:101A0000616A42F400625A605A6822F460425A6085
:101A10005A68013942EA41325A60DA6AE16922F4CD
:101A20007002DA62DA6A013942EA0152DA629A68CD
:101A300022F400729A609A6894F8301042EA4122C7
:101A40009A609A68616922F480629A609A680020BC
:101A500042EA81229A606064236C23F0030343F01E
:101A600001032364002384F83C3038BD9A6822F0D7
:101A700070629A609A6822F04052B2E75A6822F483
:101A80000062C9E70120EDE70120EEE700230140F5
:101A90000100000FF7B50023019390F83C30012BB3
:101AA00066D0012380F83C300D6803688E68092DEC
:101AB000ACB231D904EB4402DF681E3A4FF0070C98
:101AC0000CFA02FC27EA0C07DF60DF6806FA02F274
:101AD0003A43DA604968062901EB81022CD8596B38
:101AE000053A1F26964021EA06015963596B04FA0C
:101AF00002F20A435A632C4A934207D1122D39D17C
:101B0000D2F8043343F48003C2F80433002380F88E
:101B10003C30184603B0F0BD1F6905EB45024FF09D
:101B2000070C0CFA02FC27EA0C071F611F6906FA72
:101B300002F23A431A61CDE70C294FF01F010BD88E
:101B40001E6B233A914026EA01011963196B04FACE
:101B500002F20A431A63CEE7DE6A413A914026EA6E
:101B60000101D962D96A04FA02F20A43DA62C2E7D1
:101B70000220CFE7A5F11003012BC7D80B4A536809
:101B8000102D43F400035360C0D1094B094A1B6870
:101B9000B3FBF2F30A2253430193019B002BB5D010
:101BA000019B013BF8E700BF0020014000230140FA
:101BB0000000002040420F000749CA6822F4E0629A
:101BC0000302120403F4E063120C134343F0BF63F7
:101BD00043F40033CB60704700ED00E0164B30B5A6
:101BE000DC68C4F30224C4F10705231D042D28BFBB
:101BF0000425062B4FF0FF338CBF033C002403FA6F
:101C000005F521EA0501A34022EA0302A1400028CC
:101C100041EA0203ACBF00F16040084A4FEA0313F7
:101C2000B8BF00F00F00DBB2AABF00F5614013544B
:101C300080F8003330BD00BF00ED00E014ED00E09F
:101C4000002808DB4209012300F01F0003FA00F01E
:101C5000014B43F82200704700E100E0036810B533
:101C6000084C0246D9B210391820B1FBF0F0205CC4
:101C7000D06523F47F7020F003005F2988BF043013
:101C8000906510BDFCC3000870B50446FFF742FE26
:101C90000546002C73D0022384F8353022680023D7
:101CA00084F83430136823F00103136021680B6853
:101CB000D8072FD40B68334DA0691D40D4E9012308
:101CC0001343E26813432269134362691343E269D1
:101CD00003431343226A1343626A042A43EA050357
:101CE00002BFD4E90B5635432B430B604B69042AE2
:101CF00023F0070343EA020333D1A26AE56A1343E0
:101D00007DB390B9012A21D032F0020229D1EA0133
:101D100027D51EE0FFF7FEFD401B0528C6D920236E
:101D20006365032084F8350070BDB0F5005F14D101
:101D3000032A16D801A050F822F000BF531D000856
:101D40000F1D0008531D00084D1D0008B5F1C07F90
:101D500007D1402363650120E4E7022AF9D9032A69
:101D6000D5D04B612046FFF779FFE26D3F239340CA
:101D7000836000200123606584F83530D4E70120BA
:101D8000D2E700BF3F8010F070B590F83440866D08
:101D9000012C31D0012480F8344090F83540012CDA
:101DA0004FF000054FF0020424D180F8354004685C
:101DB0004565256825F48025256063608368402B90
:101DC0000EBFA260A160E260C26D08BFE1603F2368
:101DD0009340B360236843F016032360036C1BB188
:101DE000236843F008032360236843F00103236062
:101DF000002070BD80F834500220FAE770B5044628
:101E0000866DFFF787FD94F83530022B054606D026
:101E100080236365002384F83430012070BD23687B
:101E20001A6822F016021A605A6922F080025A617A
:101E3000226C0AB9A26C1AB11A6822F008021A6060
:101E40001A6822F001021A6023681B6813F001036C
:101E50000AD1E16D3F228A40B260012284F8352028
:101E600084F834301846D9E7FFF754FD401B0528A5
:101E7000EAD9202363650320002384F8350084F821
:101E80003430CBE790F83530022B03D08023436504
:101E9000012070470268052380F83530136823F06D
:101EA0000103136000207047F7B5002301935C4BDA
:101EB000856D1F68C36D2E6808229A403242044621
:101EC0000CD001680868400708D5086820F00400B5
:101ED0000860AA60626D42F00102626501229A40C8
:101EE000324208D021684969090641BFAA60626D83
:101EF00042F00202626504229A40324208D0216810
:101F00000968880741BFAA60626D42F004026265F9
:101F100010229A40324210D02368196809070CD564
:101F2000AA601A68500337D51B68190301D4236CC3
:101F300000E0A36C0BB120469847E16D20228A4057
:101F400032423AD023681868C60636D5AA6094F89B
:101F50003520052A1A6827D122F016021A605A691C
:101F600022F080025A61226C0AB9A26C1AB11A6876
:101F700022F008021A603F238B40AB60012384F8F3
:101F80003530002384F83430236D002B45D02046B3
:101F900003B0BDE8F04018471A68D2055EBF1A6862
:101FA00022F008021A60C2E7500327D51B68190304
:101FB00031D4636C0BB120469847636D6BB3636D8E
:101FC000DA0719D522684FF41653B7FBF3F7052348
:101FD00084F83530136823F001031360019B01334B
:101FE000BB42019302D81368DB07F7D4012384F8BE
:101FF0003530002384F83430E36CC6E71A6812F4F5
:10200000807208D1196821F010011960012384F849
:10201000353084F83420E36BCCE703B0F0BD00BF6B
:10202000000000202DE9F74FDFF8A891674A002350
:102030000D6801249C4004EA050CAC4340F0B180DB
:102040004D6805F003044FEA43080326671E06FAAD
:1020500008F6012F6FEA060634D8876807EA060EED
:10206000CF6807FA08F747EA0E078760476827EA4C
:102070000C0EC5F300179F4047EA0E074760C7687C
:1020800007EA060E8F6807FA08F747EA0E07022CE0
:10209000C76019D14FEAD30A00EB8A0A03F0070B95
:1020A000DAF820704FEA8B0B4FF00F0E0EFA0BFE92
:1020B00027EA0E0E0F6907FA0BF747EA0E07CAF870
:1020C000207001E0032CDAD1076804FA08F43E40DE
:1020D000264315F4403F066063D04FF0000ACDF868
:1020E00004A0D9F844603A4C46F48046C9F84460EC
:1020F000D9F8446006F480460196019E23F0030659
:1021000006F1804606F59C3603F0030ED6F80880EB
:102110004FEA8E0E0F2707FA0EF7A04228EA0707AC
:1021200046D004F58064A04244D004F58064A04207
:1021300042D004F58064A04240D004F58064A042FF
:102140003ED004F58064A0423CD004F58064A042F7
:102150003AD004F58064A0420CBF0724082404FA96
:102160000EF43C43B46094686FEA0C06EF0254BF6F
:1021700034404CEA04049460D468AF0254BF344045
:102180004CEA0404D4605468AF0354BF34404CEAB2
:10219000040454601468ED0354BF34404CEA040452
:1021A00014600133102B7FF443AF03B0BDE8F08F10
:1021B0005446D4E70124D2E70224D0E70324CEE733
:1021C0000424CCE70524CAE70624C8E7003C014004
:1021D00000000240003802400AB1816170470904E2
:1021E000FBE7436901EA030221EA030141EA0241F4
:1021F00081617047F0B504468BB060B390F8BD3490
:10220000056803F0FF021BB980F8BC2406F0A6FFA6
:10221000032384F8BD34EB6B254613F4807355F823
:10222000100B08BF236102F0DBF90FCD6E460FC61D
:102230000FCD0FC695E8030086E803002546271D4D
:1022400097E80E0055F8100B02F014F9064620B17D
:10225000022384F8BD3401254EE00146206802F0D7
:10226000C5F93046D4F804C024264FF0010E0146CB
:10227000C2B2944500F101001CD80023242619465F
:10228000D8B2844503F1010322D80FCD6E460FC6A4
:102290000FCD0FC695E8030086E8030097E80E000F
:1022A000206802F025FA01230546F0B1022284F8E5
:1022B000BD24D0E706FB0243C3E9121183F83DE0D9
:1022C00083F83C20A3F8442083F840105965CFE7F9
:1022D00006FB0042C2E9A21182F87D1282F87C025C
:1022E00082F88012C2F89412CAE784F83800206895
:1022F00084F8BD3402F0A4FD28460BB0F0BD10B543
:102300000446006894F8BC34012B15D0012384F8EE
:10231000BC34A36A012B06D1A369012B1EBF836BBA
:1023200043F48033836302F055F9206802F07AFDAC
:10233000002084F8BC0410BD0220FCE710B590F822
:10234000BC24012A04460BD0012280F8BC2480F86A
:102350003810006802F056FD002084F8BC0410BD5F
:102360000220FCE770B501F00F0606EBC60411F081
:10237000800F05464FEA84044FF024001FD000FB75
:10238000065004F13C010124294480F83D40CA6014
:102390004A780E700B7102B10E81022B04BF00232C
:1023A0004B7195F8BC34012B12D00123286885F8B5
:1023B000BC3402F060FA002085F8BC0470BD00FB5C
:1023C000065004F51F710024294480F87D42DEE7A1
:1023D0000220F3E710B5044601F00F0000EBC00344
:1023E00011F0800F4FEA83034FF0240216D002FB56
:1023F000004203F13C010123214482F83D30087082
:1024000094F8BC34012B12D00123206884F8BC342A
:1024100002F070FA002084F8BC0410BD02FB0042F8
:1024200003F51F710023214482F87D32E7E7022083
:10243000F3E738B501F00F05242404FB050104FB84
:10244000050401F51F71C4F894320023C4F88C22EE
:10245000C4F89C3284F87D3284F87C5203690068A9
:10246000012B08BFC4F89022DAB21DB902F098FA25
:10247000002038BD02F066FBFAE701F00F012423CB
:1024800003FB0100D0F89C02704738B501F00F053E
:10249000242404FB050104FB05043C31636500238F
:1024A000E3650123E26484F83D3084F83C5003691D
:1024B0000068012B08BF2265DAB21DB902F070FA7C
:1024C000002038BD02F03EFBFAE738B5436801F062
:1024D0000F059D4204462CD811F0800F4FF02400C8
:1024E0001ED000FB054200FB054101233C3182F870
:1024F0003D3001238B700D7094F8BC249A421AD0A1
:10250000206884F8BC3402F029FC2DB9217C2068B5
:1025100004F2C44202F0E6FC002084F8BC0438BD9A
:1025200000FB01431A4603F51F71002382F87D3238
:10253000DFE70120F3E70220F1E738B5436801F057
:102540000F029A4204462AD802EBC20311F0800F10
:102550004FEA83034FF0240018D000FB024003F140
:102560003C010123214480F83D3000258D700A7024
:1025700094F8BC34012B14D00123206884F8BC34B7
:1025800002F017FC84F8BC54284638BD00FB02401A
:1025900003F51F710023214480F87D32E5E7012017
:1025A000F3E70220F1E701F00F0303EBC3030A0690
:1025B0004FEA83034CBF03F13C0103F51F71014453
:1025C000006802F069BA00002DE9F04F066889B092
:1025D0000446304602F071FC0390002840F056811A
:1025E000206802F03BFC002800F05081D6F8083843
:1025F0002068C3F30D23C4F8FC3402F02FFC8107DC
:1026000048BF2268206842BF536903F00203536148
:1026100002F024FCC20606F500652CD522689369F9
:1026200023F010039361D6F82080C8F34343022BB4
:1026300008F00F0740F02D8147F6F07318EA030FFA
:1026400014D0242303FB0747C8F30A19D7F88C12C8
:102650004A46304602F062FBD7F88C324B44C7F84A
:102660008C32D7F89C324B44C7F89C32226893696D
:1026700043F010039361206802F0F0FB030300F1C4
:102680001A81206802F0EAFB47030CD5206802F0AB
:10269000F1FB2746049006F5106A4FF00009049BF1
:1026A000002B40F0D081206802F0D8FB002813DA1C
:1026B0006B6823F001036B6094F8F434012B40F055
:1026C0006B82002184F8F414204600F0E7FA2268B7
:1026D000536903F000435361206802F0BFFB01051A
:1026E0000AD5AB68DA0702D5204606F0A7FD2268B6
:1026F000536903F400635361206802F0AFFBC30425
:1027000033D56B68206823F001036B60102101F062
:102710009DFF06F510634FF67F3162680398824291
:1027200000F24282EB6943F00113EB61236B002B53
:1027300000F05282D5F8843043F00B03C5F88430A2
:102740006B6C43F00B036B64D6F80038217C206877
:1027500023F4FE63C6F8003804F2C44202F0C2FB60
:102760002268536903F480535361206802F076FBBA
:10277000870416D5206802F0A4FB206802F070F8E8
:10278000E060276800F006FD227B0146384601F034
:10279000B1FE204606F03FFD2268536903F4005362
:1027A0005361206802F05AFB000707D5204606F067
:1027B0002EFD2268536903F008035361206802F07C
:1027C0004DFB010600F11382206802F047FBC202B4
:1027D0000CD5A04606F5126901276368BB4200F2DA
:1027E0001F822268536903F480135361206802F04A
:1027F00035FB83022DD5D4F804E0234606F532607C
:1028000001218E4520D993F8A4C20268BCF1010FC2
:1028100040F01C82002A80F21982D4F8FC7402F481
:10282000803207F00107BA4240F0108283F8A3C259
:10283000B26942F08002B2617269170600F1068245
:102840006B6843F400736B602268536903F40013F0
:102850005361206802F002FB410007D5204606F0D4
:1028600011FD2268536903F080435361206802F030
:10287000F5FA42070AD523685D686B0702D5204642
:1028800006F004FD226853682B43536009B0BDE88D
:10289000F08F062B7FF4EAAE082204F2C4413046E2
:1028A00002F03CFA242303FB0747C8F30A18D7F8C1
:1028B0009C324344D8E6206802F0D4FA06F530682A
:1028C0000490A2460027049B002B3FF4DAAE049B41
:1028D000D80776D55FFA87FB2068594602F0D2FA0E
:1028E00010F0010F81461CD0206821690123C8F82F
:1028F000083000F5306303EB47130129D0F840C0DE
:102900009A6840F08B80110707D5A5498C4508D9F6
:10291000100406D54FF4004202E091065AD5202259
:102920009A6019F0080F21D00823C8F808302368EE
:102930009B481A6C03F5306303EB47138242996896
:1029400004D9090444BF4FF4004199602046059220
:1029500006F046FC924B059A9A4207D92169012953
:1029600004D1206804F2C44202F0BCFA19F0100F3E
:102970001CBF1023C8F8083019F0020F14D0736977
:102980001B0642BF6B6843F480636B609AF87F322A
:10299000012B06D100238AF87F325946204606F0E3
:1029A00069FC0223C8F8083019F0200F1CBF20234F
:1029B000C8F8083019F4005F1CBF4FF40053C8F882
:1029C0000830049B5B080137049308F120080AF1E2
:1029D000240A78E712F0280FA3D171498C4501D958
:1029E000120497D41A69DAF89832C2F312029B1AC9
:1029F000CAF89C326FB9D4F894222AB904F2C442BE
:102A0000012102F06FFA04E0D4F88C221344C4F8D8
:102A10008C325946204606F0E9FB82E761498C4535
:102A200007D111043FF576AF9006F2D520229A60C7
:102A3000EFE7002FEDD1D4F89432002BE9D104F266
:102A4000C4423946DDE7049BD80740F19C805FFA19
:102A500089FB2068594602F01EFA10F0010F8046EB
:102A600020D001216B6B09F00F0201FA02F223EA78
:102A700002036B630B46CAF80810216999420DD115
:102A8000D7E912231344FB64B9F1000F06D1636D3B
:102A900023B9206804F2C44202F024FA59462046C1
:102AA00006F0ADFB18F0080F1CBF0823CAF8083069
:102AB00018F0100F1CBF1023CAF8083018F0400F90
:102AC0001CBF4023CAF8083018F0020F12D0494644
:102AD000304601F0BBFD97F83F30012B07D14FF096
:102AE000000387F83F305946204606F0C7FB022313
:102AF000CAF8083018F0800F45D0FA6D7B6D9A4205
:102B000041D89B1ABA6C21680591934228BF13469D
:102B100003339B08069301F5106303EB49130793F6
:102B2000079B06989969FA6D7B6D89B2814228D31B
:102B30009A420CD3059B09F00F01D3F834280120E9
:102B400000FA01F122EA0102C3F834281BE0A3EBEA
:102B50000208BB6C0598984528BF984608F1030306
:102B60009B080693237C0093F96C1FFA88F35A465E
:102B700001F0D4FFFB6C4344FB64FB6D4344FB65F5
:102B8000CEE79A42D6D2049B5B0809F1010904936F
:102B900024370AF1200A82E5204606F067FB96E515
:102BA0000A30544F0A31544F99601A6822F40012C7
:102BB0001A60C3F80812D3F8002222F40012C3F8F6
:102BC0000022D3F8002242F00062C3F80022039AE8
:102BD000013203922033A0E56B6943F4005343F0C4
:102BE0002B036B612B6943F00B032B61ACE5B369DD
:102BF00023F08003B361012704F27F284FF02409FA
:102C00006368BB427FF6E0AD09FB07F318F80330B9
:102C1000012B03D1F9B22046FFF7C5FC0137EFE7DE
:102C200098F86430D9F80020012B09D1002A07DA7E
:102C300067F07F0188F86330C9B22046FFF7B3FC24
:102C4000013708F1240809F12009C6E501312433D0
:102C50002030D6E5006870B51204446A19B92243E1
:102C60008262002070BD836A4D1E04EB1344002372
:102C70005E1CDBB29D4205D83F3100EB8100224350
:102C80004260EEE7403300EB83035B6804EB1344E0
:102C90003346EDE703680020596270477047000033
:102CA0002DE9F341044640B30368DD0710D42368DF
:102CB00098075ED423681A0700F1A08023685B0799
:102CC00000F1C080A069002840F0288100202BE09E
:102CD0008F4B9A6802F00C02042A07D09A6802F01F
:102CE0000C02082A0BD15A68510208D5884B1B6880
:102CF0009A03DCD56368002BD9D1012014E0626807
:102D0000B2F5803F13D11A6842F480321A60FEF7A0
:102D100001FE7F4E054633689B03C8D4FEF7FAFDDB
:102D2000401B6428F7D9032002B0BDE8F081784D3C
:102D3000B2F5A02F2B6807D143F480232B602B68BA
:102D400043F480332B60E2E723F480332B602B685D
:102D500023F480232B60002AD9D1FEF7DBFD064641
:102D60002B689F03A3D5FEF7D5FD801B6428F7D9F8
:102D7000D9E7674B9A6812F00C0F07D09A6802F0F7
:102D80000C02082A11D15B685E020ED4604A1368F7
:102D90009D0702D5E368012BAFD11368216923F0A9
:102DA000F80343EAC103136084E7E268594BB2B108
:102DB00001221A60FEF7AEFD554D06462B689807B6
:102DC00007D52B68226923F0F80343EAC2032B607E
:102DD00070E7FEF79FFD801B0228EFD9A3E71A607A
:102DE000FEF798FD4A4E0546336899077FF562AFB6
:102DF000FEF790FD401B0228F6D994E76269454B27
:102E000082B10122C3F8802EFEF784FD404E0546B4
:102E1000736F9F073FF552AFFEF77CFD401B022802
:102E2000F6D980E7C3F8802EFEF774FD384E0546CC
:102E3000736F98077FF542AFFEF76CFD401B0228C9
:102E4000F6D970E7324B1A6C12F0805228D10192F9
:102E50001A6C42F080521A641B6C03F08053019389
:102E6000019B01272C4D2B68D9051BD5A368284D44
:102E7000012B27D12B6F43F001032B67FEF74AFD8F
:102E8000234E054641F28838336F9B0739D5002F12
:102E90003FF418AF1E4A136C23F08053136411E7FC
:102EA0000027DFE72B6843F480732B60FEF732FDC9
:102EB00006462B68DA05D9D4FEF72CFD801B0228C4
:102EC000F7D930E7052B04D12B6F43F004032B67B0
:102ED000D0E72A6F22F001022A672A6F22F004024B
:102EE0002A67002BCAD1FEF715FD41F28838064645
:102EF0002B6F9807CBD5FEF70DFD801B4045F7D90A
:102F000011E7FEF707FD401B4045BDD90BE700BFA9
:102F1000003802400000474200700040364DAB6868
:102F200003F00C03082B3DD0344B002202281A6614
:102F30002BD1FEF7EFFC06462B6899011FD4D4E98C
:102F400007321343626A43EA8213E26A43EA026386
:102F5000A26A5208013A43EA02436B60274B264DAE
:102F600001221A66FEF7D6FC04462B689A013FF54B
:102F7000ADAEFEF7CFFC001B0228F6D9D3E6FEF774
:102F8000C9FC801B0228D7D9CDE6FEF7C3FC044656
:102F90002B689B017FF59AAEFEF7BCFC001B022854
:102FA000F6D9C0E601283FF4BFAE6B68E26903F4CE
:102FB000800191427FF4A1AE216A03F03F028A4270
:102FC0007FF49BAE616A47F6C0721A40B2EB811F74
:102FD0007FF493AEA26A520803F44031013AB1EB98
:102FE000024F7FF48AAEE26A03F07063B3EB026FC4
:102FF0003FF46CAE81E600BF00380240000047425B
:10300000134908B58B6803F00C03042B1CD0082B64
:103010001CD14A684B68496813F4800314BF0D48FB
:103020000D48C1F3881118BF002302F03F02A1FB35
:103030000001FDF7B9FD064B5B68C3F301430133A3
:103040005B00B0FBF3F008BD0248FCE70248FAE77A
:103050000038024000127A000024F4002DE9F0410B
:103060000D46044610B90120BDE8F081444B1A68B2
:1030700002F007028A4228D3226897072DD4D0078E
:1030800041D43F4B1A6802F00702AA4266D8226870
:1030900051076CD4130707D53A4A2169936823F482
:1030A000604343EAC1039360FFF7AAFF354B364AFA
:1030B0009B68C3F30313D35CD840344B1860344B84
:1030C0001868FEF703FB0020CEE7CAB21A701B682F
:1030D00003F007038B42C6D1CEE72A4B12F0040F50
:1030E0001EBF996841F4E0519960160742BF996884
:1030F00041F4604199602349A0688B6823F0F00394
:1031000003438B60BBE762681E4B012A1CD11B681E
:1031100013F4003FA7D01B4EB36823F003031343FF
:10312000B360FEF7F7FB41F288380746B368626880
:1031300003F00C03B3EB820FA3D0FEF7EBFBC01B35
:103140004045F3D903208FE7911E01291B6802D85F
:1031500013F0007FDEE713F0020FDBE7EAB21A702C
:103160001B6803F00703AB427FF47DAF8FE705498F
:10317000E0688B6823F4E05303438B608AE700BF69
:10318000003C024000380240E4C300080000002078
:1031900008000020014B1868704700BF00000020A5
:1031A000044B054A9B68C3F38223D35C034A10682F
:1031B000D840704700380240F4C3000800000020E7
:1031C000044B054A9B68C3F34233D35C034A10683F
:1031D000D840704700380240F4C3000800000020C7
:1031E0000F2303600B4B9A6802F0030242609A6857
:1031F00002F0F00282609A6802F4E052C2609B68BA
:10320000DB0803F4E0530361034B1B6803F007037F
:103210000B60704700380240003C02402DE9F3414A
:103220001D46174688460646FEF774FB3D442C1A99
:10323000FEF770FB224B1B68C3F3CB330546634399
:1032400032680193936838EA030301D000202DE02F
:103250007B1CF7D0FEF75EFB401BA04229D33368EE
:103260005A6822F0E0025A607268B2F5827F0AD191
:10327000B268B2F5004F02D0B2F5806F03D11A6880
:1032800022F040021A60B26AB2F5005F07D11A68F4
:1032900022F400521A601A6842F400521A600123A4
:1032A00086F85130002386F85030032002B0BDE884
:1032B000F081019B002B019B08BF0024013BBFE76D
:1032C0000000002038B513464268B2F5827F0446FC
:1032D0001FD18268B2F5004F02D0B2F5806F07D1DE
:1032E00025682868B2F5806F20F04000286007D07C
:1032F0000A4680212046FFF791FF20B9002038BD03
:103300000A460121F6E7636D43F02003636503205D
:10331000F5E70A460121EEE737B51346124A15686C
:10332000124AB5FBF2F54FF47A72554342680195A3
:10333000B2F5827F04460BD10A468021FFF76EFF6B
:1033400078B1636D43F020036365032003B030BDA3
:10335000019B33B1019B013B019323689B681B06D2
:10336000F6D40020F2E700BF0000002000366E0116
:1033700010B50446002855D0436A002B4ED1426850
:10338000B2F5827F00D0C3610023A36294F851306C
:1033900003F0FF0223B984F850202046FEF79CF882
:1033A0002168A068A269022384F851300B6823F0D9
:1033B00040030B60636800F4044003F4827303432A
:1033C000E06800F400600343206900F0020003435A
:1033D000606900F00100034302F400700343E069F8
:1033E00000F038000343206A00F080000343A06A25
:1033F00000F4005003430B60636A120C03F01003E7
:1034000002F004021A434A60CB6923F40063CB61E3
:1034100000200123606584F8513010BD0023C0E90D
:103420000433B1E70120F8E72DE9F3411E4690F897
:103430005030012B04460D46174600F0A1800123B1
:1034400080F85030FEF766FA94F85130012B804630
:10345000D8B240F09380002D5ED0002F5CD0A268DF
:103460002563032384F85130B2F5004F4FF0000379
:103470006365C4E91033E786A363A387E387A78660
:10348000236807D11A6822F040021A601A6842F4D1
:1034900080421A601A68E16852065EBF1A6842F0FC
:1034A00040021A60B1F5006F626841D10AB1012F84
:1034B00007D135F8022BDA602563E38E013B9BB21E
:1034C000E386E38E9BB2A3B9424631462046FFF71E
:1034D00023FF00284FD1A36833B901932368DA682A
:1034E00001929B680193019B606D003818BF012019
:1034F00012E022689368980705D5236B33F8021B06
:10350000D1602363D9E7FEF705FAA0EB0800B042CB
:103510000BD3711CD5D00320012384F85130002334
:1035200084F8503002B0BDE8F081002EC9D1F2E736
:103530000AB1012F08D12A781A73236B0133236350
:10354000E38E013B9BB2E386E38E9BB2002BBBD0A4
:1035500023689A68920702D5226B1278ECE7FEF78F
:10356000D9F9A0EB0800B04202D3731CECD0D2E72B
:10357000002EE9D1CFE720236365ACE70220CBE73B
:103580000220CFE72DE9F7431E4690F850300A9FFE
:10359000012B04460D46914600F0E680012380F899
:1035A0005030FEF7B7F994F851306268012B80462D
:1035B000D9B20AD0B2F5827F40F0D480A368002B44
:1035C00040F0D080042940F0CD80002D40D0B9F1EA
:1035D000000F3DD0002E3BD094F85130C4F8389005
:1035E000042B1CBF052384F8513000236365C4E914
:1035F00010332368E687E6861968A687490658BF10
:103600001968256358BF41F04001A68658BF19606C
:10361000E168B1F5006F52D10AB1012E07D135F83A
:10362000022BDA60E38E2563013B9BB2E386012522
:10363000E38E9BB273B9E38F9BB25BB942463946C6
:103640002046FFF769FE002800F081802023636593
:1036500001202BE021688B689E070DD5E38E9BB27D
:1036600053B14DB1236B33F8022BCA602363E38E51
:10367000013B9BB2E38600258A6812F001020CD060
:10368000E38F9BB24BB1A36BC96823F8021BA36302
:10369000E38F013B9BB2E3871546FEF73BF9A0EBB6
:1036A0000800B842C4D3781CC2D00320012384F898
:1036B0005130002384F8503003B0BDE8F0830AB1E4
:1036C000012E08D12A781A73236B01332363E38E0A
:1036D000013B9BB2E38601252DE0226893689907A0
:1036E0000ED5E38E9BB25BB155B1236B1B78137380
:1036F000236B01332363E38E013B9BB2E3860025FA
:103700002268916811F001010DD0E38F9BB253B193
:10371000A36BD2681A70A36B0133A363E38F013BE1
:103720009BB2E3870D46FEF7F5F8A0EB0800B84220
:103730000AD37B1CB9D1E38E9BB2002BCDD1E38F92
:103740009BB2002BC9D179E7002FF4D1ADE7A36874
:10375000002BABD123680190DA6801929B6801933A
:10376000019BA3E70220A1E70220A5E72DE9F7438B
:103770001D464368B3F5827F0446894617460CD13F
:10378000836853B9042380F85130134600950A46E4
:10379000FFF7F8FE03B0BDE8F08394F85030012B3A
:1037A00000F08680012384F85030FEF7B3F894F8D7
:1037B0005130012B8046D8B278D1B9F1000F5CD0DE
:1037C000002F5AD0A268C4F8389000260423B2F51E
:1037D000004F84F85130C4E9106666652368E787B6
:1037E000A7872663A686E68607D11A6822F04002DC
:1037F0001A601A6822F480421A601A6856065EBF80
:103800001A6842F040021A60E368F3B1E38F9BB29A
:10381000FBB123689A68D20739D5DA68A36B23F81D
:10382000022BA363E38F013B9BB2E387EEE72368A0
:103830009A68D00718D5A26B1B7B1370A36B01335A
:10384000A363E38F013B9BB2E387E38F9BB2002B23
:10385000EDD1424629462046FFF734FD18BB606D86
:10386000003818BF012008E0FEF754F8A0EB08006C
:10387000A84209D3691CE8D00320012384F8513001
:10388000002384F8503085E7002DDED1F4E7FEF701
:1038900041F8A0EB0800A84202D36B1CB6D0EBE7BE
:1038A000002DB3D1E8E720236365D8E70220E4E7E1
:1038B00002206FE790F83D30012B30D1022380F8D1
:1038C0003D300368DA6842F00102DA60154A93423B
:1038D0001AD0B3F1804F17D0A2F57C42934213D097
:1038E00002F5806293420FD002F5806293420BD0C2
:1038F00002F57842934207D002F57052934203D00A
:10390000A2F59432934204D19A6802F00702062A83
:1039100003D01A6842F001021A60002070470120AB
:10392000704700BF00000140704770477047704704
:1039300003681A69910710B504460ED5DA68920734
:103940000BD56FF002021A61012202779B699B0777
:1039500077D0FFF7EAFF0023237723681A6950071F
:1039600010D5DA6851070DD56FF004021A610222F2
:1039700022779B6913F4407F204668D0FFF7D5FF7C
:103980000023237723681A6912070FD5DA68100716
:103990000CD56FF008021A6104222277DB699907BF
:1039A00020465AD0FFF7C1FF0023237723681A6906
:1039B000D20610D5DA68D0060DD56FF010021A6164
:1039C00008222277DB6913F4407F20464BD0FFF7B3
:1039D000ACFF0023237723681A69D10708D5DA687A
:1039E000D20705D56FF001021A612046FDF7B8FA3B
:1039F00023681A69100608D5DA68110605D56FF034
:103A000080021A61204600F0ACF923681A69520658
:103A100008D5DA68500605D56FF040021A612046D5
:103A2000FFF785FF23681A69910622D5DA689206A6
:103A30001FD56FF0200220461A61BDE8104000F04B
:103A40008FB9FFF771FF2046FFF770FF83E7FFF79D
:103A50006BFF2046FFF76AFF92E7FFF765FF2046FE
:103A6000FFF764FFA0E7FFF75FFF2046FFF75EFF69
:103A7000AFE710BD304A0368904212D0B0F1804FDA
:103A80000FD0A2F57C4290420BD002F580629042AA
:103A900007D002F58062904203D002F5784290424E
:103AA00019D14A6823F070031343234A904229D066
:103AB000B0F1804F26D0A2F57C42904222D002F590
:103AC000806290421ED002F5806290421AD002F5C8
:103AD0007842904216D0194A904213D002F5806283
:103AE00090420FD002F5806290420BD0A2F598323E
:103AF000904207D002F58062904203D002F58062C6
:103B0000904203D1CA6823F4407313434A6923F0F7
:103B10008003134303608B68C3620B688362064BA8
:103B2000984203D003F58063984201D10B69036387
:103B300001234361704700BF000001400040014085
:103B400010B5044630B390F83D3003F0FF021BB9C6
:103B500080F83C20FDF730FD0223206884F83D30DA
:103B6000211DFFF787FF012384F84630002084F8E9
:103B70003E3084F83F3084F8403084F8413084F897
:103B8000423084F8433084F8443084F8453084F877
:103B90003D3010BD0120FCE710B58468114324F4CA
:103BA0007F4441EA03232343836010BD70B590F83E
:103BB0003C30012B04464FF0020300F091800122BB
:103BC00080F83D3080F83C200068836823F47F4310
:103BD00023F0770383600B68602B52D033D8402BDF
:103BE00067D016D8202B0DD00AD833F0100109D099
:103BF000012384F83D30002384F83C30104670BD2A
:103C0000302BF5D1826822F07002134343F0070392
:103C100017E0502BECD14A68CE68016A056A25F09E
:103C200001050562836921F00A0123F0F00343EAEC
:103C300006130A4383610262836823F0700343F032
:103C40005703836011E0B3F5805F0ED0B3F5005FDA
:103C50000DD0702BCCD1CB68D1E90121FFF79CFFAF
:103C60002268936843F0770393600022C0E7CB6833
:103C7000D1E90121FFF790FF2268936843F4804364
:103C8000F2E74D68CE68016A21F010010162826995
:103C9000036A22F4704223F0A00343EA051342EAC8
:103CA000063282610362836823F0700343F0670386
:103CB000C7E74A68CE68016A056A25F00105056212
:103CC000836921F00A0123F0F00343EA06130A4353
:103CD00083610262836823F0700343F04703B0E717
:103CE0001A468BE730B590F83C30012B4FF00203B9
:103CF00032D080F83D3003680D685C689A6824F023
:103D000070042C435C60154CA3421AD0B3F1804F71
:103D100017D0A4F57C44A34213D004F58064A342D9
:103D20000FD004F58064A3420BD004F57844A3427D
:103D300007D004F57054A34203D0A4F59434A342F1
:103D400004D1496822F080020A439A60012380F876
:103D50003D30002380F83C30184630BD0000014063
:103D600070477047026802F10C0353E8003F23F4E8
:103D700090730C3242E8003102680029F2D102F15E
:103D8000140353E8003F23F0010302F1140C4CE844
:103D900000310029F3D1036B012B0BD102F10C038D
:103DA00053E8003F23F0100302F10C0C4CE8003103
:103DB0000029F3D1202380F83E30002303637047AD
:103DC0000268C168136923F440530B4370B5136153
:103DD000054683680069D168034368690343E8695D
:103DE00021F4164121F00C0103430B43D3605369C6
:103DF000A96923F440730B4353611F4B9A4203D0CC
:103E000003F580639A4223D1FFF7DAF9EB691921B0
:103E1000B3F5004FD5E90046A0FB01011BD1B21953
:103E20004FF000035B41FCF7BFFE6421B0FBF1F5EE
:103E300001FB1503DB003233B3FBF1F303F00702A0
:103E40005B0002EB051203F4F8731344A36070BD2A
:103E5000FFF7A6F9DAE7B200B30FFCF7A5FE64227C
:103E6000B0FBF2F102FB11031B013233B3FBF2F39F
:103E700003EB0113EAE700BF0010014010B5044650
:103E800040B390F83D3003F0FF021BB980F83C20AE
:103E9000FDF7AAFB2268242384F83D30D36823F47D
:103EA0000053D3602046FFF78BFF23681A6922F482
:103EB00090421A615A6922F02A025A61DA6842F481
:103EC0000052DA6000202023206484F83D3084F81A
:103ED0003E3010BD0120FCE790F83D30202B18D17A
:103EE000A9B1A2B190F83C30012B12D0C28401627A
:103EF0008284016800232122036480F83C3080F82A
:103F00003D20CA6842F08002CA601846704701200E
:103F1000704702207047000038B50446134694F8F5
:103F20003D20202A32D179B373B394F83C20012A82
:103F30002CD0012284F83C20606BE38400252122F0
:103F4000256484F83D20124AA3842162C263114A89
:103F50000264114AC0E9132522680432FDF714FFF8
:103F600023686FF040021A60226884F83C5002F126
:103F7000140353E8003F43F0800302F1140141E8C9
:103F800000300028F3D138BD0120FCE70220FAE719
:103F900029400008774000088340000810B50268F7
:103FA000536990F83D102129044620D119061ED5E9
:103FB00002F1140353E8003F23F0800302F11400E0
:103FC00040E800310029F3D1606B08B1FDF716FF1E
:103FD000226802F10C0353E8003F23F0C0030C32C7
:103FE00042E800310029F3D1202384F83D302268D3
:103FF000536994F83E10222914D15B0612D502F1C0
:10400000140353E8003F23F0400302F1140040E89A
:1040100000310029F3D1A06B08B1FDF7EFFE204677
:10402000FFF7A0FE002010BD08B50346806B1B689B
:104030001B6813F480731AD1C384026802F114035D
:1040400053E8003F23F08003143242E80031026855
:104050000029F2D102F10C0353E8003F43F0400382
:1040600002F10C0040E800310029F3D108BD01F055
:1040700031FEFBE7704708B5806BFFF7FBFF08BD1B
:10408000704708B5806B03685A6990F83D10212984
:1040900012D1120610D50022C28403F10C0252E89C
:1040A000002F22F0C00203F10C0C4CE80021002983
:1040B000F3D1202280F83D205B6990F83E20222A2F
:1040C00005D15B0603D50023C385FFF74BFE036CC8
:1040D00043F01003036401F06DFE08BD704700005B
:1040E00010B50446226802F10C0353E8003F23F4A4
:1040F00090730C3242E8003123680029F2D103F1B9
:10410000140252E8002F22F0010203F1140040E8EB
:1041100000210029F3D1226B012A0BD103F10C02FB
:1041200052E8002F22F0100203F10C0040E80021B9
:104130000029F3D15A6912F0400220D003F1140291
:1041400052E8002F22F0400203F1140040E8002161
:104150000029F3D1A06B48B10C4B0365FDF792FE2B
:1041600010B1A06B036D9847002010BD2023E0859F
:1041700084F83E3020632046FFF7B0FFF4E72023A9
:10418000E28584F83E302263F5E700BF91410008E4
:1041900008B5806B00232022C38580F83E2003638E
:1041A000FFF79CFF08BD806B08B5036B012B04D1A2
:1041B000818D490801F02CFE08BDFFF761FFFBE788
:1041C00008B50346806B1B681B6813F4807337D1F6
:1041D000C385026802F10C0353E8003F23F48073A7
:1041E0000C3242E8003103680029F2D103F11402D5
:1041F00052E8002F22F0010203F1140C4CE80021D8
:104200000029F3D103F1140252E8002F22F04002FA
:1042100003F1140C4CE800210029F3D1202280F88E
:104220003E20026B012A0BD103F10C0252E8002F51
:1042300022F0100203F10C0C4CE800210029F3D10C
:10424000036B012B03D1818D01F0E2FD08BD01F06C
:104250006DFDFBE790F83C30012B11D00268242360
:1042600080F83D30D36823F00C0343F00803D3609B
:10427000202380F83D30002380F83C3018467047FA
:104280000220704790F83C30012B11D002682423A3
:1042900080F83D30D36823F00C0343F00403D3606F
:1042A000202380F83D30002380F83C3018467047CA
:1042B0000220704790F83D2090F83E001043704770
:1042C000C285002382852222036480F83E20026991
:1042D00080F83C30816203681AB1DA6842F4807277
:1042E000DA605A6942F001025A61DA6842F020024B
:1042F000DA600020704770B490F83E60202E10D134
:1043000061B15AB190F83C40012C0AD0012480F8E8
:104310003C400024046370BCFFF7D2BF012070BC96
:1043200070470220FBE7000073B5222300250446F6
:104330000564816280F83E308285806B1E4BC363CA
:104340001E4B266803641E4BC0E9133513460A460C
:10435000311DFDF719FD236801951A6801925A680D
:104360000192019A226984F83C505AB103F10C027F
:1043700052E8002F42F4807203F10C0040E8002163
:104380000029F3D103F1140252E8002F42F0010298
:1043900003F1140040E800210029F3D103F11402D5
:1043A00052E8002F42F0400203F1140141E80020DE
:1043B0000028F3D102B070BDC1410008A741000838
:1043C0008340000873B590F83E60202E044628D143
:1043D00011B9012002B070BD002AFAD090F83C302B
:1043E000012B1ED0012380F83C300363FFF79CFFB4
:1043F0000028EFD1236B012BEBD1226801901368C9
:10440000019353680193019B02F10C0353E8003FB1
:1044100043F0100302F10C0444E800310029F3D109
:10442000D8E70220D6E7000082B00023104A0193AB
:10443000019B01330193019B934216D80369002B22
:10444000F6DA002301930369094A43F0010303618B
:10445000019B01330193019B934206D8036913F03A
:104460000103F5D1184602B070470320FBE700BFF7
:10447000400D030084B038B505AD85E80E000A9BF9
:10448000012B044625D1836B23F480338363C368F7
:1044900023F4840323F04003C360C36823F4401370
:1044A000C360119B012B02BFC36843F48013C36038
:1044B000FFF7BAFF089B012B07D1A36843F006035F
:1044C000A360A36843F02003A360BDE8384004B0B4
:1044D0007047C36843F04003C360FFF7A5FF0E9B1E
:1044E00023B9A36B43F48033A363E3E7A36B23F403
:1044F0008033F9E7022A4AD1274B284A0B449342DA
:1045000039D9274B274A0B44934236D9264AA1F57D
:104510007403A3F51053934231D9244AA1F1837354
:10452000A3F5E74393422CD3214B224A0B449342F9
:1045300029D9214B214A0B44934226D3204B214AAF
:104540000B44934223D3204AA1F1B773A3F55853E8
:1045500093421ED31D4B1E4A0B44934234BF072384
:104560000623C26822F47052C260C26842EA832302
:10457000C360002070470F23F3E70E23F1E70D23FC
:10458000EFE70C23EDE70B23EBE70A23E9E7092329
:10459000E7E70823E5E700BF405327FFFF340C009F
:1045A000401E1BFF3F420F007F4F120020D613001A
:1045B00060B6E5FE5FE3160000D3CEFE40771B0039
:1045C000C05BB3FEC091210020753800E05459FE55
:1045D000E09C4100836843F0010383600020704742
:1045E000836823F0010383600020704738B5C368F7
:1045F000012923F0C0430546C36010D1C36843F0CE
:104600000053C36000240120FDF78AF96B69D907C4
:1046100004F1010415D4322CF5D1012038BD002954
:10462000FBD1C36843F08043C3600C460120FDF713
:1046300077F96B69DA0704F1010402D5322CF5D160
:10464000EBE7A4F1320358425841E7E782B0002378
:10465000104A0193019B01330193019B934216D8A9
:104660000369002BF6DA8901002341F02001094A91
:1046700001930161019B01330193019B934206D891
:10468000036913F02003F5D1184602B070470320E8
:10469000FBE700BF400D030082B000230F4A0193E7
:1046A000019B01330193019B934214D80369002BB2
:1046B000F6DA00230193094A10230361019B0133B9
:1046C0000193019B934206D8036913F01003F5D1BF
:1046D000184602B070470320FBE700BF400D0300FF
:1046E000D0F800381943C0F80018002070470000C7
:1046F00084B02DE9F843044609A880E80E00139D14
:1047000000230E46194603F1400204EB82020133F6
:104710000F2B5160F7D104F50067002D6CD17B6839
:1047200043F002037B60A36B43F40013A363A36B0A
:1047300023F40023A363A36B23F48023A363002348
:10474000C4F8003ED4F80038C4F800380E9B012BA2
:104750005CD10B99002957D12046FFF7C1FF1021EA
:104760002046FFF773FF01462046FFF795FF0843F9
:10477000C0B2002300383B6118BF01207B6104F503
:104780001062FB6119464FF0904C4FF0006E4FF6EF
:104790007F38B3423CD1002204F5306311464FF01C
:1047A000904C4FF0006E4FF67F38B24243D13B69D8
:1047B00023F480733B610023A3616FF08043636146
:1047C0000C9B1BB9A36943F01003A361A269234B9F
:1047D0001343A3610F9B1BB1A36943F00803A361BB
:1047E000012D01BFA36943F0804343F00403A3619B
:1047F000BDE8F84304B07047A36B23F40013A36330
:10480000A36B43F4002399E71946A5E70321A3E727
:10481000D2F80090B9F1000F0BDA3BB9C2F800E012
:1048200011610133C2F808802032B2E7C2F800C03B
:10483000F6E71160F4E7D3F80090B9F1000F0BDA56
:104840003AB9C3F800E019610132C3F80880203397
:10485000ABE7C3F800C0F6E71960F4E700383C8026
:10486000D0F8083813F0060004D013F0020F14BF7C
:1048700002200F20704730B50D78012405F00F039A
:104880009C404B7800F50062012B00EB4510D3698A
:1048900018D11C43D461D0F800391A0410D4CA6866
:1048A000D0F80049C2F30A030A79234343EA82435A
:1048B00043EA855343F0805343F40043C0F8003982
:1048C000002030BD43EA0444D461D0F8003B1B040F
:1048D000F6D4CB68D0F8002BC3F30A0313430A794C
:1048E00043EA824343F0805343F40043C0F8003B63
:1048F000E6E7000010B50A784978012900EB421379
:1049000000F5006002F00F0222D1D3F8001900294F
:104910000BDAD3F8001941F00061C3F80019D3F89D
:10492000001941F08041C3F80019C46B012101FA5C
:1049300002F224EA0204C463C16921EA0202C261EC
:10494000D3F80019144A0A40C3F80029002010BD0A
:10495000D3F8001B00290BDAD3F8001B41F00061EB
:10496000C3F8001BD3F8001B41F08041C3F8001BC3
:10497000C46B4FF4803101FA02F224EA0204C463EA
:10498000C16921EA0202C261D3F8001B034A0A404E
:10499000C3F8002BDAE700BF007833EC0078F3EFC0
:1049A0004B78DFF8F0C0F0B50E788D69384F012BE9
:1049B00000EB461446D104F51063BDB91D692F40C4
:1049C0001F611D6945F400251D611D6905EA0C057F
:1049D000012A1D6123D14A6902B15A61D4F8003914
:1049E00043F00443C4F800390020F0BDD3F810E0D0
:1049F0000EEA0C0CC3F810C0D3F810C00CEA07077D
:104A00001F61CF68AF421D6938BF8F6145F4002533
:104A10001D618D691F69C5F312053D43D8E7D4F8C0
:104A2000003943F00443C4F800398B69002BDBD014
:104A3000D0F8342806F00F060123B3401343C0F822
:104A40003438D1E7D4F8100B00EA0C00C4F8100B8E
:104A5000D4F8100B384004F530631861C86805B10C
:104A600088611D69C86145F400251D611D69C0F399
:104A700012002843012A186102D10A6902B15A6161
:104A8000D4F8003B43F00443C4F8003BACE700BF5C
:104A9000FFFF07E00000F8FF82B000234A7801938F
:104AA0000B78012A4FEA43131ED100F51060C1189C
:104AB000C258002A02DB002002B07047C25842F000
:104AC0000062C250C25842F08042C25042F210729C
:104AD000019B01330193019B934201D90120EBE734
:104AE0000B68002BF4DBE6E700F53060C118C25814
:104AF000002AE0DAC25842F00062C250C25842F0C6
:104B00008042C25042F21072019B01330193019B1B
:104B10009342E3D80B68002BF6DBCCE710B59DF889
:104B2000084044B9033301329B0800EB023001EB2B
:104B300083038B4201D1002010BD51F8042B026089
:104B4000F7E700002DE9F3414D780F788B690E7976
:104B5000DFF8BCC1DFF8BCE1012D00EB471440F0E9
:104B60008E8004F51065D5F810806BBB08EA0C0C3C
:104B7000C5F810C0D5F810C04CF4002CC5F810C012
:104B8000D5F810C00CEA0E0EC5F810E0012A4ED17F
:104B90004B6903B16B61012E0CD1D0F8083813F4C6
:104BA000807FD4F800390CBF43F0005343F08053AA
:104BB000C4F80039D4F8003943F00443C4F800398C
:104BC000002002B0BDE8F08108EA0E0EC5F810E042
:104BD000D5F810E00EEA0C0CD1F80CE0C5F810C0C6
:104BE0000EEB030C0CF1FF3CBCFBFEFEDFF828C112
:104BF000D5F810800CEACE4C4CEA080CC5F810C071
:104C0000D5F810E0C3F3120C4CEA0E0C012EC5F8D7
:104C100010C0BBD1D5F810C02CF0C04CC5F810C0E6
:104C2000D5F810C04CF0005CC5F810C0AEE7D4F861
:104C30000059012E45F00445C4F800590BD0002B53
:104C4000BED0D0F8343807F00F02012797401F4339
:104C5000C0F83478B4E7D0F8085815F4807FD4F859
:104C600000590CBF45F0005545F08055C4F8005977
:104C7000009209699BB23A46FFF750FFA0E7D4F8CB
:104C8000105B05EA0E05C4F8105BD4F8105B05EA6A
:104C90000C0504F530673D61CD681BBB3B69C5F36E
:104CA00012051D433D613B6943F400233B61012A2A
:104CB00002D10B6903B17B61012E0CD1D0F8083809
:104CC00013F4807FD4F8003B0CBF43F0005343F053
:104CD0008053C4F8003BD4F8003B43F00443C4F8CD
:104CE000003B6DE72B44DFF830C0D7F810E0013B04
:104CF000B3FBF5F39BB25D430CEAC34343EA0E03F7
:104D0000CD613B613B69C5F312051D433D61CEE7B3
:104D1000FFFF07E00000F8FF0000F81F034670B532
:104D20009008002402F0030203F58055844210D35A
:104D300001EB800062B103F580531C680023D900A9
:104D400024FA01F1C154013399B28A42F7D11044D7
:104D500070BD2E6841F824600134E7E74A780B788B
:104D6000012A00EB431012D1D0F80029002A06DBFB
:104D70002BB1D0F8003923F08043C0F80039D0F8C7
:104D8000003943F40013C0F8003900207047D0F810
:104D9000002B002A06DB2BB1D0F8003B23F0804328
:104DA000C0F8003BD0F8003B43F40013C0F8003BD0
:104DB000EBE70B784A7800EB43100B79012AA3F15B
:104DC0000203DBB20FD1D0F80029012B22F400122C
:104DD000C0F8002905D8D0F8003943F08053C0F856
:104DE000003900207047D0F8002B22F40012012B6C
:104DF000C0F8002B9EBFD0F8003B43F08053C0F8B2
:104E0000003BEEE7D0F8003823F4FE63C0F800382A
:104E1000D0F80038090101F4FE611943C0F8001808
:104E200000207047D0F8003E23F00303C0F8003E96
:104E3000D0F8043823F00203C0F80438002070478B
:104E4000D0F8003E23F00303C0F8003ED0F8043849
:104E500043F00203C0F804380020704742698069BB
:104E600010407047D0F8183800F50060C06918404D
:104E7000000C7047D0F8183800F50060C069184081
:104E800080B2704700EB411100F50060D1F8082BAB
:104E900040691040704710B5D0F81048D0F8343849
:104EA00000EB411001F00F01CB4000F51060DB0179
:104EB0008068DBB22343184010BD406900F0010058
:104EC0007047D0F8003923F4FF6323F00703C0F8DC
:104ED0000039D0F8043843F48073C0F80438002057
:104EE0007047000030B5056C104CA54200F53063EA
:104EF00003D9D0F8004B002C16DB00241C611C6980
:104F000044F400241C611C6944F018041C611C69F1
:104F1000012944F0C0441C6101BF5A61D0F8003B34
:104F200043F08023C0F8003B002030BD0A30544FCE
:104F30007FB50124134D144E8DF80F40A04000F0B2
:104F40007E008DF80700002228461021FDF744F965
:104F500022460DF107014FF0FF333046FEF764FAA9
:104F60004FF0FF3322460DF10F013046FEF7FEFBF6
:104F7000284622461021FDF72FF99DF80F0004B0B6
:104F800070BD00BF000002401805002013B50D4C95
:104F90008DF80510400060F07F008DF804000022BD
:104FA00020461021FDF718F94FF0FF3301A9022226
:104FB0000548FEF739FA012210212046FDF70CF9C9
:104FC00002B010BD0000024018050020012913BFE7
:104FD000002301708270037018BF4270704708B5DB
:104FE00000211020FFF7D2FF00211120FFF7CEFF94
:104FF00000211220FFF7CAFF00211320FFF7C6FF90
:1050000000211420FFF7C2FF00211520FFF7BEFF8B
:1050100000211620FFF7BAFF03211720FFF7B6FF84
:1050200000211720FFF7B2FF00211820FFF7AEFF85
:1050300000211920FFF7AAFF00211A20FFF7A6FF81
:1050400000211B20FFF7A2FF00211C20FFF79EFF7D
:1050500000211D20FFF79AFFBDE8084000211E2017
:10506000FFF794BF042910B50FD0082914BF0424FA
:1050700000241620FFF75CFF00F0F30040EA040173
:10508000BDE810401620FFF781BF0824F1E704298E
:1050900010B54FF016000C4634BF0C460124FFF744
:1050A00047FF00F0FC0040EA0401BDE81040162074
:1050B000FFF76CBF70B510200E46C9B215461C46EE
:1050C000FFF764FFC6F302211120FFF75FFFE9B28B
:1050D0001220FFF75BFFC5F302211320FFF756FFF5
:1050E000E1B21420FFF752FFC4F302211520BDE8FE
:1050F0007040FFF74BBF00002DE9F3410024134D32
:10510000134F0646A0463B78A34202DC02B0BDE83E
:10511000F0812868D0F8B030B34213D10378042B63
:1051200008D1CDF800800023D0F8B4001A4603213E
:1051300003F02AFB28680023D0F8AC0003221946AC
:1051400003F05EF901340435DDE700BFDC08002020
:10515000E4080020F8B50C4E0C4F054600243B78BF
:10516000A34200DCF8BD56F8040BD0F8B430AB42D3
:1051700007D1D0F8AC00002303226FF0070103F041
:105180003FF90134EBE700BFDC080020E408002011
:1051900090F88130C154013303F07F0380F88130EF
:1051A00090F88230802B0AD1012380F8833090F868
:1051B0008030013303F07F0380F880307047002295
:1051C000013380F8832080F88230704710B590F862
:1051D00082300BB3531E1B0620D40139002390F8F4
:1051E0008040045D01F8014F90F8804001330134A4
:1051F000DBB204F07F049A4280F8804003D090F83C
:1052000082409C42EBD8002280F8832080F88020E6
:1052100080F8812080F88220184610BD0023FBE72B
:1052200090F88220FFF7D2BF38B590F84031012BBB
:10523000044602D14068FEF753FF94F83F31ABB10A
:10524000002384F83C3184F83D3184F83E3184F801
:105250003F316FF0020594F84021012A04D16068C3
:1052600004F1A601FFF747F8284638BD04F1130101
:1052700004F1BC00FFF7D4FFB4F89C3084F893002D
:105280000133A4F89C3005B2E5E7000073B52E4E5B
:105290003378012B044656D803780025032B80F879
:1052A0003C5180F83D5180F83E5180F83F510AD181
:1052B0000146264A264801F0A3FCC4F8AC00D4F805
:1052C000AC3013BBFEE7042B1BD10146214A224818
:1052D00001F096FC214BC4F8AC000093B4F8A21086
:1052E000D4F8B4301E482A4603F034FAC4F8B400A7
:1052F00000B9FEE71B4A1021022001F073FD08B936
:10530000FEE7FEE7C4F8A800D9E7174B009317485B
:10531000D4F8B0300022052103F01CFAC4F8B00024
:1053200000B9FEE70121124A084601F0BEFCC4F8AC
:10533000B80000B9FEE733780E4A42F82340013343
:10534000337002B070BDFEE7E40800209CC4000882
:10535000F1540008C0C40008C9590008555100089C
:1053600004C400087CC40008F950000812C40008F6
:105370006CC40008DC08002010B590F84031012B07
:10538000044605D09A1E012A38D9042B00D0FEE726
:10539000E06818B1218A0022FCF71EFF2378032B56
:1053A00003D1D4F8983003B9FEE76068FEF782FFB6
:1053B0002028FAD194F840316068042B13D1802260
:1053C00004F1BC01FEF7FEFF00B1FEE763689B6BD2
:1053D0001A68136823F008031360227A237852B105
:1053E000042B0BD1FEE7012204F1A601FEF783FF97
:1053F0000028F2D0FEE7032B00D1FEE7002384F85B
:10540000933084F89430C4F89C30A4F8A03010BDD8
:1054100030B501444FF6FF734AF20104884204D1CB
:10542000180240EA132080B230BD10F8012B53401F
:10543000082203F001055B0805B16340013A12F050
:10544000FF02F6D1EAE773B590F8935000F1130626
:10545000044629463046FFF7DBFF6319020ADA7477
:105460006B1C54FA83F30235D874E36884F89350C4
:105470003BB16068FEF7EEFE218AE0680122FCF78E
:10548000ABFE94F84031606894F89320012B3146CC
:105490002BD1FEF721FDFA21012002F07FFF636886
:1054A0001A6813685B06FCD5E06830B1218A0022D7
:1054B000FCF792FE6068FEF7E5FE2378042B0AD124
:1054C000D4F8B45002F036FC0023024600930221C7
:1054D000284603F059F9002384F89330B4F89E303D
:1054E0000133A4F89E3002B070BDFEF715FDD2E77F
:1054F0002DE9F04F044693B00023A374FCF70AFA99
:105500000146AF4804F036FF94F84031012B01D03A
:10551000042B0FD14FF0FF31012002F03FFF204656
:10552000FFF782FE033005D1B4F8A0300133A4F8B0
:10553000A030E1E794F89390B9F1060FF4D994F80C
:105540000880E37C4345D7D1A9F10201A144C9B247
:1055500004F11300FFF75CFF99F8111099F812306D
:10556000227D43EA0123834211D0B4F8A0300133F5
:10557000A4F8A030FC23803A6375032384F81380D9
:10558000227584F893302046FFF75DFFB4E78D491C
:10559000082311F8010B904200F0EE81013B13F05B
:1055A000FF03F6D1B4F8A0300133A4F8A0300123F2
:1055B000E1E7A17D0E98637D0F9E61F30700014630
:1055C00063F30F21207E0E91C1F30B13E17D60F395
:1055D000070661F30F26C6F30B1C0F96109E60F3AF
:1055E000070661F30F261096360718BF0CF1010C61
:1055F0006344B4F8A4C0634501DD0223BBE70D9EFC
:105600000C9B60F3070660F30703304661F30F203D
:1056100061F30F2301460C934907C3F3CC030D90AC
:1056200018BF013305339BB2B3F5807F19D903232B
:10563000A1E7A07D0B9E0A9B617D60F3070660F3E6
:105640000703304661F30F2061F30F2306070A9327
:105650000B90C3F30B1300D00133B4F8A41099429C
:10566000CBD30023A374D4F8B8004FF0FF3101F07E
:10567000D8FF237D013B0F2B73D8DFE813F03900EF
:105680003900A500A500D900000172007200720067
:105690007200720072007200720019015A01A17D3D
:1056A0000998637D61F30700014663F30F210991B7
:1056B000BDF82430D1E7A17D0798637D61F3070031
:1056C000014663F30F2108980791217EE37D61F382
:1056D0000700014663F30F210891BDF820300799B8
:1056E00013FA81F0B4F8A410884286DC5B0099E7D5
:1056F000A27D0699637D62F307010A46217E63F36A
:105700000F22E37D069261F3070563F30F25C5F3CE
:10571000C70315F007011CBF0133DBB2BDF8182029
:105720001191032184F893101FFA85FEE118637527
:10573000964400234B751FFA8EFE724594F8931021
:1057400017D1119B13B1013184F8931094F8938011
:1057500008F102085FFA88F82046FFF774FE84F823
:10576000A7800023D4F8B8001A46194601F051FD6D
:10577000C2E60120D4F8986000FA03FC100904EB9B
:10578000010936F8100099F8138002F00F06304135
:1057900001335FFA8CFCC007DBB24CBF48EA0C0C4B
:1057A00028EA0C0C072B88BF013102F1010289F8AD
:1057B00013C084BF002384F8931092B2BDE700BFEA
:1057C0001BC4000894C40008A27D637D059962F3A0
:1057D0000707227E63F30F2762F30701E37D0A4682
:1057E00063F30F2205929DF81400430063750323B1
:1057F00084F89330BAB210FA87F094F8933082426A
:1058000003F102085FFA88F8A6DAD4F8981004EBDE
:10581000030C31F81210013354FA83F34FEA112EBE
:1058200001328CF813E092B2D97484F89380E4E7E3
:10583000A27D0199637DE07D62F307010A4663F36F
:105840000F22C2F30B11019202F00F03D4F898203B
:10585000FF284FF0010000FA03F332F811000CBFEB
:10586000034320EA030322F81130062384F893301F
:105870002046FFF7E8FD082384F8A73071E7A27DF2
:105880000399637D049862F307010A46217E63F35E
:105890000F2261F30700E37D0392014663F30F21BA
:1058A000BDF80C20D4F89830049123F81210DCE7EE
:1058B000A27D217E0298637D62F3070B61F30700EE
:1058C000E27D014662F30F2163F30F2B01EB0B081E
:1058D0001FFA8BF302911FFA88F800220720434534
:1058E000C3D004EB00094FEA131E99F81390D4F8C3
:1058F00098C049FA02F903F00F01012619F0010FCF
:1059000006FA01F13CF81E9002F1010289B2D2B20E
:1059100014BF41EA090129EA0101072A88BF0130C1
:1059200003F101032CF81E1084BFC0B200229BB209
:10593000D5E7B4F81720B4F8153000215BBA52BA95
:1059400092B29BB2E1750621227684F8931004EBA3
:1059500042022146C4EB4303914289D091F81BC017
:10596000887E6CF3070A60F30F2AD4F89800084485
:10597000023120F803A0EFE7531E0F2B3FF671AE64
:1059800001A151F823F000BFB3550008B35500083A
:10599000B7560008B7560008335600089F5600084F
:1059A00063560008635600086356000863560008F3
:1059B00063560008635600086356000863560008E3
:1059C000B3550008B75600082DE9F04F044689B0DA
:1059D00000274FF0FF3204A9D4F8A80001F082FD9F
:1059E0009DF81020BDF81230D4F8B80003924FF0A3
:1059F000FF3102939DF81180BDF81450069E01F00E
:105A000010FE94F9A700217ADDE9023260BB00396B
:105A100018BF01214942C9B2501EC0B2F62825D88C
:105A200031B30023A174D4F8B8001A46194601F026
:105A3000F0FB4FF0FF31012002F0B0FCA7740546E7
:105A4000002800F09280F823A374B4F8A03084F802
:105A5000A7700133A4F8A030032200236FF00701E0
:105A6000079802F0CDFCB4E7FE21D5E7F721D8E78F
:105A7000E27484F814801A0A08F1FF38C4F89860B8
:105A80006275A375B8F10F0F0FD8DFE808F00808AA
:105A900008081E260E0E0E0E0E0E0E0E2B522B0A90
:105AA000E3752576062384F893302046FFF7CBFC78
:105AB00000231A461946D4F8B80001F0AAFB4FF0AB
:105AC000010384F8A730A774B3E733882776003B37
:105AD00018BF01235B42E375E4E7338823761A0A93
