:020000040800F2
:100000000000022049160008691500086B15000859
:100010006D1500086F15000871150008000000003C
:100020000000000000000000000000007315000840
:100030007515000800000000771500087915000804
:1000400099160008991600089916000899160008D4
:1000500099160008991600089916000899160008C4
:1000600099160008991600089916000899160008B4
:1000700099160008991600089916000899160008A4
:1000800099160008991600087D15000899160008B1
:100090009916000899160008991600089916000884
:1000A0009916000899160008991600089916000874
:1000B0009916000899160008991600089916000864
:1000C0009916000899160008991600089916000854
:1000D0009916000899160008991600089916000844
:1000E0009916000899160008991600089916000834
:1000F0009916000899160008991600089916000824
:100100009916000899160008991600089916000813
:100110009916000899160008991600089916000803
:100120008915000899160008991600089916000804
:1001300099160008991600089916000899160008E3
:1001400099160008991600089916000895150008D8
:1001500099160008991600089916000899160008C3
:1001600099160008991600089916000899160008B3
:10017000991600089916000899160008000000005A
:08018000991600089916000809
:1001900010B5054C237833B9044B13B10448AFF3C1
:1001A00000800123237010BDC80200200000000061
:1001B0004887000808B5034B1BB103490348AFF358
:1001C000008008BD00000000CC0200204887000825
:1001D000034613F8012B002AFBD1181A0138704787
:1001E00001F0FF01102A2BDB10F0070F08D010F8E8
:1001F000013B013A8B422DD010F0070F42B3F6D1EC
:10020000F0B441EA012141EA014122F007047FF004
:1002100000070023F0E80256083C85EA010586EA5B
:10022000010685FA47F5A3FA87F586FA47F6A5FA97
:1002300087F68EB9EED1F0BC01F0FF0102F00702A3
:1002400032B110F8013B013A83EA010313B1F8D14E
:100250000020704701387047002D06BF354603382F
:10026000073815F0010F07D1013015F4807F02BF68
:10027000013015F4C03F0130F0BC0138704700BFB9
:1002800081F0004102E000BF83F0004330B54FEA47
:1002900041044FEA430594EA050F08BF90EA020FB4
:1002A0001FBF54EA000C55EA020C7FEA645C7FEA47
:1002B000655C00F0E2804FEA5454D4EB5555B8BF6A
:1002C0006D420CDD2C4480EA020281EA030382EADB
:1002D000000083EA010180EA020281EA0303362D6D
:1002E00088BF30BD11F0004F4FEA01314FF4801C40
:1002F0004CEA113102D0404261EB410113F0004F52
:100300004FEA03334CEA133302D0524263EB430308
:1003100094EA050F00F0A780A4F10104D5F1200EA6
:100320000DDB02FA0EFC22FA05F2801841F1000101
:1003300003FA0EF2801843FA05F359410EE0A5F1D5
:1003400020050EF1200E012A03FA0EFC28BF4CF006
:10035000020C43FA05F3C01851EBE37101F00045BC
:1003600007D54FF0000EDCF1000C7EEB00006EEBC9
:100370000101B1F5801F1BD3B1F5001F0CD3490853
:100380005FEA30004FEA3C0C04F101044FEA4452AA
:1003900012F5800F80F09A80BCF1004F08BF5FEA31
:1003A000500C50F1000041EB045141EA050130BD11
:1003B0005FEA4C0C404141EB0101013C28BFB1F523
:1003C000801FE9D291F0000F04BF01460020B1FA6E
:1003D00081F308BF2033A3F10B03B3F120020CDA41
:1003E0000C3208DD02F1140CC2F10C0201FA0CF01F
:1003F00021FA02F10CE002F11402D8BFC2F1200C84
:1004000001FA02F120FA0CFCDCBF41EA0C01904039
:10041000E41AA2BF01EB0451294330BD6FEA040482
:100420001F3C1CDA0C340EDC04F11404C4F120026D
:1004300020FA04F001FA02F340EA030021FA04F37F
:1004400045EA030130BDC4F10C04C4F1200220FAD6
:1004500002F001FA04F340EA0300294630BD21FA14
:1004600004F0294630BD94F0000F83F4801306BFDA
:1004700081F480110134013D4EE77FEA645C18BFCE
:100480007FEA655C29D094EA050F08BF90EA020F65
:1004900005D054EA000C04BF1946104630BD91EA5D
:1004A000030F1EBF0021002030BD5FEA545C05D160
:1004B0004000494128BF41F0004130BD14F580049F
:1004C0003CBF01F5801130BD01F0004545F0FE4113
:1004D00041F470014FF0000030BD7FEA645C1ABF48
:1004E000194610467FEA655C1CBF0B46024650EA7F
:1004F000013406BF52EA033591EA030F41F40021AB
:1005000030BD00BF90F0000F04BF0021704730B530
:100510004FF4806404F132044FF000054FF0000105
:1005200050E700BF90F0000F04BF0021704730B5C6
:100530004FF4806404F1320410F0004548BF40429B
:100540004FF000013EE700BF42004FEAE2014FEAF0
:1005500031014FEA02701FBF12F07F4393F07F4FCB
:1005600081F06051704732F07F4208BF704793F0CE
:100570007F4F04BF41F40021704730B54FF46074E1
:1005800001F0004521F000411CE700BF50EA0102E4
:1005900008BF704730B54FF000050AE050EA01028D
:1005A00008BF704730B511F0004502D5404261EBFD
:1005B00041014FF4806404F132045FEA915C3FF43E
:1005C000D8AE4FF003025FEADC0C18BF03325FEADB
:1005D000DC0C18BF033202EBDC02C2F1200300FA8C
:1005E00003FC20FA02F001FA03FE40EA0E0021FAB1
:1005F00002F11444BDE600BF70B54FF0FF0C4CF49F
:10060000E06C1CEA11541DBF1CEA135594EA0C0F50
:1006100095EA0C0F00F0DEF82C4481EA030621EA8B
:100620004C5123EA4C5350EA013518BF52EA0335C6
:1006300041F4801143F4801338D0A0FB02CE4FF078
:100640000005E1FB02E506F00042E0FB03E54FF0A8
:100650000006E1FB03569CF0000F18BF4EF0010EA0
:10066000A4F1FF04B6F5007F64F5407404D25FEA9C
:100670004E0E6D4146EB060642EAC62141EA55514F
:100680004FEAC52040EA5E504FEACE2EB4F1FD0C91
:1006900088BFBCF5E06F1ED8BEF1004F08BF5FEA0F
:1006A000500E50F1000041EB045170BD06F00046C1
:1006B00046EA010140EA020081EA0301B4EB5C046E
:1006C000C2BFD4EB0C0541EA045170BD41F4801166
:1006D0004FF0000E013C00F3AB8014F1360FDEBF8B
:1006E000002001F0004170BDC4F10004203C35DA67
:1006F0000C341BDC04F11404C4F1200500FA05F3EA
:1007000020FA04F001FA05F240EA020001F000428A
:1007100021F0004110EBD37021FA04F642EB060100
:100720005EEA430E08BF20EAD37070BDC4F10C042A
:10073000C4F1200500FA04F320FA05F001FA04F2EE
:1007400040EA020001F0004110EBD37041F10001DA
:100750005EEA430E08BF20EAD37070BDC4F12005E5
:1007600000FA05F24EEA020E20FA04F301FA05F24D
:1007700043EA020321FA04F001F0004121FA04F2F5
:1007800020EA020000EBD3705EEA430E08BF20EAC5
:10079000D37070BD94F0000F0FD101F000464000FF
:1007A00041EB010111F4801F08BF013CF7D041EA81
:1007B000060195F0000F18BF704703F00046520085
:1007C00043EB030313F4801F08BF013DF7D043EA56
:1007D0000603704794EA0C0F0CEA135518BF95EA0C
:1007E0000C0F0CD050EA410618BF52EA4306D1D193
:1007F00081EA030101F000414FF0000070BD50EAB2
:10080000410606BF1046194652EA430619D094EA3B
:100810000C0F02D150EA013613D195EA0C0F05D125
:1008200052EA03361CBF104619460AD181EA030179
:1008300001F0004141F0FE4141F470014FF0000031
:1008400070BD41F0FE4141F4780170BD70B54FF0CC
:10085000FF0C4CF4E06C1CEA11541DBF1CEA13554C
:1008600094EA0C0F95EA0C0F00F0A7F8A4EB05042E
:1008700081EA030E52EA03354FEA013100F0888025
:100880004FEA03334FF0805545EA131343EA1263EE
:100890004FEA022245EA111545EA10654FEA0026A3
:1008A0000EF000419D4208BF964244F1FD0404F55C
:1008B000407402D25B084FEA3202B61A65EB0305B8
:1008C0005B084FEA32024FF480104FF4002CB6EB75
:1008D000020E75EB030E22BFB61A754640EA0C00F5
:1008E0005B084FEA3202B6EB020E75EB030E22BF35
:1008F000B61A754640EA5C005B084FEA3202B6EB76
:10090000020E75EB030E22BFB61A754640EA9C0034
:100910005B084FEA3202B6EB020E75EB030E22BF04
:10092000B61A754640EADC0055EA060E18D04FEAC2
:10093000051545EA16754FEA06164FEAC30343EA62
:1009400052734FEAC2025FEA1C1CC0D111F4801F2F
:100950000BD141EA00014FF000004FF0004CB6E728
:1009600011F4801F04BF01430020B4F1FD0C88BFC7
:10097000BCF5E06F3FF6AFAEB5EB030C04BFB6EBD2
:10098000020C5FEA500C50F1000041EB045170BDC5
:100990000EF0004E4EEA113114EB5C04C2BFD4EBF2
:1009A0000C0541EA045170BD41F480114FF0000E76
:1009B000013C90E645EA060E8DE60CEA135594EAF2
:1009C0000C0F08BF95EA0C0F3FF43BAF94EA0C0FF5
:1009D0000AD150EA01347FF434AF95EA0C0F7FF46A
:1009E00025AF104619462CE795EA0C0F06D152EABE
:1009F00003353FF4FDAE1046194622E750EA4106A2
:100A000018BF52EA43067FF4C5AE50EA41047FF4B2
:100A10000DAF52EA43057FF4EBAE12E74FF0FF3C17
:100A200006E000BF4FF0010C02E000BF4FF0010CE8
:100A30004DF804CD4FEA410C7FEA6C5C4FEA430C61
:100A400018BF7FEA6C5C1BD001B050EA410C0CBFB0
:100A500052EA430C91EA030F02BF90EA020F002012
:100A6000704710F1000F91EA030F58BF994208BF79
:100A700090422CBFD8176FEAE37040F00100704736
:100A80004FEA410C7FEA6C5C02D150EA013C07D18D
:100A90004FEA430C7FEA6C5CD6D152EA033CD3D0D8
:100AA0005DF8040B704700BF8446104662468C46D2
:100AB0001946634600E000BF01B5FFF7B7FF002805
:100AC00048BF10F1000F01BD4DF808EDFFF7F4FF2E
:100AD0000CBF012000205DF808FB00BF4DF808EDB9
:100AE000FFF7EAFF34BF012000205DF808FB00BFDC
:100AF0004DF808EDFFF7E0FF94BF012000205DF8FE
:100B000008FB00BF4DF808EDFFF7CEFF94BF0120B2
:100B100000205DF808FB00BF4DF808EDFFF7C4FFAB
:100B200034BF012000205DF808FB00BF4FEA410CF4
:100B30007FEA6C5C02D150EA013C0AD14FEA430CD7
:100B40007FEA6C5C02D152EA033C02D14FF0000014
:100B500070474FF0010070474FEA410212F5001252
:100B600015D211D56FF47873B3EB625212D94FEAF4
:100B7000C12343F0004343EA505311F0004F23FADE
:100B800002F018BF404270474FF00000704750EA33
:100B9000013005D111F0004008BF6FF000407047F0
:100BA0004FF00000704700BF53B94AB9002908BF91
:100BB00000281CBF4FF0FF314FF0FF3000F074B938
:100BC000ADF1080C6DE904CE00F006F8DDF804E0A4
:100BD000DDE9022304B070472DE9F047089D044683
:100BE0008E46002B4DD18A42944669D9B2FA82F2E0
:100BF00052B101FA02F3C2F1200120FA01F10CFA1C
:100C000002FC41EA030E94404FEA1C48210CBEFB53
:100C1000F8F61FFA8CF708FB16E341EA034306FBDC
:100C200007F199420AD91CEB030306F1FF3080F06B
:100C30001F81994240F21C81023E63445B1AA4B2B8
:100C4000B3FBF8F008FB103344EA034400FB07F75A
:100C5000A7420AD91CEB040400F1FF3380F00A819B
:100C6000A74240F207816444023840EA0640E41B90
:100C700000261DB1D4400023C5E900433146BDE83C
:100C8000F0878B4209D9002D00F0EF800026C5E9DE
:100C9000000130463146BDE8F087B3FA83F6002EF6
:100CA0004AD18B4202D3824200F2F980841A61EB6E
:100CB000030301209E46002DE0D0C5E9004EDDE78C
:100CC00002B9FFDEB2FA82F2002A40F09280A1EB74
:100CD0000C014FEA1C471FFA8CFE0126200CB1FBC9
:100CE000F7F307FB131140EA01410EFB03F08842C2
:100CF00008D91CEB010103F1FF3802D2884200F24F
:100D0000CB804346091AA4B2B1FBF7F007FB1011E0
:100D100044EA01440EFB00FEA64508D91CEB04047E
:100D200000F1FF3102D2A64500F2BB800846A4EBD9
:100D30000E0440EA03409CE7C6F12007B34022FAC4
:100D400007FC4CEA030C20FA07F401FA06F31C43F3
:100D5000F9404FEA1C4900FA06F3B1FBF9F8200C00
:100D60001FFA8CFE09FB181140EA014108FB0EF046
:100D7000884202FA06F20BD91CEB010108F1FF3A96
:100D800080F08880884240F28580A8F102086144A2
:100D9000091AA4B2B1FBF9F009FB101144EA0141B0
:100DA00000FB0EFE8E4508D91CEB010100F1FF345B
:100DB0006CD28E456AD90238614440EA0840A0FBF3
:100DC0000294A1EB0E01A142C846A64656D353D0C9
:100DD0005DB1B3EB080261EB0E0101FA07F722FAED
:100DE00006F3F1401F43C5E9007100263146BDE816
:100DF000F087C2F12003D8400CFA02FC21FA03F379
:100E0000914001434FEA1C471FFA8CFEB3FBF7F0F9
:100E100007FB10360B0C43EA064300FB0EF69E421E
:100E200004FA02F408D91CEB030300F1FF382FD2B7
:100E30009E422DD9023863449B1B89B2B3FBF7F65F
:100E400007FB163341EA034106FB0EF38B4208D938
:100E50001CEB010106F1FF3816D28B4214D9023E79
:100E60006144C91A46EA004638E72E46284605E797
:100E70000646E3E61846F8E64B45A9D2B9EB020868
:100E800064EB0C0E0138A3E74646EAE7204694E7F8
:100E90004046D1E7D0467BE7023B614432E730462B
:100EA00009E76444023842E7704700BF10B594B0C8
:100EB000102200210AA804F00FFF1422002103A829
:100EC00004F00AFF204B002101911A6C42F080527D
:100ED0001A641B6C03F080530193019B1B4B02911E
:100EE0001A6842F480421A601B6803F4804302933C
:100EF000029B01214FF480330224CDE908134FF403
:100F000080030420CDE90E43A823CDE91003072375
:100F100008A81294139301F013FF08B172B6FEE70C
:100F20000F23CDE9033405904FF4A0524FF48053C2
:100F3000052103A8CDE9062302F0E0F808B172B656
:100F4000FEE714B010BD00BF003802400070004042
:100F50002DE98048A9B09A4C002500F0C3FBFFF7AB
:100F6000A5FF1422002123A804F0B6FE1B95236BD5
:100F7000944843F080032363236B03F080031B93A7
:100F80001B9B1C95236B43F004032363236B03F02B
:100F900004031C931C9B1D95236B43F001032363E7
:100FA000236B03F001031D931D9B1E95236B43F0E0
:100FB00002032363236B03F002031E931E9B1F9502
:100FC000236B43F010032363236B03F010031F9381
:100FD0001F9B2095236B43F008032363236B03F0CF
:100FE00008032A4620934FF400710126209B01F04C
:100FF00043F94FF40073734823A9CDE92336CDE9B3
:10100000255501F05FF81A95236B43F480032363A1
:10101000236B6D4C03F480032A4629461A9338202B
:101020001A9B102700F06CFE382000F09BFE04F0A5
:101030000FFC3A46294623A804F04EFE6348A560FB
:101040004FF48033C4E900034FF0805C4FF000633D
:101050002046C4E90A3C2661267684F82050E560E3
:10106000E76184F83060666100F07CFB08B172B61D
:10107000FEE7259023A92046CDE9237600F09AFDCE
:1010800008B172B6FEE711234FF0020823A92046EB
:10109000CDE9233800F08EFD08B172B6FEE723904B
:1010A000032523A92046249500F084FD08B172B6DB
:1010B000FEE7042723A920462396249700F07AFD13
:1010C00008B172B6FEE7052623A92046CDF88C802C
:1010D000249600F06FFD08B172B6FEE7239523A9B0
:1010E00006252046249500F065FD08B172B6FEE79E
:1010F000072323A920462397249300F05BFD08B122
:1011000072B6FEE7082323A920462396249300F015
:1011100051FD08B172B6FEE7092323A920462395A5
:10112000249300F047FD08B172B6FEE707230A24B6
:10113000254823A9CDE9233400F03CFD08B172B65F
:10114000FEE708230B27204823A9CDE9233700F029
:1011500031FD08B172B6FEE709260C251A4823A90D
:10116000CDE9236500F026FD08B172B6FEE72394B1
:1011700015480D2423A9249400F01CFD08B172B673
:10118000FEE70E231048239723A9249300F012FDB5
:1011900008B172B6FEE70F230B48239523A92493C9
:1011A00000F008FD08B172B6FEE72394064810244B
:1011B00023A9249400F0FEFC054648B172B6FEE770
:1011C00000380240001002400C03002000200140C3
:1011D0000146224623A84A4C04F07EFD4949256178
:1011E00014232046CDE92155C4E90013C4E9025671
:1011F000A56102F085FB08B172B6FEE74FF480539B
:1012000023A92046239302F0B1FB08B172B6FEE792
:101210002023CDE9213021A9204602F043FC08B16A
:1012200072B6FEE7384C394A00234FF40065204679
:10123000C4E90023C4E90233C4E90453A36102F002
:101240001DFA08B172B6FEE72946204602F032FACE
:1012500008B172B6FEE72E492E482D4D2E4C2F4E6A
:10126000102200F025FB264802F0AEFAE8880F9025
:101270002889109068891190A8891290E8891390A4
:10128000288A1490688A1590A88A16902068298860
:101290006A88AB88EF8AB5F81880B5F81A90B5F867
:1012A0001CA0B5F81EB0012826D1CDE9182317914E
:1012B00000F03EFA169B0793159B0693149B05932B
:1012C000139B0493129B0393119B0293109B019316
:1012D0000F9B17990093CDE90CB0DDE91823304638
:1012E000CDE90A9ACDE9087805F068F900F020FA0E
:1012F00001460B4805F062F900232360B6E700BF02
:101300003804002000040040B4030020002C0140F9
:10131000E40200200C03002008030020608700087E
:10132000C987000810B508461446114604F0E0FAD3
:10133000204610BD08B50268054B9A4207D1054802
:101340004FF4007100F09DFF034B01221A6008BDAD
:1013500000200140001002400803002072B6FEE7A2
:1013600082B00C4B002100915A6C42F480425A64C6
:101370005A6C02F480420092009A01911A6C42F079
:1013800080521A641B6C03F080530193019B02B0DE
:10139000704700BF0038024070B514228AB006467C
:1013A00000210DEB020004F097FC3268354B9A42A5
:1013B00065D103F58C33002501955A6C324842F40F
:1013C00080725A645A6C02F480720192019A0295FA
:1013D0001A6B42F004021A631A6B02F004020292C2
:1013E000029A03951A6B42F001021A631A6B02F01B
:1013F00001020392039A04951A6B42F002021A63E7
:101400001B6B03F0020304930324049B05A90F2321
:10141000CDE9053400F056FEFF231C48079505A9C9
:10142000CDE9053400F04EFE1948079505A9CDE930
:10143000054400F047FE174C174B4FF48062C4E997
:1014400000354FF40063C4E904234FF400514FF416
:1014500080732046C4E90255C4E90613C4E908555F
:1014600000F0B8FC08B1FFF779FF0022B463122046
:101470001146A66300F044FC122000F073FC0AB091
:1014800070BD00BF00200140000802400000024083
:10149000000402405403002010640240F0B50446EA
:1014A00089B01422002103A804F016FC22681F4B07
:1014B0009A4239D103F58633002400945A6C1C48B3
:1014C00042F400625A645A6C02F400620092009A7C
:1014D00001941A6B42F004021A631A6B02F00402C0
:1014E0000192019A02941A6B42F008021A631B6B74
:1014F00003F008030C250293029B02274FF4F853D4
:1015000003260DEB0501CDE90337CDE9066500F0B3
:10151000D9FD0423074807950DEB0501CDE90337F5
:10152000CDE9054600F0CEFD09B0F0BD002C01402C
:1015300000080240000C02400268094B9A4282B047
:101540000BD100230193074B1A6C42F002021A647C
:101550001B6C03F002030193019B02B0704700BFB4
:101560000004004000380240FEE7FEE7FEE7FEE729
:10157000FEE770477047704700F0CEB8014800F0B2
:1015800049BA00BF0C030020014800F0DDBC00BFD9
:1015900054030020014801F067B800BF681900201B
:1015A0000120704708B504F06DFB162303604FF06F
:1015B000FF3008BD08B504F065FB16230360FEE7A5
:1015C00070B50D4614460E46731B9C4201DC204646
:1015D00070BDAFF3008006F8010BF5E74FF0FF3068
:1015E00070474FF400534B60002070470120704754
:1015F000002070470B4A116810B5034609B90A4923
:101600001160106809490A4C0344091B8B4206D932
:1016100004F038FB0C2303604FF0FF3010BD136063
:10162000FCE700BF80040020A8200020000002206A
:1016300000040000034AD2F8883043F47003C2F873
:101640008830704700ED00E0DFF834D00D480E49D7
:101650000E4A002302E0D458C4500433C4188C420C
:10166000F9D30B4A0B4C002301E013600432A24271
:10167000FBD3FFF7DFFF04F00BFBFFF769FC7047BC
:101680000000022000000020C80200200C8C00088E
:10169000C8020020A4200020FEE7000038B50E4A52
:1016A0000E4B054618784FF47A73B3FBF0F31068CD
:1016B000B0FBF3F000F064FB044658B90F2D09D8D5
:1016C000024629464FF0FF3000F01AFB044B20463B
:1016D0001D6038BD0120FCE7000000200400002050
:1016E0000800002008B50B4B1A6842F400721A601B
:1016F0001A6842F480621A601A6842F480721A60B2
:10170000032000F0EBFA0F20FFF7C8FFFFF728FED9
:10171000002008BD003C0240034A044B11681B78BE
:101720000B441360704700BF8404002004000020B5
:10173000014B1868704700BF8404002038B5044688
:10174000FFF7F6FF631C1CBF054B1B78054618BF4F
:10175000E418FFF7EDFF431BA342FAD338BD00BFE7
:101760000400002038B50446002800F09B80056C7A
:1017700025B9FFF711FE656484F83C50236CDB0645
:1017800000F18E80236C23F4885323F0020343F08E
:1017900002032364444B5A6822F440325A605A6868
:1017A00061680A435A60236821695A6822F480728A
:1017B0005A605A6842EA01225A605A68A16822F0C7
:1017C00040725A605A680A435A609A68E16822F483
:1017D00000629A609A680A439A603449A26A8A420F
:1017E00052D0996821F07061996099680A439A60B3
:1017F0009A68E16A22F040529A609A680A439A60B5
:101800009A6822F002029A609A68217E42EA4102B6
:101810009A6094F82020002A3ED05A68616A42F407
:1018200000625A605A6822F460425A605A6801396C
:1018300042EA41325A60DA6AE16922F47002DA62FD
:10184000DA6A013942EA0152DA629A6822F40072D5
:101850009A609A6894F8301042EA41229A609A6835
:10186000616922F480629A609A68002042EA8122CB
:101870009A606064236C23F0030343F00103236444
:10188000002384F83C3038BD9A6822F070629A6078
:101890009A6822F04052B2E75A6822F40062C9E71F
:1018A0000120EDE70120EEE7002301400100000FD9
:1018B00073B513460022019290F83C20012A054698
:1018C00000F08C800122066880F83C20B268D407C2
:1018D00054D5B268D00564D4B46814F0010474D04F
:1018E000286C20F4E06020F0010040F4807028644F
:1018F0007268520541BF286C20F4405040F480507B
:1019000028642A6CA86B12F480521CBF6A6C22F007
:1019100006026A640024334A85F83C40C263324AB6
:101920000264324AC2646FF022023260726842F08E
:1019300080627260B26842F48072B2600A4606F158
:101940004C0100F0C7FA2A4A2B685068294910F068
:101950001F0032D18B4207D001F580718B4225D117
:10196000526812F01F0F07D1986810F0405037D11D
:101970009A6842F080429A6002B070BDB26842F04C
:101980000102B2601C4A10681C4AB0FBF2F000EB86
:1019900040000190019A002A9BD0019A013A0192DD
:1019A000F8E7B26822F48072B26095E714498B427E
:1019B000E2D1526812F0100FD5E78B4210D198682F
:1019C00010F04050D4D02046D6E72B6C43F01003E3
:1019D0002B646B6C43F001036B64F4E70220CBE7EC
:1019E0000020C9E7471B0008071A0008311B000840
:1019F00000230140002001400000002040420F0071
:101A000000220140704708B5806BFFF7FBFF08BD5F
:101A100070477047036870B51E685D68B20704467A
:101A20002BD5A80629D5226CD1065EBF226C42F4C4
:101A3000007222649A6812F0405F17D1227EAAB920
:101A4000DA6A12F4700F02D09A6852050ED45A68FE
:101A500022F020025A60236C23F480732364236CE9
:101A6000D8045EBF236C43F0010323642046FFF7D4
:101A700061FC23686FF012021A60710733D52A06E1
:101A800031D5236CDB065EBF236C43F40053236423
:101A900023689A6812F4401F1ED19A6B12F4401FFB
:101AA00002D09A68500517D45A68510514D49A6820
:101AB00012F0405F10D1227E72B95A6822F0800283
:101AC0005A60236C23F480532364236CDA055EBFD1
:101AD000236C43F001032364204600F0FDF82368E3
:101AE0006FF00C021A60F30710D568060ED5236854
:101AF0001B68D9070AD5236C43F48033236420463E
:101B0000FFF786FF23686FF001021A60B2060ED558
:101B10006B010CD5636C43F00203636423686FF0C0
:101B200020051D602046FFF774FF23681D6070BD0F
:101B3000806B08B540230364436C43F004034364A3
:101B4000FFF767FF08BD836B1A6C12F0500F10B5DA
:101B50001A6C23D142F400721A641A68916811F069
:101B6000405F17D1197EA9B9D16A11F4700F02D064
:101B7000916848050ED4516821F0200151601A6C1B
:101B800022F480721A641A6CD1045EBF1A6C42F09F
:101B900001021A641846FFF7CDFB10BDD20603D52B
:101BA0001846FFF736FFF8E79B6BBDE81040DB6C8B
:101BB00018470000F7B50023019390F83C30012B43
:101BC00066D0012380F83C300D6803688E68092DCB
:101BD000ACB231D904EB4402DF681E3A4FF0070C77
:101BE0000CFA02FC27EA0C07DF60DF6806FA02F253
:101BF0003A43DA604968062901EB81022CD8596B17
:101C0000053A1F26964021EA06015963596B04FAEA
:101C100002F20A435A632C4A934207D1122D39D15A
:101C2000D2F8043343F48003C2F80433002380F86D
:101C30003C30184603B0F0BD1F6905EB45024FF07C
:101C4000070C0CFA02FC27EA0C071F611F6906FA51
:101C500002F23A431A61CDE70C294FF01F010BD86D
:101C60001E6B233A914026EA01011963196B04FAAD
:101C700002F20A431A63CEE7DE6A413A914026EA4D
:101C80000101D962D96A04FA02F20A43DA62C2E7B0
:101C90000220CFE7A5F11003012BC7D80B4A5368E8
:101CA000102D43F400035360C0D1094B094A1B684F
:101CB000B3FBF2F30A2253430193019B002BB5D0EF
:101CC000019B013BF8E700BF0020014000230140D9
:101CD0000000002040420F00704700000749CA681A
:101CE00022F4E0620302120403F4E063120C1343D3
:101CF00043F0BF6343F40033CB60704700ED00E076
:101D0000164B30B5DC68C4F30224C4F10705231D6B
:101D1000042D28BF0425062B4FF0FF338CBF033C56
:101D2000002403FA05F521EA0501A34022EA030293
:101D3000A140002841EA0203ACBF00F16040084A1C
:101D40004FEA0313B8BF00F00F00DBB2AABF00F5E3
:101D50006140135480F8003330BD00BF00ED00E057
:101D600014ED00E0002808DB4209012300F01F0009
:101D700003FA00F0014B43F82200704700E100E055
:101D80000138B0F1807F0BD24FF0E023054A586153
:101D9000F02182F823100020072298611A61704711
:101DA0000120704700ED00E0036810B5084C0246C2
:101DB000D9B210391820B1FBF0F0205CD06523F4C3
:101DC0007F7020F003005F2988BF0430906510BD4C
:101DD000E287000870B50446FFF7AAFC0546002C10
:101DE00073D0022384F835302268002384F834301D
:101DF000136823F00103136021680B68D8072FD400
:101E00000B68334DA0691D40D4E901231343E268F8
:101E100013432269134362691343E2690343134383
:101E2000226A1343626A042A43EA050302BFD4E923
:101E30000B5635432B430B604B69042A23F00703F1
:101E400043EA020333D1A26AE56A13437DB390B932
:101E5000012A21D032F0020229D1EA0127D51EE061
:101E6000FFF766FC401B0528C6D9202363650320C5
:101E700084F8350070BDB0F5005F14D1032A16D880
:101E800001A050F822F000BF9F1E00085B1E000852
:101E90009F1E0008991E0008B5F1C07F07D140239E
:101EA00063650120E4E7022AF9D9032AD5D04B6102
:101EB0002046FFF779FFE26D3F23934083600020C7
:101EC0000123606584F83530D4E70120D2E700BFF4
:101ED0003F8010F070B590F83440866D012C31D001
:101EE000012480F8344090F83540012C4FF0000573
:101EF0004FF0020424D180F8354004684565256818
:101F000025F48025256063608368402B0EBFA260A6
:101F1000A160E260C26D08BFE1603F239340B360FF
:101F2000236843F016032360036C1BB1236843F05E
:101F300008032360236843F001032360002070BD81
:101F400080F834500220FAE7F7B5002301935C4B88
:101F5000856D1F68C36D2E6808229A403242044680
:101F60000CD001680868400708D5086820F0040014
:101F70000860AA60626D42F00102626501229A4027
:101F8000324208D021684969090641BFAA60626DE2
:101F900042F00202626504229A40324208D021686F
:101FA0000968880741BFAA60626D42F00402626559
:101FB00010229A40324210D02368196809070CD5C4
:101FC000AA601A68500337D51B68190301D4236C23
:101FD00000E0A36C0BB120469847E16D20228A40B7
:101FE00032423AD023681868C60636D5AA6094F8FB
:101FF0003520052A1A6827D122F016021A605A697C
:1020000022F080025A61226C0AB9A26C1AB11A68D5
:1020100022F008021A603F238B40AB60012384F852
:102020003530002384F83430236D002B45D0204612
:1020300003B0BDE8F04018471A68D2055EBF1A68C1
:1020400022F008021A60C2E7500327D51B68190363
:1020500031D4636C0BB120469847636D6BB3636DED
:10206000DA0719D522684FF41653B7FBF3F70523A7
:1020700084F83530136823F001031360019B0133AA
:10208000BB42019302D81368DB07F7D4012384F81D
:102090003530002384F83430E36CC6E71A6812F454
:1020A000807208D1196821F010011960012384F8A9
:1020B000353084F83420E36BCCE703B0F0BD00BFCB
:1020C000000000202DE9F74FDFF8A891674A0023B0
:1020D0000D6801249C4004EA050CAC4340F0B1803B
:1020E0004D6805F003044FEA43080326671E06FA0D
:1020F00008F6012F6FEA060634D8876807EA060E4D
:10210000CF6807FA08F747EA0E078760476827EAAB
:102110000C0EC5F300179F4047EA0E074760C768DB
:1021200007EA060E8F6807FA08F747EA0E07022C3F
:10213000C76019D14FEAD30A00EB8A0A03F0070BF4
:10214000DAF820704FEA8B0B4FF00F0E0EFA0BFEF1
:1021500027EA0E0E0F6907FA0BF747EA0E07CAF8CF
:10216000207001E0032CDAD1076804FA08F43E403D
:10217000264315F4403F066063D04FF0000ACDF8C7
:1021800004A0D9F844603A4C46F48046C9F844604B
:10219000D9F8446006F480460196019E23F00306B8
:1021A00006F1804606F59C3603F0030ED6F808804B
:1021B0004FEA8E0E0F2707FA0EF7A04228EA07070C
:1021C00046D004F58064A04244D004F58064A04267
:1021D00042D004F58064A04240D004F58064A0425F
:1021E0003ED004F58064A0423CD004F58064A04257
:1021F0003AD004F58064A0420CBF0724082404FAF6
:102200000EF43C43B46094686FEA0C06EF0254BFCE
:1022100034404CEA04049460D468AF0254BF3440A4
:102220004CEA0404D4605468AF0354BF34404CEA11
:10223000040454601468ED0354BF34404CEA0404B1
:1022400014600133102B7FF443AF03B0BDE8F08F6F
:102250005446D4E70124D2E70224D0E70324CEE792
:102260000424CCE70524CAE70624C8E7003C014063
:1022700000000240003802400AB181617047090441
:10228000FBE7436901EA030221EA030141EA024153
:1022900081617047F0B504468BB060B390F8BD34EF
:1022A000056803F0FF021BB980F8BC2403F0AEFB05
:1022B000032384F8BD34EB6B254613F4807355F883
:1022C000100B08BF236101F0ABFF0FCD6E460FC6A8
:1022D0000FCD0FC695E8030086E803002546271DAD
:1022E00097E80E0055F8100B01F0E4FE064620B109
:1022F000022384F8BD3401254EE00146206801F038
:1023000095FF3046D4F804C024264FF0010E014654
:10231000C2B2944500F101001CD8002324261946BE
:10232000D8B2844503F1010322D80FCD6E460FC603
:102330000FCD0FC695E8030086E8030097E80E006E
:10234000206801F0F5FF01230546F0B1022284F870
:10235000BD24D0E706FB0243C3E9121183F83DE038
:1023600083F83C20A3F8442083F840105965CFE758
:1023700006FB0042C2E9A21182F87D1282F87C02BB
:1023800082F88012C2F89412CAE784F838002068F4
:1023900084F8BD3402F074FB28460BB0F0BD10B5D4
:1023A0000446006894F8BC34012B15D0012384F84E
:1023B000BC34A36A012B06D1A369012B1EBF836B1A
:1023C00043F48033836301F025FF206802F04AFB69
:1023D000002084F8BC0410BD0220FCE710B590F882
:1023E000BC24012A04460BD0012280F8BC2480F8CA
:1023F0003810006802F026FB002084F8BC0410BDF1
:102400000220FCE770B501F00F0606EBC60411F0E0
:10241000800F05464FEA84044FF024001FD000FBD4
:10242000065004F13C010124294480F83D40CA6073
:102430004A780E700B7102B10E81022B04BF00238B
:102440004B7195F8BC34012B12D00123286885F814
:10245000BC3402F030F8002085F8BC0470BD00FBED
:10246000065004F51F710024294480F87D42DEE700
:102470000220F3E710B5044601F00F0000EBC003A3
:1024800011F0800F4FEA83034FF0240216D002FBB5
:10249000004203F13C010123214482F83D300870E1
:1024A00094F8BC34012B12D00123206884F8BC348A
:1024B00002F040F8002084F8BC0410BD02FB00428A
:1024C00003F51F710023214482F87D32E7E70220E3
:1024D000F3E738B501F00F05242404FB050104FBE4
:1024E000050401F51F71C4F894320023C4F88C224E
:1024F000C4F89C3284F87D3284F87C520369006809
:10250000012B08BFC4F89022DAB21DB902F068F8B6
:10251000002038BD02F036F9FAE701F00F0124235C
:1025200003FB0100D0F89C02704738B501F00F059D
:10253000242404FB050104FB05043C3163650023EE
:10254000E3650123E26484F83D3084F83C5003697C
:102550000068012B08BF2265DAB21DB902F040F80D
:10256000002038BD02F00EF9FAE738B5436801F0F3
:102570000F059D4204462CD811F0800F4FF0240027
:102580001ED000FB054200FB054101233C3182F8CF
:102590003D3001238B700D7094F8BC249A421AD000
:1025A000206884F8BC3402F0F9F92DB9217C206848
:1025B00004F2C44202F0B6FA002084F8BC0438BD2C
:1025C00000FB01431A4603F51F71002382F87D3298
:1025D000DFE70120F3E70220F1E738B5436801F0B7
:1025E0000F029A4204462AD802EBC20311F0800F70
:1025F0004FEA83034FF0240018D000FB024003F1A0
:102600003C010123214480F83D3000258D700A7083
:1026100094F8BC34012B14D00123206884F8BC3416
:1026200002F0E7F984F8BC54284638BD00FB0240AC
:1026300003F51F710023214480F87D32E5E7012076
:10264000F3E70220F1E701F00F0303EBC3030A06EF
:102650004FEA83034CBF03F13C0103F51F710144B2
:10266000006802F039B800002DE9F04F066889B023
:102670000446304602F041FA0390002840F05681AB
:10268000206802F00BFA002800F05081D6F80838D4
:102690002068C3F30D23C4F8FC3402F0FFF981076E
:1026A00048BF2268206842BF536903F002035361A8
:1026B00002F0F4F9C20606F500652CD5226893698C
:1026C00023F010039361D6F82080C8F34343022B14
:1026D00008F00F0740F02D8147F6F07318EA030F5A
:1026E00014D0242303FB0747C8F30A19D7F88C1228
:1026F0004A46304602F032F9D7F88C324B44C7F8DC
:102700008C32D7F89C324B44C7F89C3222689369CC
:1027100043F010039361206802F0C0F9030300F155
:102720001A81206802F0BAF947030CD5206802F03C
:10273000C1F92746049006F5106A4FF00009049B82
:10274000002B40F0D081206802F0A8F9002813DAAD
:102750006B6823F001036B6094F8F434012B40F0B4
:102760006B82002184F8F414204600F0E7FA226816
:10277000536903F000435361206802F08FF90105AB
:102780000AD5AB68DA0702D5204603F0AFF9226814
:10279000536903F400635361206802F07FF9C304B6
:1027A00033D56B68206823F001036B60102101F0C2
:1027B0006DFD06F510634FF67F3162680398824223
:1027C00000F24282EB6943F00113EB61236B002BB3
:1027D00000F05282D5F8843043F00B03C5F8843002
:1027E0006B6C43F00B036B64D6F80038217C2068D7
:1027F00023F4FE63C6F8003804F2C44202F092F9F2
:102800002268536903F480535361206802F046F94B
:10281000870416D5206802F074F9206801F040FEA4
:10282000E060276800F006FD227B0146384601F093
:1028300081FC204603F047F92268536903F40053F2
:102840005361206802F02AF9000707D5204603F0FB
:1028500036F92268536903F008035361206802F0D7
:102860001DF9010600F11382206802F017F9C20277
:102870000CD5A04606F5126901276368BB4200F239
:102880001F822268536903F480135361206802F0A9
:1028900005F983022DD5D4F804E0234606F532600D
:1028A00001218E4520D993F8A4C20268BCF1010F22
:1028B00040F01C82002A80F21982D4F8FC7402F4E1
:1028C000803207F00107BA4240F0108283F8A3C2B9
:1028D000B26942F08002B2617269170600F10682A5
:1028E0006B6843F400736B602268536903F4001350
:1028F0005361206802F0D2F8410007D5204603F06A
:1029000019F92268536903F080435361206802F08B
:10291000C5F842070AD523685D686B0702D52046D3
:1029200003F00CF9226853682B43536009B0BDE8EB
:10293000F08F062B7FF4EAAE082204F2C441304641
:1029400002F00CF8242303FB0747C8F30A18D7F852
:102950009C324344D8E6206802F0A4F806F53068BB
:102960000490A2460027049B002B3FF4DAAE049BA0
:10297000D80776D55FFA87FB2068594602F0A2F89F
:1029800010F0010F81461CD0206821690123C8F88E
:10299000083000F5306303EB47130129D0F840C03D
:1029A0009A6840F08B80110707D5A5498C4508D956
:1029B000100406D54FF4004202E091065AD52022B9
:1029C0009A6019F0080F21D00823C8F8083023684E
:1029D0009B481A6C03F5306303EB471382429968F6
:1029E00004D9090444BF4FF4004199602046059280
:1029F00003F04EF8924B059A9A4207D921690129B2
:102A000004D1206804F2C44202F08CF819F0100FCF
:102A10001CBF1023C8F8083019F0020F14D07369D6
:102A20001B0642BF6B6843F480636B609AF87F3289
:102A3000012B06D100238AF87F325946204603F045
:102A400071F80223C8F8083019F0200F1CBF2023AA
:102A5000C8F8083019F4005F1CBF4FF40053C8F8E1
:102A60000830049B5B080137049308F120080AF141
:102A7000240A78E712F0280FA3D171498C4501D9B7
:102A8000120497D41A69DAF89832C2F312029B1A28
:102A9000CAF89C326FB9D4F894222AB904F2C4421D
:102AA000012102F03FF804E0D4F88C221344C4F86A
:102AB0008C325946204602F0F1FF82E761498C458D
:102AC00007D111043FF576AF9006F2D520229A6027
:102AD000EFE7002FEDD1D4F89432002BE9D104F2C6
:102AE000C4423946DDE7049BD80740F19C805FFA79
:102AF00089FB2068594601F0EEFF10F0010F804677
:102B000020D001216B6B09F00F0201FA02F223EAD7
:102B100002036B630B46CAF80810216999420DD174
:102B2000D7E912231344FB64B9F1000F06D1636D9A
:102B300023B9206804F2C44201F0F4FF594620464C
:102B400002F0B5FF18F0080F1CBF0823CAF80830C0
:102B500018F0100F1CBF1023CAF8083018F0400FEF
:102B60001CBF4023CAF8083018F0020F12D04946A3
:102B7000304601F08BFB97F83F30012B07D14FF027
:102B8000000387F83F305946204602F0CFFF02236A
:102B9000CAF8083018F0800F45D0FA6D7B6D9A4264
:102BA00041D89B1ABA6C21680591934228BF1346FD
:102BB00003339B08069301F5106303EB4913079356
:102BC000079B06989969FA6D7B6D89B2814228D37B
:102BD0009A420CD3059B09F00F01D3F83428012049
:102BE00000FA01F122EA0102C3F834281BE0A3EB4A
:102BF0000208BB6C0598984528BF984608F1030366
:102C00009B080693237C0093F96C1FFA88F35A46BD
:102C100001F0A4FDFB6C4344FB64FB6D4344FB6586
:102C2000CEE79A42D6D2049B5B0809F101090493CE
:102C300024370AF1200A82E5204602F06FFF96E56C
:102C40000A30544F0A31544F99601A6822F4001226
:102C50001A60C3F80812D3F8002222F40012C3F855
:102C60000022D3F8002242F00062C3F80022039A47
:102C7000013203922033A0E56B6943F4005343F023
:102C80002B036B612B6943F00B032B61ACE5B3693C
:102C900023F08003B361012704F27F284FF0240959
:102CA0006368BB427FF6E0AD09FB07F318F8033019
:102CB000012B03D1F9B22046FFF7C5FC0137EFE73E
:102CC00098F86430D9F80020012B09D1002A07DADE
:102CD00067F07F0188F86330C9B22046FFF7B3FC84
:102CE000013708F1240809F12009C6E50131243330
:102CF0002030D6E5006870B51204446A19B9224341
:102D00008262002070BD836A4D1E04EB13440023D1
:102D10005E1CDBB29D4205D83F3100EB81002243AF
:102D20004260EEE7403300EB83035B6804EB13443F
:102D30003346EDE703680020596270477047000092
:102D40002DE9F341044640B30368DD0710D423683E
:102D500098075ED423681A0700F1A08023685B07F8
:102D600000F1C080A069002840F0288100202BE0FD
:102D70008F4B9A6802F00C02042A07D09A6802F07E
:102D80000C02082A0BD15A68510208D5884B1B68DF
:102D90009A03DCD56368002BD9D1012014E0626866
:102DA000B2F5803F13D11A6842F480321A60FEF700
:102DB000BFFC7F4E054633689B03C8D4FEF7B8FCC2
:102DC000401B6428F7D9032002B0BDE8F081784D9C
:102DD000B2F5A02F2B6807D143F480232B602B681A
:102DE00043F480332B60E2E723F480332B602B68BD
:102DF00023F480232B60002AD9D1FEF799FC0646E4
:102E00002B689F03A3D5FEF793FC801B6428F7D99A
:102E1000D9E7674B9A6812F00C0F07D09A6802F056
:102E20000C02082A11D15B685E020ED4604A136856
:102E30009D0702D5E368012BAFD11368216923F008
:102E4000F80343EAC103136084E7E268594BB2B167
:102E500001221A60FEF76CFC554D06462B68980758
:102E600007D52B68226923F0F80343EAC2032B60DD
:102E700070E7FEF75DFC801B0228EFD9A3E71A601C
:102E8000FEF756FC4A4E0546336899077FF562AF58
:102E9000FEF74EFC401B0228F6D994E76269454BC9
:102EA00082B10122C3F8802EFEF742FC404E054657
:102EB000736F9F073FF552AFFEF73AFC401B0228A5
:102EC000F6D980E7C3F8802EFEF732FC384E05466F
:102ED000736F98077FF542AFFEF72AFC401B02286C
:102EE000F6D970E7324B1A6C12F0805228D1019259
:102EF0001A6C42F080521A641B6C03F080530193E9
:102F0000019B01272C4D2B68D9051BD5A368284DA3
:102F1000012B27D12B6F43F001032B67FEF708FC31
:102F2000234E054641F28838336F9B0739D5002F71
:102F30003FF418AF1E4A136C23F08053136411E75B
:102F40000027DFE72B6843F480732B60FEF7F0FB6C
:102F500006462B68DA05D9D4FEF7EAFB801B022867
:102F6000F7D930E7052B04D12B6F43F004032B670F
:102F7000D0E72A6F22F001022A672A6F22F00402AA
:102F80002A67002BCAD1FEF7D3FB41F288380646E8
:102F90002B6F9807CBD5FEF7CBFB801B4045F7D9AD
:102FA00011E7FEF7C5FB401B4045BDD90BE700BF4D
:102FB000003802400000474200700040364DAB68C8
:102FC00003F00C03082B3DD0344B002202281A6674
:102FD0002BD1FEF7ADFB06462B6899011FD4D4E92F
:102FE00007321343626A43EA8213E26A43EA0263E6
:102FF000A26A5208013A43EA02436B60274B264D0E
:1030000001221A66FEF794FB04462B689A013FF5ED
:10301000ADAEFEF78DFB001B0228F6D9D3E6FEF716
:1030200087FB801B0228D7D9CDE6FEF781FB04463B
:103030002B689B017FF59AAEFEF77AFB001B0228F6
:10304000F6D9C0E601283FF4BFAE6B68E26903F42D
:10305000800191427FF4A1AE216A03F03F028A42CF
:103060007FF49BAE616A47F6C0721A40B2EB811FD3
:103070007FF493AEA26A520803F44031013AB1EBF7
:10308000024F7FF48AAEE26A03F07063B3EB026F23
:103090003FF46CAE81E600BF0038024000004742BA
:1030A000134908B58B6803F00C03042B1CD0082BC4
:1030B0001CD14A684B68496813F4800314BF0D485B
:1030C0000D48C1F3881118BF002302F03F02A1FB95
:1030D0000001FDF769FD064B5B68C3F30143013353
:1030E0005B00B0FBF3F008BD0248FCE70248FAE7DA
:1030F0000038024000127A000024F4002DE9F0416B
:103100000D46044610B90120BDE8F081444B1A6811
:1031100002F007028A4228D3226897072DD4D007ED
:1031200041D43F4B1A6802F00702AA4266D82268CF
:1031300051076CD4130707D53A4A2169936823F4E1
:10314000604343EAC1039360FFF7AAFF354B364A59
:103150009B68C3F30313D35CD840344B1860344BE3
:103160001868FEF79BFA0020CEE7CAB21A701B68F7
:1031700003F007038B42C6D1CEE72A4B12F0040FAF
:103180001EBF996841F4E0519960160742BF9968E3
:1031900041F4604199602349A0688B6823F0F003F3
:1031A00003438B60BBE762681E4B012A1CD11B687E
:1031B00013F4003FA7D01B4EB36823F0030313435F
:1031C000B360FEF7B5FA41F288380746B368626823
:1031D00003F00C03B3EB820FA3D0FEF7A9FAC01BD8
:1031E0004045F3D903208FE7911E01291B6802D8BF
:1031F00013F0007FDEE713F0020FDBE7EAB21A708C
:103200001B6803F00703AB427FF47DAF8FE70549EE
:10321000E0688B6823F4E05303438B608AE700BFC8
:10322000003C024000380240D28700080000002025
:1032300008000020014B1868704700BF0000002004
:10324000F0B589B005460E46FEF772FA0023074630
:1032500008212868CDE9003300F068FD0446D8B99C
:10326000296D2868090400F091FD0446A0B94FF0CB
:10327000FF320823CDE9022330210223CDE90413D4
:103280000690012302A92868079300F086FC2868AD
:1032900000F0ACFD044690B1204609B0F0BD426B91
:1032A000930212D500F058FC08AB03EB8403013401
:1032B00043F8200CFEF73CFAC01B013023D02868ED
:1032C000426B12F02A0FEAD002E0426B9104F1D473
:1032D000426B120702D508248463DDE7426B930733
:1032E00001D50224F8E7446B14F0200401D0202417
:1032F000F2E7019B40F23A521BBA82633360009BB3
:103300001BBA7360C8E74FF00044C5E7436E9A0FDD
:103310000A70C3F383624A70C3F301628A70C3F315
:103320000742CA70C3F30722DBB20A714B71836E86
:103330001A0DCA80C3F303420A72C3F3C0324A7241
:10334000C3F380328A72C3F34032CA72C3F30032CD
:103350000A7300224A73426C10B5002A6CD1C26E07
:1033600040F6FC7404EA830343EA92730B61C2F3F0
:10337000C2630B75C2F302634B75C2F342538B7584
:10338000C2F38243C2F3C232CB750A760B690A7E5E
:1033900002F007020133023203FA02F242650B7AAD
:1033A00003F00F040123A34083655B0A5343C36505
:1033B0004FF400730366C36EC3F380324A76C3F3DF
:1033C000C61203F07F038A76CB76036FDA0F0A7793
:1033D000C3F341724A77C3F382628A77C3F383529D
:1033E000CA77C3F3405281F820200020C3F3004283
:1033F00081F8210081F82220C3F3C03281F8232014
:10340000C3F3803281F82420C3F3403281F82520B1
:10341000C3F3003281F82620C3F3812281F82720EC
:10342000C3F30122C3F3460381F8282081F8293031
:10343000012381F82A3010BD012A0FD1B0F86E2087
:103440001B0403F47C1313430B610B6901339B02D0
:103450004365C3654FF400738365ABE70368054AB2
:103460009A63836B43F080538363012380F8343085
:103470001846E0E7FF0540002DE9F041002398B031
:10348000CDE90933CDE907330B9376230C930AABCF
:10349000044693E807008DE8070007AB0ECB2068D1
:1034A00000F03EFB0546002840F0DF80704F01260B
:1034B000C7F8A000206800F052FB0220C7F8A06007
:1034C000FEF73CF92068069500F07AFB054640B906
:1034D000206800F0B1FD70B12068A56400F070FBB9
:1034E00090B1012584F83450A36B0343A3632846AD
:1034F00018B0BDE8F081A6642068002100F046FC09
:1035000028B14FF08050ECE7A36C012BF4D0DFF82A
:10351000688100264FF6FE7714E02068314600F0FF
:1035200035FC0028DDD12068414600F0E7FC00288A
:10353000E7D13146206800F02DFB069B013305469C
:10354000C60F0693069BBB4201D8002EE5D0069B12
:10355000BB420CD8C5F38075012320686564ADF8C3
:10356000163000F000FB28B94FF08060B9E74FF04B
:103570008070B6E7636C032B43D0206800F074FCC6
:103580000028AED10146206800F004FB04216067EA
:10359000206800F0FFFA0821A067206800F0FAFA1E
:1035A0000C21E067206800F0F5FA636CC4F8800035
:1035B000032B26D020680DF1160100F0FBFC00283B
:1035C0008FD1636C2068032B1BD0BDF816102165CA
:1035D000090400F05EFC002883D10146206800F059
:1035E000D9FA04216066206800F0D4FA0821A066A8
:1035F000206800F0CFFA0C21E066206800F0CAFADB
:1036000020670421206800F0C5FA000DE0640DA9D0
:103610002046FFF77BFE054600287FF472AF226D3F
:1036200003461204206800F099FB00287FF459AF8C
:1036300004F1100393E807008DE80700231D0ECB6B
:10364000206800F06DFA20684FF4007100F06EFB06
:1036500000283FF44CAF2368064A9A63A36B012508
:103660001843A06384F8345041E701253FE700BFC9
:1036700000802542FF054000000010C110B504463F
:1036800008B9012010BD90F8343003F0FF0213B9DF
:103690000277FDF703FF032384F834302046FFF759
:1036A000EBFE0028EDD10123A063206384F83430C1
:1036B000E8E70000F0B5032380F83430436C032BB7
:1036C0008BB004460D4602D0B1F5805F03D1A36BE9
:1036D00043F080535DE0B1F5006F006837D1002101
:1036E000CDE9041100F056FA800149D404A920461E
:1036F000FFF7A6FD60B9059B590344D5216D2068ED
:10370000090400F043FB18B90221206800F056FBC1
:10371000A36B1843A063A66B2768002E3BD0294BF0
:10372000BB63012584F8345020684FF4007100F029
:10373000FDFA30B12368234A9A63A36B1843A06350
:1037400001250123284684F834300BB0F0BDE9B9D7
:10375000CDE9041100F01EFA820111D404A920461B
:10376000FFF76EFD0028D3D1059BDB030BD5216D40
:103770002068090400F00AFB0028C9D10146C4E70B
:103780004FF40060C4E74FF08060C1E7A36B43F0E3
:103790000063A363BFE763680493A3680593E368CA
:1037A000CDE9063563690893A36909930AAB13E968
:1037B00007008DE8070004AB0ECB384600F0B0F9E7
:1037C0003546B1E7FF05400090F83D30012B2CD184
:1037D0000223174A80F83D30036893421AD0B3F1B0
:1037E000804F17D0A2F57C42934213D002F580623D
:1037F00093420FD002F5806293420BD002F57842DB
:10380000934207D002F57052934203D0A2F594324E
:10381000934204D19A6802F00702062A03D01A687C
:1038200042F001021A60002070470120704700BF7B
:1038300000000140304A0368904212D0B0F1804F3E
:103840000FD0A2F57C4290420BD002F580629042EC
:1038500007D002F58062904203D002F57842904290
:1038600019D14A6823F070031343234A904229D0A8
:10387000B0F1804F26D0A2F57C42904222D002F5D2
:10388000806290421ED002F5806290421AD002F50A
:103890007842904216D0194A904213D002F58062C5
:1038A00090420FD002F5806290420BD0A2F5983280
:1038B000904207D002F58062904203D002F5806208
:1038C000904203D1CA6823F4407313434A6923F03A
:1038D0008003134303608B68C3620B688362064BEB
:1038E000984203D003F58063984201D10B690363CA
:1038F00001234361704700BF0000014000400140C8
:1039000010B5044630B390F83D3003F0FF021BB908
:1039100080F83C20FDF710FE0223206884F83D303B
:10392000211DFFF787FF012384F84630002084F82B
:103930003E3084F83F3084F8403084F8413084F8D9
:10394000423084F8433084F8443084F8453084F8B9
:103950003D3010BD0120FCE710B58468114324F40C
:103960007F4441EA03232343836010BD70B590F880
:103970003C30012B04464FF0020300F091800122FD
:1039800080F83D3080F83C200068836823F47F4352
:1039900023F0770383600B68602B52D033D8402B21
:1039A00067D016D8202B0DD00AD833F0100109D0DB
:1039B000012384F83D30002384F83C30104670BD6C
:1039C000302BF5D1826822F07002134343F00703D5
:1039D00017E0502BECD14A68CE68016A056A25F0E1
:1039E00001050562836921F00A0123F0F00343EA2F
:1039F00006130A4383610262836823F0700343F075
:103A00005703836011E0B3F5805F0ED0B3F5005F1C
:103A10000DD0702BCCD1CB68D1E90121FFF79CFFF1
:103A20002268936843F0770393600022C0E7CB6875
:103A3000D1E90121FFF790FF2268936843F48043A6
:103A4000F2E74D68CE68016A21F0100101628269D7
:103A5000036A22F4704223F0A00343EA051342EA0A
:103A6000063282610362836823F0700343F06703C8
:103A7000C7E74A68CE68016A056A25F00105056254
:103A8000836921F00A0123F0F00343EA06130A4395
:103A900083610262836823F0700343F04703B0E759
:103AA0001A468BE730B590F83C30012B4FF00203FB
:103AB00032D080F83D3003680D685C689A6824F065
:103AC00070042C435C60154CA3421AD0B3F1804FB4
:103AD00017D0A4F57C44A34213D004F58064A3421C
:103AE0000FD004F58064A3420BD004F57844A342C0
:103AF00007D004F57054A34203D0A4F59434A34234
:103B000004D1496822F080020A439A60012380F8B8
:103B10003D30002380F83C30184630BD00000140A5
:103B200084B010B503AC84E80E000B4604994268DB
:103B30000B4305990B4306990B4307990B430899CF
:103B4000BDE8104022F4FD420B4322F07F021343F4
:103B5000436004B000207047D0F880007047032312
:103B6000036000207047006800F0030070470B6896
:103B700010B58360D1E90134C2682343CC68096978
:103B8000234322F47F620B4322F00F021343C360EE
:103B9000002010BD1430405870470B6810B54362C8
:103BA0004B688362D1E9023423430C69C26A4969D4
:103BB00023430B4322F0F7021343C362002010BDDE
:103BC00010B5002386B0CDE90133CDE9033301A957
:103BD0004FF4806305930446FFF7C9FF0A4B4FF487
:103BE000FA521B68B3FBF2F341F288325343013BB4
:103BF00007D3626B1206FAD5C523A363002006B073
:103C000010BD4FF00040FAE700000020454B10B512
:103C10001B6804464FF4FA50B3FBF0F35A43002AF2
:103C200049D0636B13F0450F07D01B0505D4636BB8
:103C3000580704D50420A06310BD013AEFE7606B7C
:103C400010F0010002D00123A363F5E7C523A363AD
:103C50002369DBB2994231D16369334818400028A7
:103C6000EAD0002B2CDB5A002DD49C002DD4D90097
:103C70002DD41A012ED45C012FD4D90130D41A02CC
:103C800031D45C0232D4990233D4DA0234D45C03E6
:103C900035D4990336D4DA0337D41C0438D4590404
:103CA00039D49A043AD413F0080F14BF4FF400002B
:103CB0004FF48030C0E74FF00040BDE70120BBE784
:103CC0004FF00070B8E74020B6E78020B4E74FF42B
:103CD0008070B1E74FF40070AEE74FF48060ABE75F
:103CE0004FF40060A8E74FF48050A5E74FF4005070
:103CF000A2E74FF480409FE74FF400409CE74FF469
:103D0000003099E74FF4802096E74FF4002093E7C6
:103D10004FF4801090E74FF400108DE74FF48000CF
:103D20008AE700BF0000002008E0FFFD30B587B043
:103D300010254023CDE9025304464FF480630191DE
:103D4000002201A9CDE90423FFF711FF41F28832D7
:103D500029462046FFF75AFF07B030BD30B587B07F
:103D600007254023CDE9025304464FF480630192B6
:103D700001A90022CDE90423FFF7F9FE41F28832C0
:103D800029462046FFF742FF07B030BD30B587B067
:103D900037254023CDE9025304464FF48063019157
:103DA000002201A9CDE90423FFF7E1FE41F28832A8
:103DB00029462046FFF72AFF07B030BD30B587B04F
:103DC00006254023CDE9025304464FF48063019158
:103DD000002201A9CDE90423FFF7C9FE41F2883290
:103DE00029462046FFF712FF07B030BD30B500234B
:103DF00087B033254022CDE90323CDE901350446C0
:103E00004FF4806301A90593FFF7B1FE41F28832B8
:103E100029462046FFF7FAFE07B030BD114B4FF49C
:103E2000FA511B68B3FBF1F341F2883102464B4370
:103E3000013B13D3516B11F0450FF9D00905F7D4AD
:103E4000536B5B0702D5042090637047506B10F0F2
:103E5000010014BF0123C523936370474FF0004056
:103E6000704700BF0000002010B5002386B002227A
:103E7000CDE90132C022CDE9032304464FF480632B
:103E800001A90593FFF773FE2046FFF7C7FF06B0B1
:103E900010BD10B586B00922C023CDE902230191DF
:103EA0004FF480630021CDE90413044601A9FFF714
:103EB0005EFE2046FFF7B2FF06B010BD0E4B4FF47A
:103EC000FA511B68B3FBF1F341F2883102464B43D0
:103ED000013B0ED3516B11F0450FF9D00905F7D412
:103EE000506B10F0040015BF0420C523906393634A
:103EF00070474FF0004070470000002010B541F0BF
:103F0000004186B0292241F480114023CDE90223EB
:103F100001914FF480630021CDE90413044601A907
:103F2000FFF725FE2046FFF7C9FF06B010BD0000D1
:103F30001F4B10B51B6804464FF4FA50B3FBF0F367
:103F400041F288304343013B29D3606B10F0450FA9
:103F5000F9D00005F7D4636B580702D50420A0639D
:103F600010BD606B10F0010002D00123A363F7E7DE
:103F70002369DBB2994215D1C523A363636913F4A6
:103F8000604002D11B0C1380EAE75A040CD413F4EE
:103F9000004F14BF4FF480504FF48030E0E74FF0F3
:103FA0000040DDE70120DBE74FF40050D8E700BF19
:103FB0000000002030B589B0002301910325402185
:103FC000CDE90513CDE9033504464FF4806303A919
:103FD0000793FFF7CCFD019A29462046FFF7A8FF7B
:103FE00009B030BD134B4FF4FA511B68B3FBF1F32A
:103FF00041F2883102464B43013B17D3516B11F01C
:10400000450FF9D00805F7D4536B590702D50420A2
:1040100090637047506B10F0010002D0012393634E
:104020007047536B5B0603D54023F8E74FF0004021
:10403000704700BF0000002010B54FF4D57286B065
:104040000823CDE9012340210023CDE903130446D1
:104050004FF4806301A90593FFF789FD2046FFF720
:10406000C1FF06B010BD000082B00023104A0193CA
:10407000019B01330193019B934216D80369002BE6
:10408000F6DA002301930369094A43F0010303614F
:10409000019B01330193019B934206D8036913F0FE
:1040A0000103F5D1184602B070470320FBE700BFBB
:1040B000400D030084B038B505AD85E80E000A9BBD
:1040C000012B044625D1836B23F480338363C368BB
:1040D00023F4840323F04003C360C36823F4401334
:1040E000C360119B012B02BFC36843F48013C360FC
:1040F000FFF7BAFF089B012B07D1A36843F0060323
:10410000A360A36843F02003A360BDE8384004B077
:104110007047C36843F04003C360FFF7A5FF0E9BE1
:1041200023B9A36B43F48033A363E3E7A36B23F4C6
:104130008033F9E7022A4AD1274B284A0B4493429D
:1041400039D9274B274A0B44934236D9264AA1F541
:104150007403A3F51053934231D9244AA1F1837318
:10416000A3F5E74393422CD3214B224A0B449342BD
:1041700029D9214B214A0B44934226D3204B214A73
:104180000B44934223D3204AA1F1B773A3F55853AC
:1041900093421ED31D4B1E4A0B44934234BF072348
:1041A0000623C26822F47052C260C26842EA8323C6
:1041B000C360002070470F23F3E70E23F1E70D23C0
:1041C000EFE70C23EDE70B23EBE70A23E9E70923ED
:1041D000E7E70823E5E700BF405327FFFF340C0063
:1041E000401E1BFF3F420F007F4F120020D61300DE
:1041F00060B6E5FE5FE3160000D3CEFE40771B00FD
:10420000C05BB3FEC091210020753800E05459FE18
:10421000E09C4100836843F0010383600020704705
:10422000836823F0010383600020704738B5C368BA
:10423000012923F0C0430546C36010D1C36843F091
:104240000053C36000240120FDF778FA6B69D90799
:1042500004F1010415D4322CF5D1012038BD002918
:10426000FBD1C36843F08043C3600C460120FDF7D7
:1042700065FA6B69DA0704F1010402D5322CF5D135
:10428000EBE7A4F1320358425841E7E782B000233C
:10429000104A0193019B01330193019B934216D86D
:1042A0000369002BF6DA8901002341F02001094A55
:1042B00001930161019B01330193019B934206D855
:1042C000036913F02003F5D1184602B070470320AC
:1042D000FBE700BF400D030082B000230F4A0193AB
:1042E000019B01330193019B934214D80369002B76
:1042F000F6DA00230193094A10230361019B01337D
:104300000193019B934206D8036913F01003F5D182
:10431000184602B070470320FBE700BF400D0300C2
:10432000D0F800381943C0F800180020704700008A
:1043300084B02DE9F843044609A880E80E00139DD7
:1043400000230E46194603F1400204EB82020133BA
:104350000F2B5160F7D104F50067002D6CD17B68FD
:1043600043F002037B60A36B43F40013A363A36BCE
:1043700023F40023A363A36B23F48023A36300230C
:10438000C4F8003ED4F80038C4F800380E9B012B66
:104390005CD10B99002957D12046FFF7C1FF1021AE
:1043A0002046FFF773FF01462046FFF795FF0843BD
:1043B000C0B2002300383B6118BF01207B6104F5C7
:1043C0001062FB6119464FF0904C4FF0006E4FF6B3
:1043D0007F38B3423CD1002204F5306311464FF0E0
:1043E000904C4FF0006E4FF67F38B24243D13B699C
:1043F00023F480733B610023A3616FF0804363610A
:104400000C9B1BB9A36943F01003A361A269234B62
:104410001343A3610F9B1BB1A36943F00803A3617E
:10442000012D01BFA36943F0804343F00403A3615E
:10443000BDE8F84304B07047A36B23F40013A363F3
:10444000A36B43F4002399E71946A5E70321A3E7EB
:10445000D2F80090B9F1000F0BDA3BB9C2F800E0D6
:1044600011610133C2F808802032B2E7C2F800C0FF
:10447000F6E71160F4E7D3F80090B9F1000F0BDA1A
:104480003AB9C3F800E019610132C3F8088020335B
:10449000ABE7C3F800C0F6E71960F4E700383C80EA
:1044A000D0F8083813F0060004D013F0020F14BF40
:1044B00002200F20704730B50D78012405F00F035E
:1044C0009C404B7800F50062012B00EB4510D3694E
:1044D00018D11C43D461D0F800391A0410D4CA682A
:1044E000D0F80049C2F30A030A79234343EA82431E
:1044F00043EA855343F0805343F40043C0F8003946
:10450000002030BD43EA0444D461D0F8003B1B04D2
:10451000F6D4CB68D0F8002BC3F30A0313430A790F
:1045200043EA824343F0805343F40043C0F8003B26
:10453000E6E7000010B50A784978012900EB42133C
:1045400000F5006002F00F0222D1D3F80019002913
:104550000BDAD3F8001941F00061C3F80019D3F861
:10456000001941F08041C3F80019C46B012101FA20
:1045700002F224EA0204C463C16921EA0202C261B0
:10458000D3F80019144A0A40C3F80029002010BDCE
:10459000D3F8001B00290BDAD3F8001B41F00061AF
:1045A000C3F8001BD3F8001B41F08041C3F8001B87
:1045B000C46B4FF4803101FA02F224EA0204C463AE
:1045C000C16921EA0202C261D3F8001B034A0A4012
:1045D000C3F8002BDAE700BF007833EC0078F3EF84
:1045E0004B78DFF8F0C0F0B50E788D69384F012BAD
:1045F00000EB461446D104F51063BDB91D692F4088
:104600001F611D6945F400251D611D6905EA0C0542
:10461000012A1D6123D14A6902B15A61D4F80039D7
:1046200043F00443C4F800390020F0BDD3F810E093
:104630000EEA0C0CC3F810C0D3F810C00CEA070740
:104640001F61CF68AF421D6938BF8F6145F40025F7
:104650001D618D691F69C5F312053D43D8E7D4F884
:10466000003943F00443C4F800398B69002BDBD0D8
:10467000D0F8342806F00F060123B3401343C0F8E6
:104680003438D1E7D4F8100B00EA0C00C4F8100B52
:10469000D4F8100B384004F530631861C86805B1D0
:1046A00088611D69C86145F400251D611D69C0F35D
:1046B00012002843012A186102D10A6902B15A6125
:1046C000D4F8003B43F00443C4F8003BACE700BF20
:1046D000FFFF07E00000F8FF82B000234A78019353
:1046E0000B78012A4FEA43131ED100F51060C11860
:1046F000C258002A02DB002002B07047C25842F0C4
:104700000062C250C25842F08042C25042F210725F
:10471000019B01330193019B934201D90120EBE7F7
:104720000B68002BF4DBE6E700F53060C118C258D7
:10473000002AE0DAC25842F00062C250C25842F089
:104740008042C25042F21072019B01330193019BDF
:104750009342E3D80B68002BF6DBCCE710B59DF84D
:10476000084044B9033301329B0800EB023001EBEF
:1047700083038B4201D1002010BD51F8042B02604D
:10478000F7E700002DE9F3414D780F788B690E793A
:10479000DFF8BCC1DFF8BCE1012D00EB471440F0AD
:1047A0008E8004F51065D5F810806BBB08EA0C0C00
:1047B000C5F810C0D5F810C04CF4002CC5F810C0D6
:1047C000D5F810C00CEA0E0EC5F810E0012A4ED143
:1047D0004B6903B16B61012E0CD1D0F8083813F48A
:1047E000807FD4F800390CBF43F0005343F080536E
:1047F000C4F80039D4F8003943F00443C4F8003950
:10480000002002B0BDE8F08108EA0E0EC5F810E005
:10481000D5F810E00EEA0C0CD1F80CE0C5F810C089
:104820000EEB030C0CF1FF3CBCFBFEFEDFF828C1D5
:10483000D5F810800CEACE4C4CEA080CC5F810C034
:10484000D5F810E0C3F3120C4CEA0E0C012EC5F89B
:1048500010C0BBD1D5F810C02CF0C04CC5F810C0AA
:10486000D5F810C04CF0005CC5F810C0AEE7D4F825
:104870000059012E45F00445C4F800590BD0002B17
:10488000BED0D0F8343807F00F02012797401F43FD
:10489000C0F83478B4E7D0F8085815F4807FD4F81D
:1048A00000590CBF45F0005545F08055C4F800593B
:1048B000009209699BB23A46FFF750FFA0E7D4F88F
:1048C000105B05EA0E05C4F8105BD4F8105B05EA2E
:1048D0000C0504F530673D61CD681BBB3B69C5F332
:1048E00012051D433D613B6943F400233B61012AEE
:1048F00002D10B6903B17B61012E0CD1D0F80838CD
:1049000013F4807FD4F8003B0CBF43F0005343F016
:104910008053C4F8003BD4F8003B43F00443C4F890
:10492000003B6DE72B44DFF830C0D7F810E0013BC7
:10493000B3FBF5F39BB25D430CEAC34343EA0E03BA
:10494000CD613B613B69C5F312051D433D61CEE777
:10495000FFFF07E00000F8FF0000F81F034670B5F6
:104960009008002402F0030203F58055844210D31E
:1049700001EB800062B103F580531C680023D9006D
:1049800024FA01F1C154013399B28A42F7D110449B
:1049900070BD2E6841F824600134E7E74A780B784F
:1049A000012A00EB431012D1D0F80029002A06DBBF
:1049B0002BB1D0F8003923F08043C0F80039D0F88B
:1049C000003943F40013C0F8003900207047D0F8D4
:1049D000002B002A06DB2BB1D0F8003B23F08043EC
:1049E000C0F8003BD0F8003B43F40013C0F8003B94
:1049F000EBE70B784A7800EB43100B79012AA3F11F
:104A00000203DBB20FD1D0F80029012B22F40012EF
:104A1000C0F8002905D8D0F8003943F08053C0F819
:104A2000003900207047D0F8002B22F40012012B2F
:104A3000C0F8002B9EBFD0F8003B43F08053C0F875
:104A4000003BEEE7D0F8003823F4FE63C0F80038EE
:104A5000D0F80038090101F4FE611943C0F80018CC
:104A600000207047D0F8003E23F00303C0F8003E5A
:104A7000D0F8043823F00203C0F80438002070474F
:104A8000D0F8003E23F00303C0F8003ED0F804380D
:104A900043F00203C0F8043800207047426980697F
:104AA00010407047D0F8183800F50060C069184011
:104AB000000C7047D0F8183800F50060C069184045
:104AC00080B2704700EB411100F50060D1F8082B6F
:104AD00040691040704710B5D0F81048D0F834380D
:104AE00000EB411001F00F01CB4000F51060DB013D
:104AF0008068DBB22343184010BD406900F001001C
:104B00007047D0F8003923F4FF6323F00703C0F89F
:104B10000039D0F8043843F48073C0F8043800201A
:104B20007047000030B5056C104CA54200F53063AD
:104B300003D9D0F8004B002C16DB00241C611C6943
:104B400044F400241C611C6944F018041C611C69B5
:104B5000012944F0C0441C6101BF5A61D0F8003BF8
:104B600043F08023C0F8003B002030BD0A30544F92
:104B7000D0F8D43200EB830010B5D0F8C04284B135
:104B8000D0F8C4325BB194F80002FF2807D09B68CC
:104B900094F8012221469847FF2384F80032002030
:104BA00000E0032010BD00000A2303800048704786
:104BB0008800002070B5822106460F4800F094FB63
:104BC000012105460C4800F08FFB812104460A486C
:104BD00000F08AFB0DB11022AA711CB14022227193
:104BE0000022627118B140220271002242714323F7
:104BF0000148338070BD00BF44000020FFF7DABFDA
:104C000070B5822106460F4800F06EFB0121054673
:104C10000C4800F069FB812104460A4800F064FB5F
:104C20000DB11022AA711CB1002222710222627100
:104C300018B10022027102224271432301483380DD
:104C400070BD00BF4400002038B5D0F8D432B03376
:104C5000044650F823508DB100F0B5FFC5F80C02A2
:104C6000D4F8D40204EB800405F50371D4F8C432FF
:104C7000D5F80402DB689847002038BD0320FCE724
:104C8000F8B5D0F8D46200EB86060A46D6F8C052D2
:104C900045B301F00F0C142707FB0C07BC6994B156
:104CA000D0F8C8324FF0240E0EFB0C339B6CB4FBD3
:104CB000F3FC03FB1C4434B9BC612346224600F0DC
:104CC000CEFF20460DE0D6F8C4321C690027C5F897
:104CD0001472002CF5D0D5F8080205F50471A04730
:104CE0003846F8BD0320FCE7D0F8D4322DE9F34173
:104CF00000EB83034FF00008D3F8C0728DF80580F5
:104D000005460E46ADF80680002F6ED00A7812F0E8
:104D100060042ED0202C64D1CC8891F801C00CB353
:104D2000120613D5D3F8C432224639469B68604632
:104D30009847F288072A28BF07223946284600F0FC
:104D400046FD4446204602B0BDE8F081402C28BF15
:104D5000402487F800C287F801422246394600F015
:104D60004BFDEEE7D3F8C43222469B686046984775
:104D7000E8E74F780B2F34D801A353F827F000BF92
:104D8000B14D0008454D0008E34D0008E34D000813
:104D9000E34D0008E34D0008E34D0008E34D000833
:104DA000E34D0008E34D0008C74D0008DB4D000847
:104DB00090F89C32032B14D102220DF1060100F071
:104DC00006FD3C46BEE790F89C32032B09D1012238
:104DD0000DF1050100F0FBFCB4E790F89C32032BC9
:104DE000B0D03146284600F0CBFC0324AAE700BF30
:104DF00038B504460025812100F00DFF01212587EB
:104E0000204600F008FFA4F878518221204600F0E7
:104E100002FFD4F8D432E56404EB8303D3F8C02254
:104E20008AB1D3F8C4325B689847D4F8D432B0332F
:104E300054F8230000F0D0FED4F8D432B03344F854
:104E40002350C4F8BC52002038BD70B504464FF45E
:104E5000077000F0BDFE054630B9D4F8D432B03347
:104E600044F82300022547E04FF40772002100F0C8
:104E700033FFD4F8D432B03344F82350237CC4F841
:104E8000BC52002B3AD14FF40073022281212046FC
:104E9000012600F0B4FE26874FF40073314602224B
:104EA000204600F0ACFE10230322A4F87861A4F899
:104EB0004E3082210823204600F0A1FED4F8D432DF
:104EC00004EB83030026D3F8C4320121A4F84C106C
:104ED0001B68C5F804629847D5F80422C5F8146227
:104EE000C5F81862002ABDD0257C012185B94FF490
:104EF0000073204600F0BCFE284670BD402302220D
:104F000081212046012600F07AFE26874023C5E74E
:104F10004023204600F0ACFE3546EDE739B1D0F82D
:104F2000D43200EB8300C0F8C41200207047032085
:104F30007047D0F8D432B03350F823302BB1C3F8D7
:104F40000812C3F810220020704703207047D0F8E1
:104F5000D432B03350F823301BB1C3F80412002010
:104F6000704703207047D0F8D432B03310B550F8F2
:104F700023207AB1D2F8144201236CB9C2F814325A
:104F8000D2F81032C362D2F80822812100F067FE05
:104F9000204610BD0320FCE71846FAE7D0F8D422DB
:104FA000B03210B550F8222082B1047CD2F804222D
:104FB00034B94FF40073012100F05AFE204610BDB1
:104FC0004023012100F054FE0024F7E70324F5E715
:104FD00078B10023C0F8B832C0F8C432C0F8D0327B
:104FE00009B1C0F8B412012380F89C32027000F0BD
:104FF000A9BD0320704713B500230446ADF8063061
:1050000081B1CB6AC0F8B81223B10DF10600984700
:10501000C4F8D002D4F8D8320133C4F8D832002012
:1050200002B010BD0320FBE700F0E0BDD0F8B832BD
:105030000BB11B6818471846704708B5D0F8B8324E
:105040005B689847002818BF032008BD38B50446A0
:1050500000F2AA25284600F088FB012394F8AA1242
:10506000C4F89432B4F8B032C4F8983201F01F0397
:10507000012B08D0022B0CD08BB929462046BDE865
:10508000384000F04FB929462046BDE8384000F0CE
:105090009FBA29462046BDE8384000F0C8BA2046ED
:1050A00001F08001BDE8384000F0BEBD70B5044697
:1050B000164609BBD0F89432032B0CD1D0E95732F5
:1050C00093420AD99B1A9A42C0F85C3128BF1A460B
:1050D000314600F09EFB002070BD90F89C32032BFF
:1050E00006D1D0F8B8321B6913B1C0F8D412984772
:1050F000204600F096FBEEE790F89C32032BEAD1B5
:10510000D0F8B8329B69002BE5D00022BDE8704092
:10511000C0F8D422184773B504461646002941D179
:10512000D0F89422022A0FD1D0E90752954214D91F
:10513000AA1A0191C261314600F056FB019B1A4642
:105140001946204600F094FD94F8A03213B10023D4
:1051500084F8A032002002B070BD0ED18269954261
:105160000BD8D0F89852AA4207D20A46019100F013
:105170003BFB019BC4F89832E1E794F89C32032B87
:1051800008D1D4F8B832DB6823B10022C4F8D422A5
:10519000204698478021204600F046FD204600F03A
:1051A0004BFBD1E790F89C32032BD3D1D0F8B83227
:1051B0005B69002BCED00022C0F8D42202B0BDE83B
:1051C00070401847F8B5012380F89C32D0F8B83207
:1051D00000210446C0F894124160C0F8A41280F87F
:1051E000A012B3B900260022402511460127402312
:1051F000204600F004FDA4F86471C4F860512B4609
:1052000000228021204600F0FAFCA7842562304667
:10521000F8BD5B68002BE5D098470028E2D0032654
:10522000E1E701740020704790F89C32DBB280F80F
:105230009D32042380F89C320020704790F89C3205
:10524000042B02BF90F89D32DBB280F89C32002024
:10525000704708B590F89C22032A05D1D0F8B832DF
:1052600013B1DB6903B19847002008BDD0F8D42200
:10527000AE3208B550F8222042B190F89C32032B90
:1052800002D1136A23B19847002000E0032008BD33
:105290001846FCE7D0F8D422AE3208B550F82220E8
:1052A00042B190F89C32032B02D1536A23B1984744
:1052B000002000E0032008BD1846FCE700207047EE
:1052C000012208B580F89C22D0F8B8220AB9002043
:1052D00008BD5268017990470028F8D00320F7E70D
:1052E000002070470020704710B5428803789A422A
:1052F0000AD90478204423444478052C9BB2F6D183
:1053000084788C42F3D110BD0020FCE710B58021D9
:10531000044600F089FC20460021BDE8104000F062
:1053200083BC00002DE9F3410D7805F06005202DC8
:1053300004460E4614D0402D12D0002D40F00A81B4
:105340004F78092F00F20681DFE817F00B013401D6
:10535000040123010401860016000401F300A200E9
:10536000D4F8D432AE33314654F823309B6820460B
:1053700002B0BDE8F04118470023ADF806304B8875
:105380001A0A013A062A37D8DFE802F0041C293647
:1053900036515B00D0F8B4321B68207C0DF1060159
:1053A0009847F288002A00F00181BDF806301BB34F
:1053B0009A4228BF1A46ADF806200146204600F062
:1053C00006FA1CE0027CD0F8B83232B99B6A0DF1C3
:1053D0000600984702234370E3E7DB6AF7E7DBB296
:1053E000052B09D8DFE803F0030F13171B1FD0F8B4
:1053F000B4325B68002BD0D12046FFF787FF2846E8
:1054000002B0BDE8F081D0F8B4329B68F2E7D0F882
:10541000B432DB68EEE7D0F8B4321B69EAE7D0F8C3
:10542000B4325B69E6E7D0F8B4329B69E2E7037C0B
:10543000002BE1D1D0F8B8320DF106005B6B984734
:10544000AFE7037C002BD7D1D0F8B8320DF10600BE
:105450001B6B98470723BEE78B88002BCCD1CB88EA
:10546000002BC9D14E887F2EC6D890F89C32032BD2
:10547000C2D0F1B280F89E1200F0E8FB204600F0A6
:10548000D0F91EB1022384F89C32B8E70123FAE771
:105490008E784E4F012E3E7003D9FFF737FF03255C
:1054A000ADE790F89C32022B5FFA83F809D0B8F18F
:1054B000030F18D0FFF72AFF39782046FFF7BDFD0C
:1054C000EDE7002E72D001214160FFF7AFFD0546E8
:1054D000204625B1FFF71AFF84F89C828FE700F081
:1054E000A0F90323CFE75EB9022380F89C3246601F
:1054F0003146FFF7A2FD204600F093F935467EE7DE
:105500004168012952D0C9B2FFF797FD397861602F
:105510002046FFF78BFD0646002847D02046FFF7C0
:10552000F5FE21792046FFF788FD022384F89C329E
:10553000E4E7CA88012A7FF45FAF90F89C12022941
:10554000CBB205D833B10146002341F8083F35E717
:10555000032B04D02046FFF7D9FE00254FE7011D9D
:105560002CE790F89C32013B022BF3D8CB88022B1E
:105570007FF442AF0123C360D0F8A4320BB1032300
:10558000C360022204F10C01204600F020F93D46E0
:1055900035E74B88012B02D1C4F8A43206E0022B78
:1055A0007FF42AAF8B881B0A80F8A032204600F0D7
:1055B00038F924E790F89C32013B022BCAD84B887B
:1055C000012B7FF41CAF0023E6E700BF8804002016
:1055D00070B50B7803F06002402A04460E4601D0F5
:1055E0005B061FD494F89C32013B022B1AD8317908
:1055F0000129204617D8FFF773FE88B9D4F8B832CE
:105600009B686BB1C4F8D4023146204698470546E2
:10561000F3881BB915B9204600F003F9284670BD80
:105620000325F5E72046FFF771FE0025F6E770B584
:105630000B788A880E7903F06003202B04460D4610
:1056400053D0402B51D063BB4B78012B3BD0032B65
:1056500020D033BB90F89C32022BD9B261D0032901
:105660001FD106F00F0312F0800F4FF0140202FB5F
:10567000030365D09B8CA3B106F07F05013505EBD4
:10568000850500EB850516F07F0365D12B600222AE
:10569000294651E090F89C32022BDAB237D0032A27
:1056A00003D02046FFF732FE0BE04B8833B971067A
:1056B00004D0EB8813B9314600F0B6FA204600F06A
:1056C000B0F8002070BD90F89C32022BDAB21ED0E8
:1056D000032AE6D14B88002BF3D1730602D0314662
:1056E00000F0ABFA204600F09CF831462046FFF768
:1056F000F9FD0028E5D1D4F8B832C4F8D4029B688B
:10570000002BDED029462046BDE8704018477206BF
:10571000C7D0314600F088FA8021204600F084FA94
:10572000CFE77106BDD113064CBF00F1140100F59F
:10573000AA7100230B600222204600F048F8C0E75F
:10574000B3F86431002BACD006F07F05142303FBC3
:10575000050505F5AA7596E73146204600F020FAC2
:1057600008B1012392E7286091E70B7803704B782A
:1057700043704B8843808B888380CB88C38070477D
:1057800010B58021044600F04FFA20460021BDE804
:10579000104000F049BA30B588B1002401382346E2
:1057A0000134055D002DFAD1DBB201335B001380BB
:1057B0000B7003234B70022310F8012F02B930BD88
:1057C000CA545A1CD2B202338D54DBB2F4E710B57E
:1057D00002241346C0E90622C0F894420A4600217A
:1057E00000F03DFA002010BD08B513460A4600211E
:1057F00000F035FA002008BD10B503241346C0E9B7
:105800005622C0F894420A46002100F031FA0020E6
:1058100010BD08B513460A46002100F029FA002001
:1058200008BD08B504220023C0F8942219461A4680
:1058300000F015FA002008BD08B505220023C0F8C5
:10584000942219461A4600F013FA002008BD000001
:1058500008B50F490F480022FFF7BAFB08B1FBF764
:105860007DFD0D490B48FFF7C6FB08B1FBF776FD40
:105870000A490848FFF752FB08B1FBF76FFD0548DE
:10588000FFF7D2FB18B1BDE80840FBF767BD08BDC4
:10589000A80000208C0400200C00002094000020B0
:1058A00000207047002070470020704710B5054C5D
:1058B00001462046FFF74BFB2046FFF76FFB002019
:1058C00010BD00BF8C04002010B5064C0649002214
:1058D0002046FFF72EFB05492046FFF738FB002046
:1058E00010BD00BF8C040020680F00206807002056
:1058F00010B5094CD4F8BC32D3F814320A4643B977
:1059000001462046FFF715FB2046BDE81040FFF793
:105910002ABB012010BD00BF8C04002012230148C7
:105920000B807047C4000020042301480B8070479F
:10593000D8000020002370B54D1C1E46040FB0F1A6
:10594000204F34BF3034373401F8134005F813606A
:105950000133DCB2A2424FEA0010EFD870BD000064
:105960001A2310B50B800A4BD3F8100AD3F8182A63
:1059700080180AD0D3F8144A06490822FFF7DAFF44
:10598000042210312046FFF7D5FF034810BD00BFA9
:105990000070FF1FDE000020DC00002010B5044C6A
:1059A00004480A462146FFF7F6FE204610BD00BF18
:1059B00068170020EA87000810B5044C04480A461E
:1059C0002146FFF7E8FE204610BD00BF6817002003
:1059D000FD87000810B5044C04480A462146FFF72D
:1059E000DAFE204610BD00BF6817002003880008BB
:1059F00010B5044C04480A462146FFF7CCFE204669
:105A000010BD00BF681700200E88000830B504469E
:105A100089B01422002103A800F05EF92368B3F1D5
:105A2000A04F2ED1184C194800250195236B43F047
:105A300001032363236B03F0010301934FF4C0526E
:105A4000019B0223CDE9032303210A23CDE9061399
:105A500003A9FCF737FB636B43F080036363029594
:105A6000636C43F480436364636C03F48043029388
:105A700043202A462946029BFCF742F94320FCF7C3
:105A800071F909B030BD00BF00380240000002408B
:105A900000F2C441D0F80805FFF7D8BA242303FB6D
:105AA0000103D0F80805D3F88C22FFF7FFBA2423AE
:105AB00003FB0103D0F80805DA6CFFF72CBBD0F824
:105AC0000805FFF7C6BBC16810B5044621B102291D
:105AD00001D0FBF743FC0121D4F80805FFF7A1FB37
