:020000040800F2
:100000000000022071170008451600084716000876
:10001000491600084B1600084D16000800000000A5
:100020000000000000000000000000004F16000863
:10003000511600080000000053160008551600086D
:10004000C1170008C1170008C1170008C117000830
:10005000C1170008C1170008C1170008C117000820
:10006000C1170008C1170008C1170008C117000810
:1000700059160008C117000865160008C1170008C6
:10008000C1170008C117000871160008C117000841
:10009000C1170008C1170008C1170008C1170008E0
:1000A000C1170008C1170008C1170008C1170008D0
:1000B000C1170008C1170008C1170008C1170008C0
:1000C000C1170008C1170008C1170008C1170008B0
:1000D000C1170008C1170008C1170008C1170008A0
:1000E000C1170008C1170008C1170008C117000890
:1000F000C1170008C1170008C1170008C117000880
:10010000C1170008C1170008C1170008C11700086F
:10011000C1170008C1170008C1170008C11700085F
:100120007D160008C117000889160008C1170008CD
:10013000C1170008C1170008C1170008C11700083F
:10014000C1170008C1170008C1170008951600085C
:10015000A1160008C1170008C1170008C117000840
:10016000C1170008C1170008C1170008C11700080F
:10017000C1170008C1170008C117000800000000DF
:08018000C1170008C1170008B7
:1001900010B5054C237833B9044B13B10448AFF3C1
:1001A00000800123237010BDC80200200000000061
:1001B000487F000808B5034B1BB103490348AFF360
:1001C000008008BD00000000CC020020487F00082D
:1001D000034613F8012B002AFBD1181A0138704787
:1001E00001F0FF01102A2BDB10F0070F08D010F8E8
:1001F000013B013A8B422DD010F0070F42B3F6D1EC
:10020000F0B441EA012141EA014122F007047FF004
:1002100000070023F0E80256083C85EA010586EA5B
:10022000010685FA47F5A3FA87F586FA47F6A5FA97
:1002300087F68EB9EED1F0BC01F0FF0102F00702A3
:1002400032B110F8013B013A83EA010313B1F8D14E
:100250000020704701387047002D06BF354603382F
:10026000073815F0010F07D1013015F4807F02BF68
:10027000013015F4C03F0130F0BC0138704700BFB9
:1002800081F0004102E000BF83F0004330B54FEA47
:1002900041044FEA430594EA050F08BF90EA020FB4
:1002A0001FBF54EA000C55EA020C7FEA645C7FEA47
:1002B000655C00F0E2804FEA5454D4EB5555B8BF6A
:1002C0006D420CDD2C4480EA020281EA030382EADB
:1002D000000083EA010180EA020281EA0303362D6D
:1002E00088BF30BD11F0004F4FEA01314FF4801C40
:1002F0004CEA113102D0404261EB410113F0004F52
:100300004FEA03334CEA133302D0524263EB430308
:1003100094EA050F00F0A780A4F10104D5F1200EA6
:100320000DDB02FA0EFC22FA05F2801841F1000101
:1003300003FA0EF2801843FA05F359410EE0A5F1D5
:1003400020050EF1200E012A03FA0EFC28BF4CF006
:10035000020C43FA05F3C01851EBE37101F00045BC
:1003600007D54FF0000EDCF1000C7EEB00006EEBC9
:100370000101B1F5801F1BD3B1F5001F0CD3490853
:100380005FEA30004FEA3C0C04F101044FEA4452AA
:1003900012F5800F80F09A80BCF1004F08BF5FEA31
:1003A000500C50F1000041EB045141EA050130BD11
:1003B0005FEA4C0C404141EB0101013C28BFB1F523
:1003C000801FE9D291F0000F04BF01460020B1FA6E
:1003D00081F308BF2033A3F10B03B3F120020CDA41
:1003E0000C3208DD02F1140CC2F10C0201FA0CF01F
:1003F00021FA02F10CE002F11402D8BFC2F1200C84
:1004000001FA02F120FA0CFCDCBF41EA0C01904039
:10041000E41AA2BF01EB0451294330BD6FEA040482
:100420001F3C1CDA0C340EDC04F11404C4F120026D
:1004300020FA04F001FA02F340EA030021FA04F37F
:1004400045EA030130BDC4F10C04C4F1200220FAD6
:1004500002F001FA04F340EA0300294630BD21FA14
:1004600004F0294630BD94F0000F83F4801306BFDA
:1004700081F480110134013D4EE77FEA645C18BFCE
:100480007FEA655C29D094EA050F08BF90EA020F65
:1004900005D054EA000C04BF1946104630BD91EA5D
:1004A000030F1EBF0021002030BD5FEA545C05D160
:1004B0004000494128BF41F0004130BD14F580049F
:1004C0003CBF01F5801130BD01F0004545F0FE4113
:1004D00041F470014FF0000030BD7FEA645C1ABF48
:1004E000194610467FEA655C1CBF0B46024650EA7F
:1004F000013406BF52EA033591EA030F41F40021AB
:1005000030BD00BF90F0000F04BF0021704730B530
:100510004FF4806404F132044FF000054FF0000105
:1005200050E700BF90F0000F04BF0021704730B5C6
:100530004FF4806404F1320410F0004548BF40429B
:100540004FF000013EE700BF42004FEAE2014FEAF0
:1005500031014FEA02701FBF12F07F4393F07F4FCB
:1005600081F06051704732F07F4208BF704793F0CE
:100570007F4F04BF41F40021704730B54FF46074E1
:1005800001F0004521F000411CE700BF50EA0102E4
:1005900008BF704730B54FF000050AE050EA01028D
:1005A00008BF704730B511F0004502D5404261EBFD
:1005B00041014FF4806404F132045FEA915C3FF43E
:1005C000D8AE4FF003025FEADC0C18BF03325FEADB
:1005D000DC0C18BF033202EBDC02C2F1200300FA8C
:1005E00003FC20FA02F001FA03FE40EA0E0021FAB1
:1005F00002F11444BDE600BF70B54FF0FF0C4CF49F
:10060000E06C1CEA11541DBF1CEA135594EA0C0F50
:1006100095EA0C0F00F0DEF82C4481EA030621EA8B
:100620004C5123EA4C5350EA013518BF52EA0335C6
:1006300041F4801143F4801338D0A0FB02CE4FF078
:100640000005E1FB02E506F00042E0FB03E54FF0A8
:100650000006E1FB03569CF0000F18BF4EF0010EA0
:10066000A4F1FF04B6F5007F64F5407404D25FEA9C
:100670004E0E6D4146EB060642EAC62141EA55514F
:100680004FEAC52040EA5E504FEACE2EB4F1FD0C91
:1006900088BFBCF5E06F1ED8BEF1004F08BF5FEA0F
:1006A000500E50F1000041EB045170BD06F00046C1
:1006B00046EA010140EA020081EA0301B4EB5C046E
:1006C000C2BFD4EB0C0541EA045170BD41F4801166
:1006D0004FF0000E013C00F3AB8014F1360FDEBF8B
:1006E000002001F0004170BDC4F10004203C35DA67
:1006F0000C341BDC04F11404C4F1200500FA05F3EA
:1007000020FA04F001FA05F240EA020001F000428A
:1007100021F0004110EBD37021FA04F642EB060100
:100720005EEA430E08BF20EAD37070BDC4F10C042A
:10073000C4F1200500FA04F320FA05F001FA04F2EE
:1007400040EA020001F0004110EBD37041F10001DA
:100750005EEA430E08BF20EAD37070BDC4F12005E5
:1007600000FA05F24EEA020E20FA04F301FA05F24D
:1007700043EA020321FA04F001F0004121FA04F2F5
:1007800020EA020000EBD3705EEA430E08BF20EAC5
:10079000D37070BD94F0000F0FD101F000464000FF
:1007A00041EB010111F4801F08BF013CF7D041EA81
:1007B000060195F0000F18BF704703F00046520085
:1007C00043EB030313F4801F08BF013DF7D043EA56
:1007D0000603704794EA0C0F0CEA135518BF95EA0C
:1007E0000C0F0CD050EA410618BF52EA4306D1D193
:1007F00081EA030101F000414FF0000070BD50EAB2
:10080000410606BF1046194652EA430619D094EA3B
:100810000C0F02D150EA013613D195EA0C0F05D125
:1008200052EA03361CBF104619460AD181EA030179
:1008300001F0004141F0FE4141F470014FF0000031
:1008400070BD41F0FE4141F4780170BD70B54FF0CC
:10085000FF0C4CF4E06C1CEA11541DBF1CEA13554C
:1008600094EA0C0F95EA0C0F00F0A7F8A4EB05042E
:1008700081EA030E52EA03354FEA013100F0888025
:100880004FEA03334FF0805545EA131343EA1263EE
:100890004FEA022245EA111545EA10654FEA0026A3
:1008A0000EF000419D4208BF964244F1FD0404F55C
:1008B000407402D25B084FEA3202B61A65EB0305B8
:1008C0005B084FEA32024FF480104FF4002CB6EB75
:1008D000020E75EB030E22BFB61A754640EA0C00F5
:1008E0005B084FEA3202B6EB020E75EB030E22BF35
:1008F000B61A754640EA5C005B084FEA3202B6EB76
:10090000020E75EB030E22BFB61A754640EA9C0034
:100910005B084FEA3202B6EB020E75EB030E22BF04
:10092000B61A754640EADC0055EA060E18D04FEAC2
:10093000051545EA16754FEA06164FEAC30343EA62
:1009400052734FEAC2025FEA1C1CC0D111F4801F2F
:100950000BD141EA00014FF000004FF0004CB6E728
:1009600011F4801F04BF01430020B4F1FD0C88BFC7
:10097000BCF5E06F3FF6AFAEB5EB030C04BFB6EBD2
:10098000020C5FEA500C50F1000041EB045170BDC5
:100990000EF0004E4EEA113114EB5C04C2BFD4EBF2
:1009A0000C0541EA045170BD41F480114FF0000E76
:1009B000013C90E645EA060E8DE60CEA135594EAF2
:1009C0000C0F08BF95EA0C0F3FF43BAF94EA0C0FF5
:1009D0000AD150EA01347FF434AF95EA0C0F7FF46A
:1009E00025AF104619462CE795EA0C0F06D152EABE
:1009F00003353FF4FDAE1046194622E750EA4106A2
:100A000018BF52EA43067FF4C5AE50EA41047FF4B2
:100A10000DAF52EA43057FF4EBAE12E74FF0FF3C17
:100A200006E000BF4FF0010C02E000BF4FF0010CE8
:100A30004DF804CD4FEA410C7FEA6C5C4FEA430C61
:100A400018BF7FEA6C5C1BD001B050EA410C0CBFB0
:100A500052EA430C91EA030F02BF90EA020F002012
:100A6000704710F1000F91EA030F58BF994208BF79
:100A700090422CBFD8176FEAE37040F00100704736
:100A80004FEA410C7FEA6C5C02D150EA013C07D18D
:100A90004FEA430C7FEA6C5CD6D152EA033CD3D0D8
:100AA0005DF8040B704700BF8446104662468C46D2
:100AB0001946634600E000BF01B5FFF7B7FF002805
:100AC00048BF10F1000F01BD4DF808EDFFF7F4FF2E
:100AD0000CBF012000205DF808FB00BF4DF808EDB9
:100AE000FFF7EAFF34BF012000205DF808FB00BFDC
:100AF0004DF808EDFFF7E0FF94BF012000205DF8FE
:100B000008FB00BF4DF808EDFFF7CEFF94BF0120B2
:100B100000205DF808FB00BF4DF808EDFFF7C4FFAB
:100B200034BF012000205DF808FB00BF4FEA410CF4
:100B30007FEA6C5C02D150EA013C0AD14FEA430CD7
:100B40007FEA6C5C02D152EA033C02D14FF0000014
:100B500070474FF0010070474FEA410212F5001252
:100B600015D211D56FF47873B3EB625212D94FEAF4
:100B7000C12343F0004343EA505311F0004F23FADE
:100B800002F018BF404270474FF00000704750EA33
:100B9000013005D111F0004008BF6FF000407047F0
:100BA0004FF00000704700BF53B94AB9002908BF91
:100BB00000281CBF4FF0FF314FF0FF3000F074B938
:100BC000ADF1080C6DE904CE00F006F8DDF804E0A4
:100BD000DDE9022304B070472DE9F047089D044683
:100BE0008E46002B4DD18A42944669D9B2FA82F2E0
:100BF00052B101FA02F3C2F1200120FA01F10CFA1C
:100C000002FC41EA030E94404FEA1C48210CBEFB53
:100C1000F8F61FFA8CF708FB16E341EA034306FBDC
:100C200007F199420AD91CEB030306F1FF3080F06B
:100C30001F81994240F21C81023E63445B1AA4B2B8
:100C4000B3FBF8F008FB103344EA034400FB07F75A
:100C5000A7420AD91CEB040400F1FF3380F00A819B
:100C6000A74240F207816444023840EA0640E41B90
:100C700000261DB1D4400023C5E900433146BDE83C
:100C8000F0878B4209D9002D00F0EF800026C5E9DE
:100C9000000130463146BDE8F087B3FA83F6002EF6
:100CA0004AD18B4202D3824200F2F980841A61EB6E
:100CB000030301209E46002DE0D0C5E9004EDDE78C
:100CC00002B9FFDEB2FA82F2002A40F09280A1EB74
:100CD0000C014FEA1C471FFA8CFE0126200CB1FBC9
:100CE000F7F307FB131140EA01410EFB03F08842C2
:100CF00008D91CEB010103F1FF3802D2884200F24F
:100D0000CB804346091AA4B2B1FBF7F007FB1011E0
:100D100044EA01440EFB00FEA64508D91CEB04047E
:100D200000F1FF3102D2A64500F2BB800846A4EBD9
:100D30000E0440EA03409CE7C6F12007B34022FAC4
:100D400007FC4CEA030C20FA07F401FA06F31C43F3
:100D5000F9404FEA1C4900FA06F3B1FBF9F8200C00
:100D60001FFA8CFE09FB181140EA014108FB0EF046
:100D7000884202FA06F20BD91CEB010108F1FF3A96
:100D800080F08880884240F28580A8F102086144A2
:100D9000091AA4B2B1FBF9F009FB101144EA0141B0
:100DA00000FB0EFE8E4508D91CEB010100F1FF345B
:100DB0006CD28E456AD90238614440EA0840A0FBF3
:100DC0000294A1EB0E01A142C846A64656D353D0C9
:100DD0005DB1B3EB080261EB0E0101FA07F722FAED
:100DE00006F3F1401F43C5E9007100263146BDE816
:100DF000F087C2F12003D8400CFA02FC21FA03F379
:100E0000914001434FEA1C471FFA8CFEB3FBF7F0F9
:100E100007FB10360B0C43EA064300FB0EF69E421E
:100E200004FA02F408D91CEB030300F1FF382FD2B7
:100E30009E422DD9023863449B1B89B2B3FBF7F65F
:100E400007FB163341EA034106FB0EF38B4208D938
:100E50001CEB010106F1FF3816D28B4214D9023E79
:100E60006144C91A46EA004638E72E46284605E797
:100E70000646E3E61846F8E64B45A9D2B9EB020868
:100E800064EB0C0E0138A3E74646EAE7204694E7F8
:100E90004046D1E7D0467BE7023B614432E730462B
:100EA00009E76444023842E7704700BF10B594B0C8
:100EB000102200210AA804F011FB1422002103A82B
:100EC00004F00CFB204B002101911A6C42F080527F
:100ED0001A641B6C03F080530193019B1B4B02911E
:100EE0001A6842F480421A601B6803F4804302933C
:100EF000029B01214FF480330224CDE908134FF403
:100F000080030420CDE90E43A823CDE91003072375
:100F100008A81294139301F0A7FF08B172B6FEE778
:100F20000F23CDE9033405904FF4A0524FF48053C2
:100F3000052103A8CDE9062302F074F908B172B6C1
:100F4000FEE714B010BD00BF003802400070004042
:100F50002DE980481427ABB00024B14D00F056FCB9
:100F6000FFF7A4FF3A46002125A804F0B7FA1D9424
:100F70002B6BAC4843F080032B632B6B03F0800397
:100F80001D931D9B1E942B6B43F004032B632B6B53
:100F900003F004031E931E9B1F942B6B43F001036D
:100FA0002B632B6B03F001031F931F9B20942B6B70
:100FB00043F010032B632B6B03F010032093209B53
:100FC00021942B6B43F002032B632B6B03F0020382
:100FD0002193219B22942B6B43F008032B632B6BF3
:100FE00003F00803224622931021229B01F0D8F936
:100FF00022468D484FF4024101F0D2F922468B4837
:101000004FF4006101F0CCF9012686484FF010083A
:1010100025A9CDE92744CDE9258601F0E7F84FF46D
:101020000243814825A9CDE92536CDE9274401F0C1
:10103000DDF84FF400637D4825A9CDE92536CDE9DB
:10104000274401F0D3F81B942B6B43F480032B63EC
:101050002B6B03F480031B931B9B1C942B6B43F49F
:1010600000132B632B6B724D03F4001322462146B1
:101070001C930C201C9B00F0D7FE0C2000F006FFF8
:10108000224621460E2000F0CFFE0E2000F0FEFE8C
:1010900022462146382000F0C7FE382000F0F6FE38
:1010A000224621463A2000F0BFFE3A2000F0EEFE34
:1010B00022462146442000F0B7FE442000F0E6FE20
:1010C00003F0DEFF2146424625A804F007FADFF8C8
:1010D0007CC1AC604FF48033C5E900C385F8204083
:1010E0004FF000634FF0805EEC6028460524C5E9B0
:1010F0000A3E2E612E76EC6185F830606E6100F05C
:10110000C5FB08B172B6FEE7279025A92846CDE9B0
:10111000256600F0E3FD08B172B6FEE70B26022358
:1011200025A92846CDE9256300F0D8FD08B172B69F
:10113000FEE70C200323CDE9250325A9284600F06E
:10114000CDFD08B172B6FEE7042325A92846CDF8E7
:101150009480269300F0C2FD08B172B6FEE7112319
:10116000284625A9CDE9253400F0B8FD054608B18B
:1011700072B6FEE70146424625A804F0AFF92D4CB1
:101180002D4BA560C4E9003720460923CDE923553E
:10119000C4E90335A56102F0FFF908B172B6FEE7B4
:1011A0004FF4805325A92046259302F02BFA08B16D
:1011B00072B6FEE72023CDE9233023A9204602F0B2
:1011C000BDFA034608B172B6FEE71C481C498362AB
:1011D0004FF48272C0E900124FF40072C0E902338A
:1011E000C0E90433C0E90623C0E908330A23C36217
:1011F00002F0DAF808B172B6FEE71248124A4FF46C
:10120000E133C0E9002300230C22C0E90233C0E926
:1012100005230361C36102F02DFBC8B172B6FEE77E
:10122000003802400000024000100240000C024062
:101230000C0300208C050020000400403405002031
:1012400000300140D405002000480040002001404B
:1012500029492A482A4C284D2A4E102200F0BCFB6E
:10126000294802F0FDF82368012B42D1AB8817937F
:10127000EB880F932B8910936B891193AB89129391
:10128000EB8913932B8A14936B8A29886A881593A8
:10129000AB8AEF8AB5F81880B5F81A90B5F81CA09B
:1012A000B5F81EB019911892169300F0D5FA169B56
:1012B0000793159B0693149B0593139B0493129B12
:1012C0000393119B0293109B01930F9B1999009319
:1012D000CDE90CB0DDE917323046CDE90A9ACDE907
:1012E000087804F06DFD00F0B7FA0146074804F0F5
:1012F00067FD00232360B6E7E40200200C03002012
:1013000008030020607F00088C050020C97F0008CA
:1013100008B50268054B9A4207D105484FF40071A1
:1013200001F043F8034B01221A6008BD0020014080
:10133000001002400803002072B6FEE782B00C4B9A
:10134000002100915A6C42F480425A645A6C02F4B3
:1013500080420092009A01911A6C42F080521A6405
:101360001B6C03F080530193019B02B0704700BFD8
:101370000038024070B5064688B01422002103A848
:1013800004F0ACF832682D4B9A4254D103F58C33FB
:10139000002500955A6C2A4842F480725A645A6CAF
:1013A00002F480720092009A01951A6B42F00402D6
:1013B0001A631A6B02F004020192019A02951A6BE9
:1013C00042F001021A631B6B03F001030293032432
:1013D000029B03A90623CDE9033400F007FF022393
:1013E0001848059503A9CDE9033400F0FFFE164C1B
:1013F000164B4FF48062C4E900354FF40063C4E932
:1014000004234FF400514FF480732046C4E9025581
:10141000C4E90613C4E9085500F070FD08B1FFF7F0
:101420008BFF0022B46312201146A66300F0FCFC7F
:10143000122000F02BFD08B070BD00BF002001405D
:1014400000080240000002405403002010640240E3
:1014500070B5064688B01422002103A804F03EF8B7
:1014600032682D4B9A4255D1002503F584330195FE
:101470005A6C2A4C42F480525A645A6C02F48052DC
:101480000192019A02951A6B42F002021A631B6BD9
:1014900003F002030293029B38210223CDE90313D8
:1014A00003200523CDE9060303A91D4800F09EFE95
:1014B000DFF878C04FF0C063C4E900C34023C4E93B
:1014C000023520464FF48063C4E90435C4E906556B
:1014D000C4E9085500F012FD08B1FFF72DFF114ACD
:1014E000B464A663104C4FF0C063C4E900232046E7
:1014F00000234FF48062C4E90233C4E90423C4E941
:101500000633C4E9083300F0F9FC08B1FFF714FF13
:10151000F464A66308B070BD0030014014040020DC
:101520000004024040640240B4030020886402408A
:101530000268094B9A4282B00BD100230193074BFA
:101540001A6C42F002021A641B6C03F0020301934E
:10155000019B02B0704700BF000400400038024009
:1015600070B5064688B01422002103A803F0B6FF28
:1015700032682E4B9A4256D1002503F5F833019577
:101580001A6C42F480221A641A6C02F480220192CE
:10159000019A02951A6B42F002021A631B6B03F068
:1015A00002030293029B4FF440600223CDE9030340
:1015B000032407231E4803A9CDE9064300F016FEC5
:1015C0001C4CDFF87CC04FF00063C4E900C3204628
:1015D0004FF48063C4E90255C4E90435C4E90655F3
:1015E000C4E9085500F08AFC08B1FFF7A5FE124ACD
:1015F000B463A663114C4FF00063C4E9002340219B
:1016000000234FF480622046C4E90213C4E9042396
:10161000C4E90633C4E9083300F070FC08B1FFF7F1
:101620008BFE7463A66308B070BD00BF0048004025
:10163000000402407404002058600240D4040020DA
:1016400028600240FEE7FEE7FEE7FEE7FEE77047A0
:101650007047704700F0F4B8014800F009BD00BFC2
:1016600074040020014800F003BD00BFD404002032
:10167000014800F063BA00BF0C030020014800F0ED
:10168000F7BC00BF54030020014800F0F1BC00BFCC
:10169000B4030020014801F07BB800BF001B00200C
:1016A000014800F0E5BC00BF140400200120704791
:1016B00008B503F0E9FE162303604FF0FF3008BDC4
:1016C00008B503F0E1FE16230360FEE770B50D4692
:1016D00014460E46731B9C4201DC204670BDAFF3DE
:1016E000008006F8010BF5E770B50D4614460E466E
:1016F000731B9C4201DC204670BD16F8010BAFF352
:101700000080F5E74FF0FF3070474FF400534B6017
:101710000020704701207047002070470B4A116875
:1017200010B5034609B90A491160106809490A4C05
:101730000344091B8B4206D903F0A6FE0C23036069
:101740004FF0FF3010BD1360FCE700BF180600200B
:10175000402200200000022000040000034AD2F8CA
:10176000883043F47003C2F88830704700ED00E021
:10177000DFF834D00D480E490E4A002302E0D45859
:10178000C4500433C4188C42F9D30B4A0B4C0023C9
:1017900001E013600432A242FBD3FFF7DFFF03F046
:1017A00079FEFFF7D5FB7047000002200000002003
:1017B000C802002014840008C80200203C22002037
:1017C000FEE7000038B50E4A0E4B054618784FF478
:1017D0007A73B3FBF0F31068B0FBF3F000F064FB36
:1017E000044658B90F2D09D8024629464FF0FF305C
:1017F00000F01AFB044B20461D6038BD0120FCE7B9
:1018000000000020040000200800002008B50B4B59
:101810001A6842F400721A601A6842F480621A6010
:101820001A6842F480721A60032000F0EBFA0F206D
:10183000FFF7C8FFFFF782FD002008BD003C024013
:10184000034A044B11681B780B441360704700BFB8
:101850001C06002004000020014B1868704700BFE0
:101860001C06002038B50446FFF7F6FF631C1CBFBA
:10187000054B1B78054618BFE418FFF7EDFF431B27
:10188000A342FAD338BD00BF0400002038B5044697
:10189000002800F09B80056C25B9FFF76BFD65649F
:1018A00084F83C50236CDB0600F18E80236C23F41B
:1018B000885323F0020343F002032364444B5A6825
:1018C00022F440325A605A6861680A435A602368B9
:1018D00021695A6822F480725A605A6842EA0122E9
:1018E0005A605A68A16822F040725A605A680A43E6
:1018F0005A609A68E16822F400629A609A680A4322
:101900009A603449A26A8A4252D0996821F0706183
:10191000996099680A439A609A68E16A22F0405295
:101920009A609A680A439A609A6822F002029A6062
:101930009A68217E42EA41029A6094F82020002AA7
:101940003ED05A68616A42F400625A605A6822F4D2
:1019500060425A605A68013942EA41325A60DA6A92
:10196000E16922F47002DA62DA6A013942EA01526C
:10197000DA629A6822F400729A609A6894F83010D9
:1019800042EA41229A609A68616922F480629A6010
:101990009A68002042EA81229A606064236C23F0F6
:1019A000030343F001032364002384F83C3038BD73
:1019B0009A6822F070629A609A6822F04052B2E708
:1019C0005A6822F40062C9E70120EDE70120EEE742
:1019D000002301400100000F73B51346002201925D
:1019E00090F83C20012A054600F08C800122066810
:1019F00080F83C20B268D40754D5B268D00564D4CE
:101A0000B46814F0010474D0286C20F4E06020F075
:101A1000010040F4807028647268520541BF286C50
:101A200020F4405040F4805028642A6CA86B12F4D3
:101A300080521CBF6A6C22F006026A640024334A9A
:101A400085F83C40C263324A0264324AC2646FF095
:101A500022023260726842F080627260B26842F4C0
:101A60008072B2600A4606F14C0100F0C7FA2A4AB9
:101A70002B685068294910F01F0032D18B4207D0E3
:101A800001F580718B4225D1526812F01F0F07D1EA
:101A9000986810F0405037D19A6842F080429A60BE
:101AA00002B070BDB26842F00102B2601C4A106818
:101AB0001C4AB0FBF2F000EB40000190019A002AB2
:101AC0009BD0019A013A0192F8E7B26822F4807241
:101AD000B26095E714498B42E2D1526812F0100FC0
:101AE000D5E78B4210D1986810F04050D4D02046F2
:101AF000D6E72B6C43F010032B646B6C43F00103AF
:101B00006B64F4E70220CBE70020C9E76F1C0008F4
:101B10002F1B0008591C0008002301400020014031
:101B20000000002040420F0000220140704708B52D
:101B3000806BFFF7FBFF08BD70477047036870B507
:101B40001E685D68B20704462BD5A80629D5226C0D
:101B5000D1065EBF226C42F4007222649A6812F0D1
:101B6000405F17D1227EAAB9DA6A12F4700F02D050
:101B70009A6852050ED45A6822F020025A60236CEB
:101B800023F480732364236CD8045EBF236C43F07A
:101B9000010323642046FFF7BBFB23686FF01202AA
:101BA0001A60710733D52A0631D5236CDB065EBF78
:101BB000236C43F40053236423689A6812F4401F93
:101BC0001ED19A6B12F4401F02D09A68500517D4A8
:101BD0005A68510514D49A6812F0405F10D1227EE1
:101BE00072B95A6822F080025A60236C23F4805341
:101BF0002364236CDA055EBF236C43F00103236486
:101C0000204600F0FDF823686FF00C021A60F3071D
:101C100010D568060ED523681B68D9070AD5236C32
:101C200043F4803323642046FFF786FF23686FF078
:101C300001021A60B2060ED56B010CD5636C43F03D
:101C40000203636423686FF020051D602046FFF7E0
:101C500074FF23681D6070BD806B08B5402303646A
:101C6000436C43F004034364FFF767FF08BD836BD5
:101C70001A6C12F0500F10B51A6C23D142F4007296
:101C80001A641A68916811F0405F17D1197EA9B9DA
:101C9000D16A11F4700F02D0916848050ED45168D2
:101CA00021F0200151601A6C22F480721A641A6CBF
:101CB000D1045EBF1A6C42F001021A641846FFF7A5
:101CC00027FB10BDD20603D51846FFF736FFF8E70D
:101CD0009B6BBDE81040DB6C18470000F7B5002394
:101CE000019390F83C30012B66D0012380F83C3002
:101CF0000D6803688E68092DACB231D904EB44023B
:101D0000DF681E3A4FF0070C0CFA02FC27EA0C07BA
:101D1000DF60DF6806FA02F23A43DA6049680629B2
:101D200001EB81022CD8596B053A1F26964021EA17
:101D300006015963596B04FA02F20A435A632C4AAA
:101D4000934207D1122D39D1D2F8043343F48003E2
:101D5000C2F80433002380F83C30184603B0F0BDCD
:101D60001F6905EB45024FF0070C0CFA02FC27EA4D
:101D70000C071F611F6906FA02F23A431A61CDE7A8
:101D80000C294FF01F010BD81E6B233A914026EA15
:101D900001011963196B04FA02F20A431A63CEE7D0
:101DA000DE6A413A914026EA0101D962D96A04FA11
:101DB00002F20A43DA62C2E70220CFE7A5F110037C
:101DC000012BC7D80B4A5368102D43F4000353600E
:101DD000C0D1094B094A1B68B3FBF2F30A225343F3
:101DE0000193019B002BB5D0019B013BF8E700BF9D
:101DF00000200140002301400000002040420F006D
:101E0000704700000749CA6822F4E0620302120426
:101E100003F4E063120C134343F0BF6343F4003355
:101E2000CB60704700ED00E0164B30B5DC68C4F3C2
:101E30000224C4F10705231D042D28BF0425062B09
:101E40004FF0FF338CBF033C002403FA05F521EA71
:101E50000501A34022EA0302A140002841EA02034F
:101E6000ACBF00F16040084A4FEA0313B8BF00F06E
:101E70000F00DBB2AABF00F56140135480F80033B5
:101E800030BD00BF00ED00E014ED00E0002808DBED
:101E90004209012300F01F0003FA00F0014B43F850
:101EA0002200704700E100E00138B0F1807F0BD2E2
:101EB0004FF0E023054A5861F02182F823100020FA
:101EC000072298611A6170470120704700ED00E019
:101ED000036810B5084C0246D9B210391820B1FB7E
:101EE000F0F0205CD06523F47F7020F003005F29C0
:101EF00088BF0430906510BDEA7F000870B50446C5
:101F0000FFF7AAFC0546002C73D0022384F8353075
:101F10002268002384F83430136823F0010313602F
:101F200021680B68D8072FD40B68334DA0691D407A
:101F3000D4E901231343E26813432269134362691E
:101F40001343E26903431343226A1343626A042A78
:101F500043EA050302BFD4E90B5635432B430B601C
:101F60004B69042A23F0070343EA020333D1A26A30
:101F7000E56A13437DB390B9012A21D032F0020201
:101F800029D1EA0127D51EE0FFF766FC401B052892
:101F9000C6D920236365032084F8350070BDB0F5F1
:101FA000005F14D1032A16D801A050F822F000BF18
:101FB000C71F0008831F0008C71F0008C11F0008B3
:101FC000B5F1C07F07D1402363650120E4E7022A11
:101FD000F9D9032AD5D04B612046FFF779FFE26D8E
:101FE0003F239340836000200123606584F83530EF
:101FF000D4E70120D2E700BF3F8010F070B590F821
:102000003440866D012C31D0012480F8344090F8A2
:102010003540012C4FF000054FF0020424D180F828
:10202000354004684565256825F480252560636092
:102030008368402B0EBFA260A160E260C26D08BF42
:10204000E1603F239340B360236843F016032360AD
:10205000036C1BB1236843F008032360236843F03B
:1020600001032360002070BD80F834500220FAE79D
:10207000F7B5002301935C4B856D1F68C36D2E6817
:1020800008229A40324204460CD001680868400792
:1020900008D5086820F004000860AA60626D42F06C
:1020A0000102626501229A40324208D021684969E2
:1020B000090641BFAA60626D42F002026265042215
:1020C0009A40324208D021680968880741BFAA6057
:1020D000626D42F00402626510229A40324210D0D2
:1020E0002368196809070CD5AA601A68500337D508
:1020F0001B68190301D4236C00E0A36C0BB12046CC
:102100009847E16D20228A4032423AD0236818680D
:10211000C60636D5AA6094F83520052A1A6827D154
:1021200022F016021A605A6922F080025A61226C6B
:102130000AB9A26C1AB11A6822F008021A603F2389
:102140008B40AB60012384F83530002384F83430B1
:10215000236D002B45D0204603B0BDE8F040184762
:102160001A68D2055EBF1A6822F008021A60C2E738
:10217000500327D51B68190331D4636C0BB120467B
:102180009847636D6BB3636DDA0719D522684FF416
:102190001653B7FBF3F7052384F83530136823F0A3
:1021A00001031360019B0133BB42019302D8136802
:1021B000DB07F7D4012384F83530002384F834306A
:1021C000E36CC6E71A6812F4807208D1196821F02E
:1021D00010011960012384F8353084F83420E36B52
:1021E000CCE703B0F0BD00BF000000202DE9F74FA1
:1021F000DFF8A891674A00230D6801249C4004EA97
:10220000050CAC4340F0B1804D6805F003044FEA83
:1022100043080326671E06FA08F6012F6FEA060632
:1022200034D8876807EA060ECF6807FA08F747EA46
:102230000E078760476827EA0C0EC5F300179F401A
:1022400047EA0E074760C76807EA060E8F6807FA75
:1022500008F747EA0E07022CC76019D14FEAD30AE4
:1022600000EB8A0A03F0070BDAF820704FEA8B0BB9
:102270004FF00F0E0EFA0BFE27EA0E0E0F6907FA4B
:102280000BF747EA0E07CAF8207001E0032CDAD1F9
:10229000076804FA08F43E40264315F4403F066000
:1022A00063D04FF0000ACDF804A0D9F844603A4C4E
:1022B00046F48046C9F84460D9F8446006F4804684
:1022C0000196019E23F0030606F1804606F59C3632
:1022D00003F0030ED6F808804FEA8E0E0F2707FA98
:1022E0000EF7A04228EA070746D004F58064A04212
:1022F00044D004F58064A04242D004F58064A0423A
:1023000040D004F58064A0423ED004F58064A04231
:102310003CD004F58064A0423AD004F58064A04229
:102320000CBF0724082404FA0EF43C43B4609468FC
:102330006FEA0C06EF0254BF34404CEA0404946088
:10234000D468AF0254BF34404CEA0404D4605468EB
:10235000AF0354BF34404CEA040454601468ED03E6
:1023600054BF34404CEA040414600133102B7FF452
:1023700043AF03B0BDE8F08F5446D4E70124D2E761
:102380000224D0E70324CEE70424CCE70524CAE7DF
:102390000624C8E7003C014000000240003802402B
:1023A0000AB1816170470904FBE7436901EA03024E
:1023B00021EA030141EA024181617047F0B5044618
:1023C0008BB060B390F8BD34056803F0FF021BB911
:1023D00080F8BC2402F01CFF032384F8BD34EB6BAF
:1023E000254613F4807355F8100B08BF236101F0E4
:1023F0004BFB0FCD6E460FC60FCD0FC695E8030001
:1024000086E803002546271D97E80E0055F8100BB7
:1024100001F084FA064620B1022384F8BD34012578
:102420004EE00146206801F035FB3046D4F804C088
:1024300024264FF0010E0146C2B2944500F101007E
:102440001CD8002324261946D8B2844503F1010381
:1024500022D80FCD6E460FC60FCD0FC695E80300EC
:1024600086E8030097E80E00206801F095FB012341
:102470000546F0B1022284F8BD24D0E706FB0243F2
:10248000C3E9121183F83DE083F83C20A3F844200F
:1024900083F840105965CFE706FB0042C2E9A2115C
:1024A00082F87D1282F87C0282F88012C2F89412BF
:1024B000CAE784F83800206884F8BD3401F014FFBE
:1024C00028460BB0F0BD10B50446006894F8BC3443
:1024D000012B15D0012384F8BC34A36A012B06D14B
:1024E000A369012B1EBF836B43F48033836301F028
:1024F000C5FA206801F0EAFE002084F8BC0410BD93
:102500000220FCE710B590F8BC24012A04460BD049
:10251000012280F8BC2480F83810006801F0C6FE63
:10252000002084F8BC0410BD0220FCE770B501F067
:102530000F0606EBC60411F0800F05464FEA84042F
:102540004FF024001FD000FB065004F13C01012491
:10255000294480F83D40CA604A780E700B7102B180
:102560000E81022B04BF00234B7195F8BC34012B64
:1025700012D00123286885F8BC3401F0D0FB00207C
:1025800085F8BC0470BD00FB065004F51F710024E3
:10259000294480F87D42DEE70220F3E710B50446C7
:1025A00001F00F0000EBC00311F0800F4FEA83032E
:1025B0004FF0240216D002FB004203F13C0101233C
:1025C000214482F83D30087094F8BC34012B12D0BD
:1025D0000123206884F8BC3401F0E0FB002084F87B
:1025E000BC0410BD02FB004203F51F71002321440F
:1025F00082F87D32E7E70220F3E738B501F00F05F6
:10260000242404FB050104FB050401F51F71C4F833
:1026100094320023C4F88C22C4F89C3284F87D32B2
:1026200084F87C5203690068012B08BFC4F890222B
:10263000DAB21DB901F008FC002038BD01F0D6FC6B
:10264000FAE701F00F01242303FB0100D0F89C02FC
:10265000704738B501F00F05242404FB050104FB85
:1026600005043C3163650023E3650123E26484F8DB
:102670003D3084F83C5003690068012B08BF226597
:10268000DAB21DB901F0E0FB002038BD01F0AEFC6C
:10269000FAE738B5436801F00F059D4204462CD88F
:1026A00011F0800F4FF024001ED000FB054200FB0C
:1026B000054101233C3182F83D3001238B700D70C0
:1026C00094F8BC249A421AD0206884F8BC3401F0F3
:1026D00099FD2DB9217C206804F2C44201F056FE18
:1026E000002084F8BC0438BD00FB01431A4603F502
:1026F0001F71002382F87D32DFE70120F3E702201B
:10270000F1E738B5436801F00F029A4204462AD82F
:1027100002EBC20311F0800F4FEA83034FF0240055
:1027200018D000FB024003F13C010123214480F852
:102730003D3000258D700A7094F8BC34012B14D004
:102740000123206884F8BC3401F087FD84F8BC5470
:10275000284638BD00FB024003F51F7100232144C9
:1027600080F87D32E5E70120F3E70220F1E701F090
:102770000F0303EBC3030A064FEA83034CBF03F1C5
:102780003C0103F51F710144006801F0D9BB000052
:102790002DE9F04F066889B00446304601F0E1FDAE
:1027A0000390002840F05681206801F0ABFD00281E
:1027B00000F05081D6F808382068C3F30D23C4F820
:1027C000FC3401F09FFD810748BF2268206842BFAA
:1027D000536903F00203536101F094FDC20606F54C
:1027E00000652CD52268936923F010039361D6F815
:1027F0002080C8F34343022B08F00F0740F02D81DF
:1028000047F6F07318EA030F14D0242303FB07479D
:10281000C8F30A19D7F88C124A46304601F0D2FCA8
:10282000D7F88C324B44C7F88C32D7F89C324B44E3
:10283000C7F89C322268936943F0100393612068C3
:1028400001F060FD030300F11A81206801F05AFDD8
:1028500047030CD5206801F061FD2746049006F57A
:10286000106A4FF00009049B002B40F0D0812068D3
:1028700001F048FD002813DA6B6823F001036B6058
:1028800094F8F434012B40F06B82002184F8F414A6
:10289000204600F0E7FA2268536903F000435361D1
:1028A000206801F02FFD01050AD5AB68DA0702D5D3
:1028B000204602F01DFD2268536903F40063536152
:1028C000206801F01FFDC30433D56B68206823F036
:1028D00001036B60102101F00DF906F510634FF64E
:1028E0007F3162680398824200F24282EB6943F0D2
:1028F0000113EB61236B002B00F05282D5F884307A
:1029000043F00B03C5F884306B6C43F00B036B642E
:10291000D6F80038217C206823F4FE63C6F800381E
:1029200004F2C44201F032FD2268536903F480537B
:102930005361206801F0E6FC870416D5206801F099
:1029400014FD206801F0E0F9E060276800F006FD62
:10295000227B0146384601F021F8204602F0B5FC02
:102960002268536903F400535361206801F0CAFCE4
:10297000000707D5204602F0A4FC2268536903F043
:1029800008035361206801F0BDFC010600F11382C9
:10299000206801F0B7FCC2020CD5A04606F512690A
:1029A00001276368BB4200F21F822268536903F467
:1029B00080135361206801F0A5FC83022DD5D4F863
:1029C00004E0234606F5326001218E4520D993F8B4
:1029D000A4C20268BCF1010F40F01C82002A80F200
:1029E0001982D4F8FC7402F4803207F00107BA426D
:1029F00040F0108283F8A3C2B26942F08002B26153
:102A00007269170600F106826B6843F400736B600D
:102A10002268536903F400135361206801F072FCCB
:102A2000410007D5204602F087FC2268536903F075
:102A300080435361206801F065FC42070AD5236892
:102A40005D686B0702D5204602F07AFC2268536865
:102A50002B43536009B0BDE8F08F062B7FF4EAAE3C
:102A6000082204F2C441304601F0ACFB242303FBEE
:102A70000747C8F30A18D7F89C324344D8E62068C1
:102A800001F044FC06F530680490A2460027049B40
:102A9000002B3FF4DAAE049BD80776D55FFA87FBAC
:102AA0002068594601F042FC10F0010F81461CD00D
:102AB000206821690123C8F8083000F5306303EB72
:102AC00047130129D0F840C09A6840F08B80110765
:102AD00007D5A5498C4508D9100406D54FF4004206
:102AE00002E091065AD520229A6019F0080F21D0F1
:102AF0000823C8F8083023689B481A6C03F5306334
:102B000003EB47138242996804D9090444BF4FF488
:102B1000004199602046059202F0BCFB924B059A59
:102B20009A4207D92169012904D1206804F2C442DC
:102B300001F02CFC19F0100F1CBF1023C8F808304E
:102B400019F0020F14D073691B0642BF6B6843F47F
:102B500080636B609AF87F32012B06D100238AF8DC
:102B60007F325946204602F0DFFB0223C8F80830C6
:102B700019F0200F1CBF2023C8F8083019F4005F9B
:102B80001CBF4FF40053C8F80830049B5B080137A2
:102B9000049308F120080AF1240A78E712F0280FBC
:102BA000A3D171498C4501D9120497D41A69DAF876
:102BB0009832C2F312029B1ACAF89C326FB9D4F849
:102BC00094222AB904F2C442012101F0DFFB04E09F
:102BD000D4F88C221344C4F88C325946204602F0B3
:102BE0005FFB82E761498C4507D111043FF576AF61
:102BF0009006F2D520229A60EFE7002FEDD1D4F8AD
:102C00009432002BE9D104F2C4423946DDE7049B3B
:102C1000D80740F19C805FFA89FB2068594601F093
:102C20008EFB10F0010F804620D001216B6B09F064
:102C30000F0201FA02F223EA02036B630B46CAF8A1
:102C40000810216999420DD1D7E912231344FB647E
:102C5000B9F1000F06D1636D23B9206804F2C442B4
:102C600001F094FB5946204602F023FB18F0080FB0
:102C70001CBF0823CAF8083018F0100F1CBF10231F
:102C8000CAF8083018F0400F1CBF4023CAF80830BB
:102C900018F0020F12D04946304600F02BFF97F88B
:102CA0003F30012B07D14FF0000387F83F305946E2
:102CB000204602F03DFB0223CAF8083018F0800FCE
:102CC00045D0FA6D7B6D9A4241D89B1ABA6C216847
:102CD0000591934228BF134603339B08069301F5E1
:102CE000106303EB49130793079B06989969FA6DE4
:102CF0007B6D89B2814228D39A420CD3059B09F09F
:102D00000F01D3F83428012000FA01F122EA010270
:102D1000C3F834281BE0A3EB0208BB6C0598984568
:102D200028BF984608F103039B080693237C009371
:102D3000F96C1FFA88F35A4601F044F9FB6C4344DE
:102D4000FB64FB6D4344FB65CEE79A42D6D2049BFD
:102D50005B0809F10109049324370AF1200A82E58E
:102D6000204602F0DDFA96E50A30544F0A31544FFE
:102D700099601A6822F400121A60C3F80812D3F896
:102D8000002222F40012C3F80022D3F8002242F0FD
:102D90000062C3F80022039A013203922033A0E5B7
:102DA0006B6943F4005343F02B036B612B6943F0D1
:102DB0000B032B61ACE5B36923F08003B3610127FA
:102DC00004F27F284FF024096368BB427FF6E0AD30
:102DD00009FB07F318F80330012B03D1F9B22046A1
:102DE000FFF7C5FC0137EFE798F86430D9F8002009
:102DF000012B09D1002A07DA67F07F0188F86330D8
:102E0000C9B22046FFF7B3FC013708F1240809F1E5
:102E10002009C6E5013124332030D6E5006870B5BD
:102E20001204446A19B922438262002070BD836A89
:102E30004D1E04EB134400235E1CDBB29D4205D8FB
:102E40003F3100EB810022434260EEE7403300EB6C
:102E500083035B6804EB13443346EDE7036800200B
:102E600059627047704700002DE9F341044640B3B2
:102E70000368DD0710D4236898075ED423681A0717
:102E800000F1A08023685B0700F1C080A0690028E2
:102E900040F0288100202BE08F4B9A6802F00C0252
:102EA000042A07D09A6802F00C02082A0BD15A684B
:102EB000510208D5884B1B689A03DCD56368002B48
:102EC000D9D1012014E06268B2F5803F13D11A68AD
:102ED00042F480321A60FEF7BFFC7F4E054633682D
:102EE0009B03C8D4FEF7B8FC401B6428F7D9032025
:102EF00002B0BDE8F081784DB2F5A02F2B6807D164
:102F000043F480232B602B6843F480332B60E2E78B
:102F100023F480332B602B6823F480232B60002A5A
:102F2000D9D1FEF799FC06462B689F03A3D5FEF77F
:102F300093FC801B6428F7D9D9E7674B9A6812F095
:102F40000C0F07D09A6802F00C02082A11D15B68B6
:102F50005E020ED4604A13689D0702D5E368012B18
:102F6000AFD11368216923F0F80343EAC10313606A
:102F700084E7E268594BB2B101221A60FEF76CFC9B
:102F8000554D06462B68980707D52B68226923F014
:102F9000F80343EAC2032B6070E7FEF75DFC801B79
:102FA0000228EFD9A3E71A60FEF756FC4A4E054601
:102FB000336899077FF562AFFEF74EFC401B02288D
:102FC000F6D994E76269454B82B10122C3F8802E9D
:102FD000FEF742FC404E0546736F9F073FF552AF28
:102FE000FEF73AFC401B0228F6D980E7C3F8802E92
:102FF000FEF732FC384E0546736F98077FF542AFF7
:10300000FEF72AFC401B0228F6D970E7324B1A6CF7
:1030100012F0805228D101921A6C42F080521A6448
:103020001B6C03F080530193019B01272C4D2B68EF
:10303000D9051BD5A368284D012B27D12B6F43F051
:1030400001032B67FEF708FC234E054641F2883842
:10305000336F9B0739D5002F3FF418AF1E4A136C0E
:1030600023F08053136411E70027DFE72B6843F454
:1030700080732B60FEF7F0FB06462B68DA05D9D487
:10308000FEF7EAFB801B0228F7D930E7052B04D1B5
:103090002B6F43F004032B67D0E72A6F22F0010265
:1030A0002A672A6F22F004022A67002BCAD1FEF792
:1030B000D3FB41F2883806462B6F9807CBD5FEF735
:1030C000CBFB801B4045F7D911E7FEF7C5FB401B42
:1030D0004045BDD90BE700BF003802400000474221
:1030E00000700040364DAB6803F00C03082B3DD058
:1030F000344B002202281A662BD1FEF7ADFB0646A0
:103100002B6899011FD4D4E907321343626A43EA5A
:103110008213E26A43EA0263A26A5208013A43EA6E
:1031200002436B60274B264D01221A66FEF794FB83
:1031300004462B689A013FF5ADAEFEF78DFB001BF0
:103140000228F6D9D3E6FEF787FB801B0228D7D9E1
:10315000CDE6FEF781FB04462B689B017FF59AAE16
:10316000FEF77AFB001B0228F6D9C0E601283FF4DF
:10317000BFAE6B68E26903F4800191427FF4A1AEB7
:10318000216A03F03F028A427FF49BAE616A47F6F0
:10319000C0721A40B2EB811F7FF493AEA26A52084C
:1031A00003F44031013AB1EB024F7FF48AAEE26A98
:1031B00003F07063B3EB026F3FF46CAE81E600BFC7
:1031C0000038024000004742134908B58B6803F0FD
:1031D0000C03042B1CD0082B1CD14A684B6849688F
:1031E00013F4800314BF0D480D48C1F3881118BFB4
:1031F000002302F03F02A1FB0001FDF7D5FC064BC6
:103200005B68C3F3014301335B00B0FBF3F008BD1F
:103210000248FCE70248FAE70038024000127A0050
:103220000024F4002DE9F0410D46044610B90120B8
:10323000BDE8F081444B1A6802F007028A4228D3A5
:10324000226897072DD4D00741D43F4B1A6802F06B
:103250000702AA4266D8226851076CD4130707D523
:103260003A4A2169936823F4604343EAC1039360B7
:10327000FFF7AAFF354B364A9B68C3F30313D35CB1
:10328000D840344B1860344B1868FEF79BFA002086
:10329000CEE7CAB21A701B6803F007038B42C6D18F
:1032A000CEE72A4B12F0040F1EBF996841F4E0519B
:1032B0009960160742BF996841F4604199602349BB
:1032C000A0688B6823F0F00303438B60BBE7626860
:1032D0001E4B012A1CD11B6813F4003FA7D01B4EC4
:1032E000B36823F003031343B360FEF7B5FA41F26A
:1032F00088380746B368626803F00C03B3EB820FAB
:10330000A3D0FEF7A9FAC01B4045F3D903208FE7ED
:10331000911E01291B6802D813F0007FDEE713F02D
:10332000020FDBE7EAB21A701B6803F00703AB4237
:103330007FF47DAF8FE70549E0688B6823F4E053A5
:1033400003438B608AE700BF003C02400038024024
:10335000D27F00080000002008000020014B186800
:10336000704700BF00000020044B054A9B68C3F370
:103370008223D35C034A1068D8407047003802406B
:10338000E27F000800000020044B054A9B68C3F35D
:103390004233D35C034A1068D8407047003802407B
:1033A000E27F00080000002010B50446002855D038
:1033B000436A002B4ED14268B2F5827F00D0C361D0
:1033C0000023A36294F8513003F0FF0223B984F87C
:1033D00050202046FEF73CF82168A068A26902232D
:1033E00084F851300B6823F040030B60636800F4ED
:1033F000044003F482730343E06800F40060034375
:10340000206900F002000343606900F001000343FB
:1034100002F400700343E06900F038000343206ABF
:1034200000F080000343A06A00F4005003430B60E7
:10343000636A120C03F0100302F004021A434A609C
:10344000CB6923F40063CB6100200123606584F81D
:10345000513010BD0023C0E90433B1E70120F8E783
:1034600090F83D30012B2CD10223174A80F83D30D3
:10347000036893421AD0B3F1804F17D0A2F57C4273
:10348000934213D002F5806293420FD002F580621E
:1034900093420BD002F57842934207D002F5705266
:1034A000934203D0A2F59432934204D19A6802F079
:1034B0000702062A03D01A6842F001021A600020AF
:1034C00070470120704700BF00000140304A036888
:1034D000904212D0B0F1804F0FD0A2F57C429042C2
:1034E0000BD002F58062904207D002F580629042D4
:1034F00003D002F57842904219D14A6823F0700354
:103500001343234A904229D0B0F1804F26D0A2F530
:103510007C42904222D002F5806290421ED002F599
:10352000806290421AD002F57842904216D0194A31
:10353000904213D002F5806290420FD002F5806273
:1035400090420BD0A2F59832904207D002F58062EB
:10355000904203D002F58062904203D1CA6823F4FE
:10356000407313434A6923F08003134303608B685D
:10357000C3620B688362064B984203D003F58063F5
:10358000984201D10B69036301234361704700BF77
:10359000000001400040014010B5044630B390F8EF
:1035A0003D3003F0FF021BB980F83C20FDF7C0FF5F
:1035B0000223206884F83D30211DFFF787FF012397
:1035C00084F84630002084F83E3084F83F3084F898
:1035D000403084F8413084F8423084F8433084F835
:1035E000443084F8453084F83D3010BD0120FCE7BC
:1035F00010B58468114324F47F4441EA0323234334
:10360000836010BD70B590F83C30012B04464FF03C
:10361000020300F09180012280F83D3080F83C20C8
:103620000068836823F47F4323F0770383600B688B
:10363000602B52D033D8402B67D016D8202B0DD01A
:103640000AD833F0100109D0012384F83D3000235B
:1036500084F83C30104670BD302BF5D1826822F0E2
:103660007002134343F0070317E0502BECD14A6874
:10367000CE68016A056A25F001050562836921F0BB
:103680000A0123F0F00343EA06130A43836102624E
:10369000836823F0700343F05703836011E0B3F5B0
:1036A000805F0ED0B3F5005F0DD0702BCCD1CB680E
:1036B000D1E90121FFF79CFF2268936843F077036B
:1036C00093600022C0E7CB68D1E90121FFF790FFAA
:1036D0002268936843F48043F2E74D68CE68016A3C
:1036E00021F0100101628269036A22F4704223F022
:1036F000A00343EA051342EA06328261036283684B
:1037000023F0700343F06703C7E74A68CE68016A95
:10371000056A25F001050562836921F00A0123F09D
:10372000F00343EA06130A4383610262836823F0CD
:10373000700343F04703B0E71A468BE730B590F8C3
:103740003C30012B4FF0020332D080F83D3003684B
:103750000D685C689A6824F070042C435C60154C1A
:10376000A3421AD0B3F1804F17D0A4F57C44A342F2
:1037700013D004F58064A3420FD004F58064A34203
:103780000BD004F57844A34207D004F57054A3424B
:1037900003D0A4F59434A34204D1496822F08002F6
:1037A0000A439A60012380F83D30002380F83C30C2
:1037B000184630BD000001400268C168136923F457
:1037C00040530B4370B51361054683680069D168A7
:1037D000034368690343E86921F4164121F00C01B1
:1037E00003430B43D3605369A96923F440730B432C
:1037F00053611F4B9A4203D003F580639A4223D151
:10380000FFF7C2FDEB691921B3F5004FD5E900467A
:10381000A0FB01011BD1B2194FF000035B41FDF782
:10382000C3F96421B0FBF1F501FB1503DB00323372
:10383000B3FBF1F303F007025B0002EB051203F4A4
:10384000F8731344A36070BDFFF78EFDDAE7B20092
:10385000B30FFDF7A9F96422B0FBF2F102FB1103EB
:103860001B013233B3FBF2F303EB0113EAE700BFB2
:103870000010014010B5044640B390F83D3003F00D
:10388000FF021BB980F83C20FDF76AFE2268242362
:1038900084F83D30D36823F40053D3602046FFF70B
:1038A0008BFF23681A6922F490421A615A6922F048
:1038B0002A025A61DA6842F40052DA6000202023BA
:1038C000206484F83D3084F83E3010BD0120FCE7D0
:1038D00082B00023104A0193019B01330193019BA5
:1038E000934216D80369002BF6DA0023019303698B
:1038F000094A43F001030361019B01330193019BDA
:10390000934206D8036913F00103F5D1184602B0BB
:1039100070470320FBE700BF400D030084B038B5BB
:1039200005AD85E80E000A9B012B044625D1836B6B
:1039300023F480338363C36823F4840323F04003B8
:10394000C360C36823F44013C360119B012B02BF03
:10395000C36843F48013C360FFF7BAFF089B012BD1
:1039600007D1A36843F00603A360A36843F02003D4
:10397000A360BDE8384004B07047C36843F040031B
:10398000C360FFF7A5FF0E9B23B9A36B43F48033FD
:10399000A363E3E7A36B23F48033F9E7022A4AD158
:1039A000274B284A0B44934239D9274B274A0B44CB
:1039B000934236D9264AA1F57403A3F510539342D6
:1039C00031D9244AA1F18373A3F5E74393422CD361
:1039D000214B224A0B44934229D9214B214A0B44C3
:1039E000934226D3204B214A0B44934223D3204AAF
:1039F000A1F1B773A3F5585393421ED31D4B1E4A32
:103A00000B44934234BF07230623C26822F470524A
:103A1000C260C26842EA8323C360002070470F235C
:103A2000F3E70E23F1E70D23EFE70C23EDE70B237C
:103A3000EBE70A23E9E70923E7E70823E5E700BF07
:103A4000405327FFFF340C00401E1BFF3F420F0076
:103A50007F4F120020D6130060B6E5FE5FE316002C
:103A600000D3CEFE40771B00C05BB3FEC0912100A7
:103A700020753800E05459FEE09C4100836843F013
:103A80000103836000207047836823F00103836093
:103A90000020704738B5C368012923F0C0430546AC
:103AA000C36010D1C36843F00053C36000240120F9
:103AB000FDF7D8FE6B69D90704F1010415D4322C47
:103AC000F5D1012038BD0029FBD1C36843F0804304
:103AD000C3600C460120FDF7C5FE6B69DA0704F1EF
:103AE000010402D5322CF5D1EBE7A4F132035842A0
:103AF0005841E7E782B00023104A0193019B01334C
:103B00000193019B934216D80369002BF6DA8901D1
:103B1000002341F02001094A01930161019B013317
:103B20000193019B934206D8036913F02003F5D15A
:103B3000184602B070470320FBE700BF400D0300AA
:103B400082B000230F4A0193019B01330193019B33
:103B5000934214D80369002BF6DA00230193094A33
:103B600010230361019B01330193019B934206D80B
:103B7000036913F01003F5D1184602B07047032013
:103B8000FBE700BF400D0300D0F800381943C0F830
:103B9000001800207047000084B02DE9F843044667
:103BA00009A880E80E00139D00230E46194603F174
:103BB000400204EB820201330F2B5160F7D104F570
:103BC0000067002D6CD17B6843F002037B60A36B20
:103BD00043F40013A363A36B23F40023A363A36B39
:103BE00023F48023A3630023C4F8003ED4F80038F4
:103BF000C4F800380E9B012B5CD10B99002957D1DA
:103C00002046FFF7C1FF10212046FFF773FF014652
:103C10002046FFF795FF0843C0B2002300383B6100
:103C200018BF01207B6104F51062FB6119464FF05B
:103C3000904C4FF0006E4FF67F38B3423CD10022DB
:103C400004F5306311464FF0904C4FF0006E4FF684
:103C50007F38B24243D13B6923F480733B61002338
:103C6000A3616FF0804363610C9B1BB9A36943F0B0
:103C70001003A361A269234B1343A3610F9B1BB1E4
:103C8000A36943F00803A361012D01BFA36943F0B9
:103C9000804343F00403A361BDE8F84304B07047D8
:103CA000A36B23F40013A363A36B43F4002399E7EE
:103CB0001946A5E70321A3E7D2F80090B9F1000F58
:103CC0000BDA3BB9C2F800E011610133C2F8088099
:103CD0002032B2E7C2F800C0F6E71160F4E7D3F88B
:103CE0000090B9F1000F0BDA3AB9C3F800E019619E
:103CF0000132C3F808802033ABE7C3F800C0F6E711
:103D00001960F4E700383C80D0F8083813F006005A
:103D100004D013F0020F14BF02200F20704730B5FB
:103D20000D78012405F00F039C404B7800F50062EC
:103D3000012B00EB4510D36918D11C43D461D0F896
:103D400000391A0410D4CA68D0F80049C2F30A0333
:103D50000A79234343EA824343EA855343F080537D
:103D600043F40043C0F80039002030BD43EA044466
:103D7000D461D0F8003B1B04F6D4CB68D0F8002BFC
:103D8000C3F30A0313430A7943EA824343F080539F
:103D900043F40043C0F8003BE6E7000010B50A78A2
:103DA0004978012900EB421300F5006002F00F0290
:103DB00022D1D3F8001900290BDAD3F8001941F009
:103DC0000061C3F80019D3F8001941F08041C3F82D
:103DD0000019C46B012101FA02F224EA0204C4634F
:103DE000C16921EA0202C261D3F80019144A0A40EB
:103DF000C3F80029002010BDD3F8001B00290BDAFE
:103E0000D3F8001B41F00061C3F8001BD3F8001B7E
:103E100041F08041C3F8001BC46B4FF4803101FABC
:103E200002F224EA0204C463C16921EA0202C26107
:103E3000D3F8001B034A0A40C3F8002BDAE700BF9F
:103E4000007833EC0078F3EF4B78DFF8F0C0F0B592
:103E50000E788D69384F012B00EB461446D104F5DE
:103E60001063BDB91D692F401F611D6945F4002510
:103E70001D611D6905EA0C05012A1D6123D14A69EE
:103E800002B15A61D4F8003943F00443C4F8003950
:103E90000020F0BDD3F810E00EEA0C0CC3F810C0FF
:103EA000D3F810C00CEA07071F61CF68AF421D6945
:103EB00038BF8F6145F400251D618D691F69C5F309
:103EC00012053D43D8E7D4F8003943F00443C4F861
:103ED00000398B69002BDBD0D0F8342806F00F06B0
:103EE0000123B3401343C0F83438D1E7D4F8100BA2
:103EF00000EA0C00C4F8100BD4F8100B384004F59D
:103F000030631861C86805B188611D69C86145F4EE
:103F100000251D611D69C0F312002843012A1861A4
:103F200002D10A6902B15A61D4F8003B43F004435C
:103F3000C4F8003BACE700BFFFFF07E00000F8FF5C
:103F400082B000234A7801930B78012A4FEA431389
:103F50001ED100F51060C118C258002A02DB0020F3
:103F600002B07047C25842F00062C250C25842F0DC
:103F70008042C25042F21072019B01330193019BB7
:103F8000934201D90120EBE70B68002BF4DBE6E755
:103F900000F53060C118C258002AE0DAC25842F079
:103FA0000062C250C25842F08042C25042F21072C7
:103FB000019B01330193019B9342E3D80B68002BD3
:103FC000F6DBCCE710B59DF8084044B90333013265
:103FD0009B0800EB023001EB83038B4201D10020F0
:103FE00010BD51F8042B0260F7E700002DE9F34102
:103FF0004D780F788B690E79DFF8BCC1DFF8BCE132
:10400000012D00EB471440F08E8004F51065D5F8C3
:1040100010806BBB08EA0C0CC5F810C0D5F810C0B6
:104020004CF4002CC5F810C0D5F810C00CEA0E0EE8
:10403000C5F810E0012A4ED14B6903B16B61012E26
:104040000CD1D0F8083813F4807FD4F800390CBFB5
:1040500043F0005343F08053C4F80039D4F80039DA
:1040600043F00443C4F80039002002B0BDE8F081F9
:1040700008EA0E0EC5F810E0D5F810E00EEA0C0CB8
:10408000D1F80CE0C5F810C00EEB030C0CF1FF3CAE
:10409000BCFBFEFEDFF828C1D5F810800CEACE4C40
:1040A0004CEA080CC5F810C0D5F810E0C3F3120CA8
:1040B0004CEA0E0C012EC5F810C0BBD1D5F810C0CB
:1040C0002CF0C04CC5F810C0D5F810C04CF0005C06
:1040D000C5F810C0AEE7D4F80059012E45F00445EC
:1040E000C4F800590BD0002BBED0D0F8343807F0FC
:1040F0000F02012797401F43C0F83478B4E7D0F887
:10410000085815F4807FD4F800590CBF45F00055CD
:1041100045F08055C4F80059009209699BB23A46AF
:10412000FFF750FFA0E7D4F8105B05EA0E05C4F8CE
:10413000105BD4F8105B05EA0C0504F530673D61AF
:10414000CD681BBB3B69C5F312051D433D613B694F
:1041500043F400233B61012A02D10B6903B17B6167
:10416000012E0CD1D0F8083813F4807FD4F8003B2E
:104170000CBF43F0005343F08053C4F8003BD4F825
:10418000003B43F00443C4F8003B6DE72B44DFF8E9
:1041900030C0D7F810E0013BB3FBF5F39BB25D43B1
:1041A0000CEAC34343EA0E03CD613B613B69C5F3AF
:1041B00012051D433D61CEE7FFFF07E00000F8FF59
:1041C0000000F81F034670B59008002402F00302B7
:1041D00003F58055844210D301EB800062B103F5F2
:1041E00080531C680023D90024FA01F1C154013323
:1041F00099B28A42F7D1104470BD2E6841F824600C
:104200000134E7E74A780B78012A00EB431012D11A
:10421000D0F80029002A06DB2BB1D0F8003923F0B2
:104220008043C0F80039D0F8003943F40013C0F8D7
:10423000003900207047D0F8002B002A06DB2BB194
:10424000D0F8003B23F08043C0F8003BD0F8003B9F
:1042500043F40013C0F8003BEBE70B784A7800EB1F
:1042600043100B79012AA3F10203DBB20FD1D0F87E
:104270000029012B22F40012C0F8002905D8D0F83B
:10428000003943F08053C0F8003900207047D0F85F
:10429000002B22F40012012BC0F8002B9EBFD0F897
:1042A000003B43F08053C0F8003BEEE7D0F8003805
:1042B00023F4FE63C0F80038D0F80038090101F497
:1042C000FE611943C0F8001800207047D0F8003E86
:1042D00023F00303C0F8003ED0F8043823F00203B3
:1042E000C0F8043800207047D0F8003E23F00303E4
:1042F000C0F8003ED0F8043843F00203C0F8043898
:10430000002070474269806910407047D0F8183823
:1043100000F50060C0691840000C7047D0F81838EC
:1043200000F50060C069184080B2704700EB411191
:1043300000F50060D1F8082B40691040704710B5B7
:10434000D0F81048D0F8343800EB411001F00F01DC
:10435000CB4000F51060DB018068DBB223431840DE
:1043600010BD406900F001007047D0F8003923F417
:10437000FF6323F00703C0F80039D0F8043843F492
:104380008073C0F8043800207047000030B5056C19
:10439000104CA54200F5306303D9D0F8004B002C37
:1043A00016DB00241C611C6944F400241C611C6998
:1043B00044F018041C611C69012944F0C0441C61CC
:1043C00001BF5A61D0F8003B43F08023C0F8003BA6
:1043D000002030BD0A30544FD0F8D43200EB8300B7
:1043E00010B5D0F8C04284B1D0F8C4325BB194F8B3
:1043F0000002FF2807D09B6894F8012221469847C5
:10440000FF2384F80032002000E0032010BD0000EC
:104410000A230380004870478800002070B582217D
:1044200006460F4800F079FB012105460C4800F0D4
:1044300074FB812104460A4800F06FFB0DB1102285
:10444000AA711CB1402222710022627118B140226F
:1044500002710022427143230148338070BD00BFC6
:1044600044000020FFF7DABF70B5822106460F48EE
:1044700000F053FB012105460C4800F04EFB812162
:1044800004460A4800F049FB0DB11022AA711CB184
:10449000002222710222627118B1002202710222EE
:1044A000427143230148338070BD00BF44000020A7
:1044B00038B5D0F8D432B033044650F823508DB11B
:1044C00000F083FFC5F80C02D4F8D40204EB80049A
:1044D00005F50371D4F8C432D5F80402DB689847B7
:1044E000002038BD0320FCE7F8B5D0F8D46200EB1B
:1044F00086060A46D6F8C05245B301F00F0C1427C1
:1045000007FB0C07BC6994B1D0F8C8324FF0240EF9
:104510000EFB0C339B6CB4FBF3FC03FB1C4434B963
:10452000BC612346224600F09CFF20460DE0D6F8F1
:10453000C4321C690027C5F81472002CF5D0D5F8D8
:10454000080205F50471A0473846F8BD0320FCE7D2
:10455000D0F8D4322DE9F34100EB83034FF000088B
:10456000D3F8C0728DF8058005460E46ADF806807A
:10457000002F6ED00A7812F060042ED0202C64D167
:10458000CC8891F801C00CB3120613D5D3F8C4320D
:10459000224639469B6860469847F288072A28BF1A
:1045A00007223946284600F02AFD4446204602B03C
:1045B000BDE8F081402C28BF402487F800C287F86E
:1045C00001422246394600F02FFDEEE7D3F8C4320F
:1045D00022469B6860469847E8E74F780B2F34D80F
:1045E00001A353F827F000BF19460008AD450008A5
:1045F0004B4600084B4600084B4600084B46000857
:104600004B4600084B4600084B4600084B46000846
:104610002F4600084346000890F89C32032B14D123
:1046200002220DF1060100F0EAFC3C46BEE790F8DC
:104630009C32032B09D101220DF1050100F0DFFCB2
:10464000B4E790F89C32032BB0D03146284600F0F6
:10465000AFFC0324AAE700BF38B50446002581213A
:1046600000F0DBFE01212587204600F0D6FEA4F8ED
:1046700078518221204600F0D0FED4F8D432E5648F
:1046800004EB8303D3F8C0228AB1D3F8C4325B6849
:104690009847D4F8D432B03354F8230000F09EFE8B
:1046A000D4F8D432B03344F82350C4F8BC520020BC
:1046B00038BD70B504464FF4077000F08BFE054618
:1046C00030B9D4F8D432B03344F82300022547E09F
:1046D0004FF40772002100F001FFD4F8D432B03358
:1046E00044F82350237CC4F8BC52002B3AD14FF439
:1046F0000073022281212046012600F082FE2687D7
:104700004FF4007331460222204600F07AFE102357
:104710000322A4F87861A4F84E30822108232046B1
:1047200000F06FFED4F8D43204EB83030026D3F8F4
:10473000C4320121A4F84C101B68C5F804629847E4
:10474000D5F80422C5F81462C5F81862002ABDD055
:10475000257C012185B94FF40073204600F08AFEC4
:10476000284670BD4023022281212046012600F008
:1047700048FE26874023C5E74023204600F07AFE06
:104780003546EDE739B1D0F8D43200EB8300C0F8FC
:10479000C4120020704703207047D0F8D432B033E1
:1047A00050F823302BB1C3F80812C3F810220020B0
:1047B000704703207047D0F8D432B03350F823301C
:1047C0001BB1C3F804120020704703207047D0F8D3
:1047D000D422B03210B550F8222082B1047CD2F835
:1047E000042234B94FF40073012100F043FE204647
:1047F00010BD4023012100F03DFE0024F7E7032413
:10480000F5E778B10023C0F8B832C0F8C432C0F878
:10481000D03209B1C0F8B412012380F89C32027082
:1048200000F092BD0320704713B500230446ADF895
:10483000063081B1CB6AC0F8B81223B10DF1060081
:104840009847C4F8D002D4F8D8320133C4F8D8322B
:10485000002002B010BD0320FBE700F0C9BDD0F876
:10486000B8320BB11B6818471846704708B5D0F826
:10487000B8325B689847002818BF032008BD38B5D8
:10488000044600F2AA25284600F087FB012394F88D
:10489000AA12C4F89432B4F8B032C4F8983201F0D5
:1048A0001F03012B08D0022B0CD08BB929462046C0
:1048B000BDE8384000F04EB929462046BDE83840F2
:1048C00000F09EBA29462046BDE8384000F0C7BA3D
:1048D000204601F08001BDE8384000F0A7BD70B56A
:1048E0000446164609BBD0F89432032B0CD1D0E90C
:1048F000573293420AD99B1A9A42C0F85C3128BFBA
:104900001A46314600F09DFB002070BD90F89C32A5
:10491000032B06D1D0F8B8321B6913B1C0F8D412FA
:104920009847204600F095FBEEE790F89C32032B69
:10493000EAD1D0F8B8329B69002BE5D00022BDE85F
:104940007040C0F8D422184773B5044616460029B3
:1049500041D1D0F89422022A0FD1D0E907529542D2
:1049600014D9AA1A0191C261314600F055FB019B8E
:104970001A461946204600F07DFD94F8A03213B186
:10498000002384F8A032002002B070BD0ED18269ED
:1049900095420BD8D0F89852AA4207D20A46019104
:1049A00000F03AFB019BC4F89832E1E794F89C329E
:1049B000032B08D1D4F8B832DB6823B10022C4F845
:1049C000D422204698478021204600F02FFD204623
:1049D00000F04AFBD1E790F89C32032BD3D1D0F8FA
:1049E000B8325B69002BCED00022C0F8D42202B0CE
:1049F000BDE870401847F8B5012380F89C32D0F824
:104A0000B83200210446C0F894124160C0F8A412E4
:104A100080F8A012B3B900260022402511460127D4
:104A20004023204600F0EDFCA4F86471C4F8605106
:104A30002B4600228021204600F0E3FCA78425625B
:104A40003046F8BD5B68002BE5D098470028E2D0DF
:104A50000326E1E701740020704790F89C32DBB236
:104A600080F89D32042380F89C320020704790F833
:104A70009C32042B02BF90F89D32DBB280F89C324E
:104A80000020704708B590F89C22032A05D1D0F881
:104A9000B83213B1DB6903B19847002008BDD0F8E4
:104AA000D422AE3208B550F8222042B190F89C32A0
:104AB000032B02D1136A23B19847002000E00320A2
:104AC00008BD1846FCE7D0F8D422AE3208B550F83D
:104AD000222042B190F89C32032B02D1536A23B1B9
:104AE0009847002000E0032008BD1846FCE700209E
:104AF0007047012208B580F89C22D0F8B8220AB984
:104B0000002008BD5268017990470028F8D00320A2
:104B1000F7E7002070470020704710B542880378FF
:104B20009A420AD90478204423444478052C9BB245
:104B3000F6D184788C42F3D110BD0020FCE710B58B
:104B40008021044600F072FC20460021BDE81040A0
:104B500000F06CBC2DE9F3410D7805F06005202DC7
:104B600004460E4614D0402D12D0002D40F00A818C
:104B70004F78092F00F20681DFE817F00B013401AE
:104B8000040123010401860016000401F300A200C1
:104B9000D4F8D432AE33314654F823309B682046E3
:104BA00002B0BDE8F04118470023ADF806304B884D
:104BB0001A0A013A062A37D8DFE802F0041C29361F
:104BC00036515B00D0F8B4321B68207C0DF1060131
:104BD0009847F288002A00F00181BDF806301BB327
:104BE0009A4228BF1A46ADF806200146204600F03A
:104BF00006FA1CE0027CD0F8B83232B99B6A0DF19B
:104C00000600984702234370E3E7DB6AF7E7DBB26D
:104C1000052B09D8DFE803F0030F13171B1FD0F88B
:104C2000B4325B68002BD0D12046FFF788FF2846BE
:104C300002B0BDE8F081D0F8B4329B68F2E7D0F85A
:104C4000B432DB68EEE7D0F8B4321B69EAE7D0F89B
:104C5000B4325B69E6E7D0F8B4329B69E2E7037CE3
:104C6000002BE1D1D0F8B8320DF106005B6B98470C
:104C7000AFE7037C002BD7D1D0F8B8320DF1060096
:104C80001B6B98470723BEE78B88002BCCD1CB88C2
:104C9000002BC9D14E887F2EC6D890F89C32032BAA
:104CA000C2D0F1B280F89E1200F0D2FB204600F094
:104CB000D0F91EB1022384F89C32B8E70123FAE749
:104CC0008E784E4F012E3E7003D9FFF738FF032533
:104CD000ADE790F89C32022B5FFA83F809D0B8F167
:104CE000030F18D0FFF72BFF39782046FFF7BEFDE2
:104CF000EDE7002E72D001214160FFF7B0FD0546BF
:104D0000204625B1FFF71BFF84F89C828FE700F057
:104D1000A0F90323CFE75EB9022380F89C324660F6
:104D20003146FFF7A3FD204600F093F935467EE7B4
:104D30004168012952D0C9B2FFF798FD3978616006
:104D40002046FFF78CFD0646002847D02046FFF797
:104D5000F6FE21792046FFF789FD022384F89C3274
:104D6000E4E7CA88012A7FF45FAF90F89C12022919
:104D7000CBB205D833B10146002341F8083F35E7EF
:104D8000032B04D02046FFF7DAFE00254FE7011D74
:104D90002CE790F89C32013B022BF3D8CB88022BF6
:104DA0007FF442AF0123C360D0F8A4320BB10323D8
:104DB000C360022204F10C01204600F020F93D46B8
:104DC00035E74B88012B02D1C4F8A43206E0022B50
:104DD0007FF42AAF8B881B0A80F8A032204600F0AF
:104DE00038F924E790F89C32013B022BCAD84B8853
:104DF000012B7FF41CAF0023E6E700BF2006002054
:104E000070B50B7803F06002402A04460E4601D0CC
:104E10005B061FD494F89C32013B022B1AD83179DF
:104E20000129204617D8FFF774FE88B9D4F8B832A4
:104E30009B686BB1C4F8D4023146204698470546BA
:104E4000F3881BB915B9204600F003F9284670BD58
:104E50000325F5E72046FFF772FE0025F6E770B55B
:104E60000B788A880E7903F06003202B04460D46E8
:104E700053D0402B51D063BB4B78012B3BD0032B3D
:104E800020D033BB90F89C32022BD9B261D00329D9
:104E90001FD106F00F0312F0800F4FF0140202FB37
:104EA000030365D09B8CA3B106F07F05013505EBAC
:104EB000850500EB850516F07F0365D12B60022286
:104EC000294651E090F89C32022BDAB237D0032AFF
:104ED00003D02046FFF733FE0BE04B8833B9710651
:104EE00004D0EB8813B9314600F0A0FA204600F058
:104EF000B0F8002070BD90F89C32022BDAB21ED0C0
:104F0000032AE6D14B88002BF3D1730602D0314639
:104F100000F095FA204600F09CF831462046FFF755
:104F2000FAFD0028E5D1D4F8B832C4F8D4029B6861
:104F3000002BDED029462046BDE870401847720697
:104F4000C7D0314600F072FA8021204600F06EFA98
:104F5000CFE77106BDD113064CBF00F1140100F577
:104F6000AA7100230B600222204600F048F8C0E737
:104F7000B3F86431002BACD006F07F05142303FB9B
:104F8000050505F5AA7596E73146204600F00AFAB0
:104F900008B1012392E7286091E70B7803704B7802
:104FA00043704B8843808B888380CB88C380704755
:104FB00010B58021044600F039FA20460021BDE8F2
:104FC000104000F033BA30B588B1002401382346D0
:104FD0000134055D002DFAD1DBB201335B00138093
:104FE0000B7003234B70022310F8012F02B930BD60
:104FF000CA545A1CD2B202338D54DBB2F4E710B556
:1050000002241346C0E90622C0F894420A46002151
:1050100000F027FA002010BD08B513460A4600210B
:1050200000F01FFA002008BD10B503241346C0E9A4
:105030005622C0F894420A46002100F01BFA0020D4
:1050400010BD08B513460A46002100F013FA0020EF
:1050500008BD08B504220023C0F8942219461A4658
:1050600000F0FFF9002008BD08B505220023C0F8B4
:10507000942219461A4600F0FDF9002008BD0000F0
:1050800008B50F490F480022FFF7BBFB08B1FCF73A
:1050900053F90D490B48FFF7C7FB08B1FCF74CF972
:1050A0000A490848FFF76EFB08B1FCF745F90548C7
:1050B000FFF7D3FB18B1BDE80840FCF73DB908BDC8
:1050C000A8000020240600200C00002094000020EE
:1050D00000207047002070470020704710B5054C35
:1050E00001462046FFF767FB2046FFF770FB0020D4
:1050F00010BD00BF2406002010B5064C0649002252
:105100002046FFF74AFB05492046FFF754FB0020E5
:1051100010BD00BF2406002000110020000900205F
:10512000122301480B807047C4000020042301486B
:105130000B807047D8000020002370B54D1C1E4620
:10514000040FB0F1204F34BF3034373401F813402E
:1051500005F813600133DCB2A2424FEA0010EFD829
:1051600070BD00001A2310B50B800A4BD3F8100A4B
:10517000D3F8182A80180AD0D3F8144A064908220E
:10518000FFF7DAFF042210312046FFF7D5FF03486E
:1051900010BD00BF0070FF1FDE000020DC000020FB
:1051A00010B5044C04480A462146FFF70CFF204680
:1051B00010BD00BF00190020F27F000810B5044C9C
:1051C00004480A462146FFF7FEFE204610BD00BFF8
:1051D000001900200580000810B5044C04480A4658
:1051E0002146FFF7F0FE204610BD00BF0019002049
:1051F0000B80000810B5044C04480A462146FFF70E
:10520000E2FE204610BD00BF0019002016800008F5
:1052100030B5044689B01422002103A800F05EF9DD
:105220002368B3F1A04F2ED1184C194800250195E1
:10523000236B43F001032363236B03F0010301930A
:105240004FF4C052019B0223CDE9032303210A231B
:10525000CDE9061303A9FCF7C9FF636B43F0800394
:1052600063630295636C43F480436364636C03F48B
:105270008043029343202A462946029BFCF7D4FD33
:105280004320FCF703FE09B030BD00BF00380240E8
:105290000000024000F2C441D0F80805FFF7EFBA61
:1052A000242303FB0103D0F80805D3F88C22FFF771
:1052B00016BB242303FB0103D0F80805DA6CFFF7C3
:1052C00043BBD0F80805FFF7DDBBC16810B5044645
:1052D00021B1022901D0FCF72FF80121D4F80805EB
:1052E000FFF7B8FBD4F80805BDE81040FFF783BB13
:1052F00010B50446D0F80805FFF7AFFB2268D2F8D6
:10530000003E43F00103C2F8003E236A23B1034A82
:10531000136943F00603136110BD00BF00ED00E008
:10532000D0F80805FFF7A3BBD0F80805FFF7CBBB03
:10533000D0F80805FFF7B3BBD0F80805FFF7D7BBD7
:10534000D0F80805FFF7D5BB08B5037802462BBB9C
:1053500013484FF0A041C0F80825C2F8C802042243
:10536000C0E900120222C0E90323C0E90623C0E914
:105370000833C0E90B33FDF721F808B1FBF7DCFF78
:1053800080210748FDF76AFD402200210448FDF70F
:1053900045FD034880220121FDF740FD002008BDA6
:1053A000001B002011F0800FD0F8C8324FF024020B
:1053B0001BBF01F07F0102FB013102FB013191F8BB
:1053C0003E0008BF91F87E027047D0F8C802FDF792
:1053D00038B90000004870470C20002070470000DA
:1053E00003289ABF014B185C0320704724800008F3
:1053F00008B5D0F8C802FDF766F8BDE80840FFF729
:10540000EFBF10B51446D0F8C8021A462346FDF780
:105410008DF8BDE81040FFF7E3BF08B5D0F8C8022B
:10542000FDF7BCF8BDE80840FFF7DABF08B5D0F8D3
:10543000C802FDF72EF9BDE80840FFF7D1BF08B557
:10544000D0F8C802FDF75DF9BDE80840FFF7C8BF16
:1054500008B5D0F8C802FDF755F8BDE80840FFF7D9
:10546000BFBF08B5D0F8C802FDF7F3F8BDE80840A3
:10547000FFF7B6BF08B5D0F8C802FDF7BEF8BDE823
:105480000840FFF7ADBF0000014B1868704700BF30
:10549000F800002070B50D4D0D4C641BA4100026C3
:1054A000A64209D10B4D0C4C02F04EFD641BA4101A
:1054B0000026A64205D170BD55F8043B9847013639
:1054C000EEE755F8043B98470136F2E70C840008F4
:1054D0000C8400080C840008108400080244034671
:1054E000934200D1704703F8011BF9E72DE9FF470C
:1054F00055EC104B002D0E4619462B46BBBF05F14F
:1055000000431D4600232D230B700D9BDDF830A0BA
:10551000914623F02008BCBF22461446B8F1460F3E
:1055200005D0B8F1450F00D10136022100E003217A
:1055300003AB019302AB009345EC104B534632464C
:1055400000F0E2FCB8F1470F074602D119F0010F55
:1055500022D0B8F1460F07EB060910D13B78302B6B
:105560000AD10022002320462946FBF7ADFA18B9DC
:10557000C6F10106CAF80060DAF80030994400224A
:10558000002320462946FBF79FFA08B1CDF80C907E
:105590003022039B4B4507D3039B0E9ADB1B3846F7
:1055A000136004B0BDE8F087591C03911A70F0E74E
:1055B000F7B503460029B8BF494203F8022BB4BF30
:1055C0002D222B22092942702ADD0DF10704A44661
:1055D0000A27A6460A4691FBF7F607FB1615303553
:1055E000632A04F1FF340EF8015C3146F1DC3031FE
:1055F000AEF1020504F8011C441C294661450AD39A
:105600000DF10902A2EB0E02654588BF002213448A
:10561000181A03B0F0BD11F8012B04F8012FEDE7C3
:10562000302330318370C170031DF1E72DE9F04F55
:105630002DED028B8DB00C46DDF8608016461F46BE
:10564000054601F045FBD0F800A05046FAF7C0FD32
:1056500000230A9323680593D8F8003094F818B013
:10566000073323F0070303F10802C8F80020D3E949
:105670000023C4E91223D4E9128929F000430793D7
:10568000CDF8188008EE100A9F4BDDE906014FF0B7
:10569000FF32FBF74BFA88BBDDE906019A4B4FF06E
:1056A000FF32FBF725FA48BB00220023404649465B
:1056B000FBF714FA10B12D2384F84330934B944830
:1056C000BBF1470F94BF9846804603232361059B97
:1056D00023F0040222604FF00009009733460BAA22
:1056E0002146284600F0D8F9013040F090804FF074
:1056F000FF300DB0BDEC028BBDE8F08F42464B464B
:1057000040464946FBF712FA40B14B46002BBCBF5E
:105710002D2384F843307F487F4BD1E763680BF03B
:10572000DF0206925A1C3FD106236360059B616825
:1057300043F48062002303930AABCDE901B309ABC4
:1057400049EC108B009322600DF123032846FFF7EC
:10575000CDFE069B0999472B804608D1C81C02DB69
:105760006368994241DDABF1020B5FFA8BFBBBF141
:10577000650F20D801395A4604F150000991FFF70E
:1057800017FF0A9A1318012A8146236102DC226856
:10579000D20701D5013323619DF82330002B9CD023
:1057A0002D2384F8433098E7069A472ABED1002B70
:1057B000BCD10123B9E7BBF1660F18D1002963689A
:1057C0000BDD216113B92268D00702D501330B44E8
:1057D0002361A1654FF00009DEE713B92268D20703
:1057E00001D50233F4E70123F2E74FF0670B0A9B80
:1057F000994205DB23682161D807EAD54B1CE7E70E
:105800000029D4BFC1F1020201221344E0E723685A
:105810005A0507D42369424631462846B847013025
:105820002CD164E7BBF1650F40F2E080D4E91201AE
:1058300000220023FBF748F9002834D0374A01231F
:1058400031462846B84701303FF451AFDDE909231E
:105850009A4202DB2368D80710D518EE103A524658
:1058600031462846B84701303FF441AF4FF00008B9
:1058700004F11A090A9B013B434509DC23689B0795
:1058800000F10581E0680B9B9842B8BF184630E7ED
:1058900001234A4631462846B84701303FF427AF36
:1058A00008F10108E6E7099B002B39DC1B4A0123BC
:1058B00031462846B84701303FF419AFDDE90923E6
:1058C000134302D12368D907D8D518EE103A5246AF
:1058D00031462846B84701303FF409AF4FF0000980
:1058E00004F11A0A099B5B424B4501DC0A9B92E7D3
:1058F0000123524631462846B84701303FF4F7AEFF
:1059000009F10109EEE700BFFFFFEF7F2C800008DF
:105910003080000838800008348000083C8000088F
:105920000A9AA36D9A42A8BF1A46002A914637DC0C
:105930004FF0000B29EAE97904F11A02A36D0593EF
:10594000A3EB09035B4533DCDDE909239A423BDB2A
:105950002368DA0738D40A9B059A09999A1AA3EBA7
:1059600001099145A8BF9146B9F1000F35DC4FF010
:10597000000829EAE97904F11A0ADDE909239B1AEA
:10598000A3EB090343457FF779AF01235246314624
:105990002846B84701303FF4AAAE08F10108ECE709
:1059A0001346314642462846B8470130C0D19EE6EC
:1059B0000123314628460592B84701303FF497AE9F
:1059C000059A0BF1010BB9E718EE103A5246314631
:1059D0002846B8470130BED189E6059A4B46424475
:1059E00031462846B8470130C1D180E60A9A012ADB
:1059F00001DCDB0738D50123424631462846B8474B
:105A000001303FF474AE18EE103A52463146284643
:105A1000B84701303FF46BAED4E9120100220023F5
:105A2000FBF752F8D8B90A9B08F10102013B314655
:105A30002846B84701300ED159E601235246314677
:105A40002846B84701303FF452AE08F101080A9BDE
:105A5000013B4345F1DC4B4604F15002DCE64FF0DC
:105A6000000804F11A0AF2E701234246DFE70123A6
:105A70004A4631462846B84701303FF438AE08F16F
:105A80000108E3680B995B1A4345F0DCFAE64FF036
:105A9000000804F11909F4E72DE9F0471646994684
:105AA0008A680B69DDF820809342B8BF13463360E3
:105AB00091F8432007460C460AB10133336023684E
:105AC000990642BF336802333360256815F0060536
:105AD00006D104F1190AE36832689B1AAB4226DC4E
